{
	"Contract/PriceConvertor.sol": {
		"PriceConvertor": {
			"abi": [
				{
					"inputs": [
						{
							"internalType": "uint256",
							"name": "ethAmount",
							"type": "uint256"
						}
					],
					"name": "getConversionRate",
					"outputs": [
						{
							"internalType": "uint256",
							"name": "",
							"type": "uint256"
						}
					],
					"stateMutability": "view",
					"type": "function"
				},
				{
					"inputs": [],
					"name": "getPrice",
					"outputs": [
						{
							"internalType": "uint256",
							"name": "",
							"type": "uint256"
						}
					],
					"stateMutability": "view",
					"type": "function"
				},
				{
					"inputs": [],
					"name": "getVersion",
					"outputs": [
						{
							"internalType": "uint256",
							"name": "",
							"type": "uint256"
						}
					],
					"stateMutability": "view",
					"type": "function"
				}
			],
			"devdoc": {
				"kind": "dev",
				"methods": {},
				"version": 1
			},
			"evm": {
				"assembly": "    /* \"Contract/PriceConvertor.sol\":151:1420  library PriceConvertor{... */\n  dataSize(sub_0)\n  dataOffset(sub_0)\n  0x0b\n  dup3\n  dup3\n  dup3\n  codecopy\n  dup1\n  mload\n  0x00\n  byte\n  0x73\n  eq\n  tag_1\n  jumpi\n  mstore(0x00, 0x4e487b7100000000000000000000000000000000000000000000000000000000)\n  mstore(0x04, 0x00)\n  revert(0x00, 0x24)\ntag_1:\n  mstore(0x00, address)\n  0x73\n  dup2\n  mstore8\n  dup3\n  dup2\n  return\nstop\n\nsub_0: assembly {\n        /* \"Contract/PriceConvertor.sol\":151:1420  library PriceConvertor{... */\n      eq(address, deployTimeAddress())\n      mstore(0x40, 0x80)\n      jumpi(tag_1, lt(calldatasize, 0x04))\n      shr(0xe0, calldataload(0x00))\n      dup1\n      0x0d8e6e2c\n      eq\n      tag_2\n      jumpi\n      dup1\n      0x6e5b6b28\n      eq\n      tag_3\n      jumpi\n      dup1\n      0x98d5fdca\n      eq\n      tag_4\n      jumpi\n    tag_1:\n      revert(0x00, 0x00)\n        /* \"Contract/PriceConvertor.sol\":1269:1418  function getVersion() public view returns(uint256){... */\n    tag_2:\n      tag_5\n      tag_6\n      jump\t// in\n    tag_5:\n      mload(0x40)\n      tag_7\n      swap2\n      swap1\n      tag_8\n      jump\t// in\n    tag_7:\n      mload(0x40)\n      dup1\n      swap2\n      sub\n      swap1\n      return\n        /* \"Contract/PriceConvertor.sol\":1052:1263  function getConversionRate(uint256 ethAmount) public view returns(uint256){... */\n    tag_3:\n      tag_9\n      0x04\n      dup1\n      calldatasize\n      sub\n      dup2\n      add\n      swap1\n      tag_10\n      swap2\n      swap1\n      tag_11\n      jump\t// in\n    tag_10:\n      tag_12\n      jump\t// in\n    tag_9:\n      mload(0x40)\n      tag_13\n      swap2\n      swap1\n      tag_8\n      jump\t// in\n    tag_13:\n      mload(0x40)\n      dup1\n      swap2\n      sub\n      swap1\n      return\n        /* \"Contract/PriceConvertor.sol\":229:1047  function getPrice() public view returns (uint256) {... */\n    tag_4:\n      tag_14\n      tag_15\n      jump\t// in\n    tag_14:\n      mload(0x40)\n      tag_16\n      swap2\n      swap1\n      tag_8\n      jump\t// in\n    tag_16:\n      mload(0x40)\n      dup1\n      swap2\n      sub\n      swap1\n      return\n        /* \"Contract/PriceConvertor.sol\":1269:1418  function getVersion() public view returns(uint256){... */\n    tag_6:\n        /* \"Contract/PriceConvertor.sol\":1311:1318  uint256 */\n      0x00\n        /* \"Contract/PriceConvertor.sol\":1358:1400  0x694AA1769357215DE4FAC081bf1f309aDC325306 */\n      0x694aa1769357215de4fac081bf1f309adc325306\n        /* \"Contract/PriceConvertor.sol\":1336:1409  AggregatorV3Interface(0x694AA1769357215DE4FAC081bf1f309aDC325306).version */\n      0xffffffffffffffffffffffffffffffffffffffff\n      and\n      0x54fd4d50\n        /* \"Contract/PriceConvertor.sol\":1336:1411  AggregatorV3Interface(0x694AA1769357215DE4FAC081bf1f309aDC325306).version() */\n      mload(0x40)\n      dup2\n      0xffffffff\n      and\n      0xe0\n      shl\n      dup2\n      mstore\n      0x04\n      add\n      0x20\n      mload(0x40)\n      dup1\n      dup4\n      sub\n      dup2\n      dup7\n      gas\n      staticcall\n      iszero\n      dup1\n      iszero\n      tag_19\n      jumpi\n      returndatacopy(0x00, 0x00, returndatasize)\n      revert(0x00, returndatasize)\n    tag_19:\n      pop\n      pop\n      pop\n      pop\n      mload(0x40)\n      returndatasize\n      not(0x1f)\n      0x1f\n      dup3\n      add\n      and\n      dup3\n      add\n      dup1\n      0x40\n      mstore\n      pop\n      dup2\n      add\n      swap1\n      tag_20\n      swap2\n      swap1\n      tag_21\n      jump\t// in\n    tag_20:\n        /* \"Contract/PriceConvertor.sol\":1329:1411  return AggregatorV3Interface(0x694AA1769357215DE4FAC081bf1f309aDC325306).version() */\n      swap1\n      pop\n        /* \"Contract/PriceConvertor.sol\":1269:1418  function getVersion() public view returns(uint256){... */\n      swap1\n      jump\t// out\n        /* \"Contract/PriceConvertor.sol\":1052:1263  function getConversionRate(uint256 ethAmount) public view returns(uint256){... */\n    tag_12:\n        /* \"Contract/PriceConvertor.sol\":1118:1125  uint256 */\n      0x00\n        /* \"Contract/PriceConvertor.sol\":1136:1152  uint256 ethPrice */\n      0x00\n        /* \"Contract/PriceConvertor.sol\":1155:1165  getPrice() */\n      tag_23\n        /* \"Contract/PriceConvertor.sol\":1155:1163  getPrice */\n      tag_15\n        /* \"Contract/PriceConvertor.sol\":1155:1165  getPrice() */\n      jump\t// in\n    tag_23:\n        /* \"Contract/PriceConvertor.sol\":1136:1165  uint256 ethPrice = getPrice() */\n      swap1\n      pop\n        /* \"Contract/PriceConvertor.sol\":1175:1196  uint256 ethAmouninUSD */\n      0x00\n        /* \"Contract/PriceConvertor.sol\":1222:1226  1e18 */\n      0x0de0b6b3a7640000\n        /* \"Contract/PriceConvertor.sol\":1212:1220  ethPrice */\n      dup3\n        /* \"Contract/PriceConvertor.sol\":1200:1209  ethAmount */\n      dup6\n        /* \"Contract/PriceConvertor.sol\":1200:1220  ethAmount * ethPrice */\n      tag_24\n      swap2\n      swap1\n      tag_25\n      jump\t// in\n    tag_24:\n        /* \"Contract/PriceConvertor.sol\":1199:1226  (ethAmount * ethPrice)/1e18 */\n      tag_26\n      swap2\n      swap1\n      tag_27\n      jump\t// in\n    tag_26:\n        /* \"Contract/PriceConvertor.sol\":1175:1226  uint256 ethAmouninUSD = (ethAmount * ethPrice)/1e18 */\n      swap1\n      pop\n        /* \"Contract/PriceConvertor.sol\":1243:1256  ethAmouninUSD */\n      dup1\n        /* \"Contract/PriceConvertor.sol\":1236:1256  return ethAmouninUSD */\n      swap3\n      pop\n      pop\n      pop\n        /* \"Contract/PriceConvertor.sol\":1052:1263  function getConversionRate(uint256 ethAmount) public view returns(uint256){... */\n      swap2\n      swap1\n      pop\n      jump\t// out\n        /* \"Contract/PriceConvertor.sol\":229:1047  function getPrice() public view returns (uint256) {... */\n    tag_15:\n        /* \"Contract/PriceConvertor.sol\":270:277  uint256 */\n      0x00\n        /* \"Contract/PriceConvertor.sol\":548:579  AggregatorV3Interface priceFeed */\n      0x00\n        /* \"Contract/PriceConvertor.sol\":604:646  0x694AA1769357215DE4FAC081bf1f309aDC325306 */\n      0x694aa1769357215de4fac081bf1f309adc325306\n        /* \"Contract/PriceConvertor.sol\":548:647  AggregatorV3Interface priceFeed = AggregatorV3Interface(0x694AA1769357215DE4FAC081bf1f309aDC325306) */\n      swap1\n      pop\n        /* \"Contract/PriceConvertor.sol\":706:719  int256 answer */\n      0x00\n        /* \"Contract/PriceConvertor.sol\":836:845  priceFeed */\n      dup2\n        /* \"Contract/PriceConvertor.sol\":836:861  priceFeed.latestRoundData */\n      0xffffffffffffffffffffffffffffffffffffffff\n      and\n      0xfeaf968c\n        /* \"Contract/PriceConvertor.sol\":836:863  priceFeed.latestRoundData() */\n      mload(0x40)\n      dup2\n      0xffffffff\n      and\n      0xe0\n      shl\n      dup2\n      mstore\n      0x04\n      add\n      0xa0\n      mload(0x40)\n      dup1\n      dup4\n      sub\n      dup2\n      dup7\n      gas\n      staticcall\n      iszero\n      dup1\n      iszero\n      tag_30\n      jumpi\n      returndatacopy(0x00, 0x00, returndatasize)\n      revert(0x00, returndatasize)\n    tag_30:\n      pop\n      pop\n      pop\n      pop\n      mload(0x40)\n      returndatasize\n      not(0x1f)\n      0x1f\n      dup3\n      add\n      and\n      dup3\n      add\n      dup1\n      0x40\n      mstore\n      pop\n      dup2\n      add\n      swap1\n      tag_31\n      swap2\n      swap1\n      tag_32\n      jump\t// in\n    tag_31:\n        /* \"Contract/PriceConvertor.sol\":658:863  (... */\n      pop\n      pop\n      pop\n      swap2\n      pop\n      pop\n        /* \"Contract/PriceConvertor.sol\":1035:1039  1e10 */\n      0x02540be400\n        /* \"Contract/PriceConvertor.sol\":1026:1032  answer */\n      dup2\n        /* \"Contract/PriceConvertor.sol\":1026:1039  answer * 1e10 */\n      tag_33\n      swap2\n      swap1\n      tag_34\n      jump\t// in\n    tag_33:\n        /* \"Contract/PriceConvertor.sol\":1011:1040  return uint256(answer * 1e10) */\n      swap3\n      pop\n      pop\n      pop\n        /* \"Contract/PriceConvertor.sol\":229:1047  function getPrice() public view returns (uint256) {... */\n      swap1\n      jump\t// out\n        /* \"#utility.yul\":7:84   */\n    tag_35:\n        /* \"#utility.yul\":44:51   */\n      0x00\n        /* \"#utility.yul\":73:78   */\n      dup2\n        /* \"#utility.yul\":62:78   */\n      swap1\n      pop\n        /* \"#utility.yul\":7:84   */\n      swap2\n      swap1\n      pop\n      jump\t// out\n        /* \"#utility.yul\":90:216   */\n    tag_36:\n        /* \"#utility.yul\":185:209   */\n      tag_54\n        /* \"#utility.yul\":203:208   */\n      dup2\n        /* \"#utility.yul\":185:209   */\n      tag_35\n      jump\t// in\n    tag_54:\n        /* \"#utility.yul\":180:183   */\n      dup3\n        /* \"#utility.yul\":173:210   */\n      mstore\n        /* \"#utility.yul\":90:216   */\n      pop\n      pop\n      jump\t// out\n        /* \"#utility.yul\":222:460   */\n    tag_8:\n        /* \"#utility.yul\":323:327   */\n      0x00\n        /* \"#utility.yul\":361:363   */\n      0x20\n        /* \"#utility.yul\":350:359   */\n      dup3\n        /* \"#utility.yul\":346:364   */\n      add\n        /* \"#utility.yul\":338:364   */\n      swap1\n      pop\n        /* \"#utility.yul\":374:453   */\n      tag_56\n        /* \"#utility.yul\":450:451   */\n      0x00\n        /* \"#utility.yul\":439:448   */\n      dup4\n        /* \"#utility.yul\":435:452   */\n      add\n        /* \"#utility.yul\":426:432   */\n      dup5\n        /* \"#utility.yul\":374:453   */\n      tag_36\n      jump\t// in\n    tag_56:\n        /* \"#utility.yul\":222:460   */\n      swap3\n      swap2\n      pop\n      pop\n      jump\t// out\n        /* \"#utility.yul\":547:664   */\n    tag_38:\n        /* \"#utility.yul\":656:657   */\n      0x00\n        /* \"#utility.yul\":653:654   */\n      0x00\n        /* \"#utility.yul\":646:658   */\n      revert\n        /* \"#utility.yul\":793:915   */\n    tag_40:\n        /* \"#utility.yul\":866:890   */\n      tag_61\n        /* \"#utility.yul\":884:889   */\n      dup2\n        /* \"#utility.yul\":866:890   */\n      tag_35\n      jump\t// in\n    tag_61:\n        /* \"#utility.yul\":859:864   */\n      dup2\n        /* \"#utility.yul\":856:891   */\n      eq\n        /* \"#utility.yul\":846:909   */\n      tag_62\n      jumpi\n        /* \"#utility.yul\":905:906   */\n      0x00\n        /* \"#utility.yul\":902:903   */\n      0x00\n        /* \"#utility.yul\":895:907   */\n      revert\n        /* \"#utility.yul\":846:909   */\n    tag_62:\n        /* \"#utility.yul\":793:915   */\n      pop\n      jump\t// out\n        /* \"#utility.yul\":921:1060   */\n    tag_41:\n        /* \"#utility.yul\":967:972   */\n      0x00\n        /* \"#utility.yul\":1005:1011   */\n      dup2\n        /* \"#utility.yul\":992:1012   */\n      calldataload\n        /* \"#utility.yul\":983:1012   */\n      swap1\n      pop\n        /* \"#utility.yul\":1021:1054   */\n      tag_64\n        /* \"#utility.yul\":1048:1053   */\n      dup2\n        /* \"#utility.yul\":1021:1054   */\n      tag_40\n      jump\t// in\n    tag_64:\n        /* \"#utility.yul\":921:1060   */\n      swap3\n      swap2\n      pop\n      pop\n      jump\t// out\n        /* \"#utility.yul\":1066:1395   */\n    tag_11:\n        /* \"#utility.yul\":1125:1131   */\n      0x00\n        /* \"#utility.yul\":1174:1176   */\n      0x20\n        /* \"#utility.yul\":1162:1171   */\n      dup3\n        /* \"#utility.yul\":1153:1160   */\n      dup5\n        /* \"#utility.yul\":1149:1172   */\n      sub\n        /* \"#utility.yul\":1145:1177   */\n      slt\n        /* \"#utility.yul\":1142:1261   */\n      iszero\n      tag_66\n      jumpi\n        /* \"#utility.yul\":1180:1259   */\n      tag_67\n      tag_38\n      jump\t// in\n    tag_67:\n        /* \"#utility.yul\":1142:1261   */\n    tag_66:\n        /* \"#utility.yul\":1300:1301   */\n      0x00\n        /* \"#utility.yul\":1325:1378   */\n      tag_68\n        /* \"#utility.yul\":1370:1377   */\n      dup5\n        /* \"#utility.yul\":1361:1367   */\n      dup3\n        /* \"#utility.yul\":1350:1359   */\n      dup6\n        /* \"#utility.yul\":1346:1368   */\n      add\n        /* \"#utility.yul\":1325:1378   */\n      tag_41\n      jump\t// in\n    tag_68:\n        /* \"#utility.yul\":1315:1378   */\n      swap2\n      pop\n        /* \"#utility.yul\":1271:1388   */\n      pop\n        /* \"#utility.yul\":1066:1395   */\n      swap3\n      swap2\n      pop\n      pop\n      jump\t// out\n        /* \"#utility.yul\":1401:1544   */\n    tag_42:\n        /* \"#utility.yul\":1458:1463   */\n      0x00\n        /* \"#utility.yul\":1489:1495   */\n      dup2\n        /* \"#utility.yul\":1483:1496   */\n      mload\n        /* \"#utility.yul\":1474:1496   */\n      swap1\n      pop\n        /* \"#utility.yul\":1505:1538   */\n      tag_70\n        /* \"#utility.yul\":1532:1537   */\n      dup2\n        /* \"#utility.yul\":1505:1538   */\n      tag_40\n      jump\t// in\n    tag_70:\n        /* \"#utility.yul\":1401:1544   */\n      swap3\n      swap2\n      pop\n      pop\n      jump\t// out\n        /* \"#utility.yul\":1550:1901   */\n    tag_21:\n        /* \"#utility.yul\":1620:1626   */\n      0x00\n        /* \"#utility.yul\":1669:1671   */\n      0x20\n        /* \"#utility.yul\":1657:1666   */\n      dup3\n        /* \"#utility.yul\":1648:1655   */\n      dup5\n        /* \"#utility.yul\":1644:1667   */\n      sub\n        /* \"#utility.yul\":1640:1672   */\n      slt\n        /* \"#utility.yul\":1637:1756   */\n      iszero\n      tag_72\n      jumpi\n        /* \"#utility.yul\":1675:1754   */\n      tag_73\n      tag_38\n      jump\t// in\n    tag_73:\n        /* \"#utility.yul\":1637:1756   */\n    tag_72:\n        /* \"#utility.yul\":1795:1796   */\n      0x00\n        /* \"#utility.yul\":1820:1884   */\n      tag_74\n        /* \"#utility.yul\":1876:1883   */\n      dup5\n        /* \"#utility.yul\":1867:1873   */\n      dup3\n        /* \"#utility.yul\":1856:1865   */\n      dup6\n        /* \"#utility.yul\":1852:1874   */\n      add\n        /* \"#utility.yul\":1820:1884   */\n      tag_42\n      jump\t// in\n    tag_74:\n        /* \"#utility.yul\":1810:1884   */\n      swap2\n      pop\n        /* \"#utility.yul\":1766:1894   */\n      pop\n        /* \"#utility.yul\":1550:1901   */\n      swap3\n      swap2\n      pop\n      pop\n      jump\t// out\n        /* \"#utility.yul\":1907:2087   */\n    tag_43:\n        /* \"#utility.yul\":1955:2032   */\n      0x4e487b7100000000000000000000000000000000000000000000000000000000\n        /* \"#utility.yul\":1952:1953   */\n      0x00\n        /* \"#utility.yul\":1945:2033   */\n      mstore\n        /* \"#utility.yul\":2052:2056   */\n      0x11\n        /* \"#utility.yul\":2049:2050   */\n      0x04\n        /* \"#utility.yul\":2042:2057   */\n      mstore\n        /* \"#utility.yul\":2076:2080   */\n      0x24\n        /* \"#utility.yul\":2073:2074   */\n      0x00\n        /* \"#utility.yul\":2066:2081   */\n      revert\n        /* \"#utility.yul\":2093:2503   */\n    tag_25:\n        /* \"#utility.yul\":2133:2140   */\n      0x00\n        /* \"#utility.yul\":2156:2176   */\n      tag_77\n        /* \"#utility.yul\":2174:2175   */\n      dup3\n        /* \"#utility.yul\":2156:2176   */\n      tag_35\n      jump\t// in\n    tag_77:\n        /* \"#utility.yul\":2151:2176   */\n      swap2\n      pop\n        /* \"#utility.yul\":2190:2210   */\n      tag_78\n        /* \"#utility.yul\":2208:2209   */\n      dup4\n        /* \"#utility.yul\":2190:2210   */\n      tag_35\n      jump\t// in\n    tag_78:\n        /* \"#utility.yul\":2185:2210   */\n      swap3\n      pop\n        /* \"#utility.yul\":2245:2246   */\n      dup3\n        /* \"#utility.yul\":2242:2243   */\n      dup3\n        /* \"#utility.yul\":2238:2247   */\n      mul\n        /* \"#utility.yul\":2267:2297   */\n      tag_79\n        /* \"#utility.yul\":2285:2296   */\n      dup2\n        /* \"#utility.yul\":2267:2297   */\n      tag_35\n      jump\t// in\n    tag_79:\n        /* \"#utility.yul\":2256:2297   */\n      swap2\n      pop\n        /* \"#utility.yul\":2446:2447   */\n      dup3\n        /* \"#utility.yul\":2437:2444   */\n      dup3\n        /* \"#utility.yul\":2433:2448   */\n      div\n        /* \"#utility.yul\":2430:2431   */\n      dup5\n        /* \"#utility.yul\":2427:2449   */\n      eq\n        /* \"#utility.yul\":2407:2408   */\n      dup4\n        /* \"#utility.yul\":2400:2409   */\n      iszero\n        /* \"#utility.yul\":2380:2463   */\n      or\n        /* \"#utility.yul\":2357:2496   */\n      tag_80\n      jumpi\n        /* \"#utility.yul\":2476:2494   */\n      tag_81\n      tag_43\n      jump\t// in\n    tag_81:\n        /* \"#utility.yul\":2357:2496   */\n    tag_80:\n        /* \"#utility.yul\":2141:2503   */\n      pop\n        /* \"#utility.yul\":2093:2503   */\n      swap3\n      swap2\n      pop\n      pop\n      jump\t// out\n        /* \"#utility.yul\":2509:2689   */\n    tag_44:\n        /* \"#utility.yul\":2557:2634   */\n      0x4e487b7100000000000000000000000000000000000000000000000000000000\n        /* \"#utility.yul\":2554:2555   */\n      0x00\n        /* \"#utility.yul\":2547:2635   */\n      mstore\n        /* \"#utility.yul\":2654:2658   */\n      0x12\n        /* \"#utility.yul\":2651:2652   */\n      0x04\n        /* \"#utility.yul\":2644:2659   */\n      mstore\n        /* \"#utility.yul\":2678:2682   */\n      0x24\n        /* \"#utility.yul\":2675:2676   */\n      0x00\n        /* \"#utility.yul\":2668:2683   */\n      revert\n        /* \"#utility.yul\":2695:2880   */\n    tag_27:\n        /* \"#utility.yul\":2735:2736   */\n      0x00\n        /* \"#utility.yul\":2752:2772   */\n      tag_84\n        /* \"#utility.yul\":2770:2771   */\n      dup3\n        /* \"#utility.yul\":2752:2772   */\n      tag_35\n      jump\t// in\n    tag_84:\n        /* \"#utility.yul\":2747:2772   */\n      swap2\n      pop\n        /* \"#utility.yul\":2786:2806   */\n      tag_85\n        /* \"#utility.yul\":2804:2805   */\n      dup4\n        /* \"#utility.yul\":2786:2806   */\n      tag_35\n      jump\t// in\n    tag_85:\n        /* \"#utility.yul\":2781:2806   */\n      swap3\n      pop\n        /* \"#utility.yul\":2825:2826   */\n      dup3\n        /* \"#utility.yul\":2815:2850   */\n      tag_86\n      jumpi\n        /* \"#utility.yul\":2830:2848   */\n      tag_87\n      tag_44\n      jump\t// in\n    tag_87:\n        /* \"#utility.yul\":2815:2850   */\n    tag_86:\n        /* \"#utility.yul\":2872:2873   */\n      dup3\n        /* \"#utility.yul\":2869:2870   */\n      dup3\n        /* \"#utility.yul\":2865:2874   */\n      div\n        /* \"#utility.yul\":2860:2874   */\n      swap1\n      pop\n        /* \"#utility.yul\":2695:2880   */\n      swap3\n      swap2\n      pop\n      pop\n      jump\t// out\n        /* \"#utility.yul\":2886:2991   */\n    tag_45:\n        /* \"#utility.yul\":2922:2929   */\n      0x00\n        /* \"#utility.yul\":2962:2984   */\n      0xffffffffffffffffffff\n        /* \"#utility.yul\":2955:2960   */\n      dup3\n        /* \"#utility.yul\":2951:2985   */\n      and\n        /* \"#utility.yul\":2940:2985   */\n      swap1\n      pop\n        /* \"#utility.yul\":2886:2991   */\n      swap2\n      swap1\n      pop\n      jump\t// out\n        /* \"#utility.yul\":2997:3117   */\n    tag_46:\n        /* \"#utility.yul\":3069:3092   */\n      tag_90\n        /* \"#utility.yul\":3086:3091   */\n      dup2\n        /* \"#utility.yul\":3069:3092   */\n      tag_45\n      jump\t// in\n    tag_90:\n        /* \"#utility.yul\":3062:3067   */\n      dup2\n        /* \"#utility.yul\":3059:3093   */\n      eq\n        /* \"#utility.yul\":3049:3111   */\n      tag_91\n      jumpi\n        /* \"#utility.yul\":3107:3108   */\n      0x00\n        /* \"#utility.yul\":3104:3105   */\n      0x00\n        /* \"#utility.yul\":3097:3109   */\n      revert\n        /* \"#utility.yul\":3049:3111   */\n    tag_91:\n        /* \"#utility.yul\":2997:3117   */\n      pop\n      jump\t// out\n        /* \"#utility.yul\":3123:3264   */\n    tag_47:\n        /* \"#utility.yul\":3179:3184   */\n      0x00\n        /* \"#utility.yul\":3210:3216   */\n      dup2\n        /* \"#utility.yul\":3204:3217   */\n      mload\n        /* \"#utility.yul\":3195:3217   */\n      swap1\n      pop\n        /* \"#utility.yul\":3226:3258   */\n      tag_93\n        /* \"#utility.yul\":3252:3257   */\n      dup2\n        /* \"#utility.yul\":3226:3258   */\n      tag_46\n      jump\t// in\n    tag_93:\n        /* \"#utility.yul\":3123:3264   */\n      swap3\n      swap2\n      pop\n      pop\n      jump\t// out\n        /* \"#utility.yul\":3270:3346   */\n    tag_48:\n        /* \"#utility.yul\":3306:3313   */\n      0x00\n        /* \"#utility.yul\":3335:3340   */\n      dup2\n        /* \"#utility.yul\":3324:3340   */\n      swap1\n      pop\n        /* \"#utility.yul\":3270:3346   */\n      swap2\n      swap1\n      pop\n      jump\t// out\n        /* \"#utility.yul\":3352:3472   */\n    tag_49:\n        /* \"#utility.yul\":3424:3447   */\n      tag_96\n        /* \"#utility.yul\":3441:3446   */\n      dup2\n        /* \"#utility.yul\":3424:3447   */\n      tag_48\n      jump\t// in\n    tag_96:\n        /* \"#utility.yul\":3417:3422   */\n      dup2\n        /* \"#utility.yul\":3414:3448   */\n      eq\n        /* \"#utility.yul\":3404:3466   */\n      tag_97\n      jumpi\n        /* \"#utility.yul\":3462:3463   */\n      0x00\n        /* \"#utility.yul\":3459:3460   */\n      0x00\n        /* \"#utility.yul\":3452:3464   */\n      revert\n        /* \"#utility.yul\":3404:3466   */\n    tag_97:\n        /* \"#utility.yul\":3352:3472   */\n      pop\n      jump\t// out\n        /* \"#utility.yul\":3478:3619   */\n    tag_50:\n        /* \"#utility.yul\":3534:3539   */\n      0x00\n        /* \"#utility.yul\":3565:3571   */\n      dup2\n        /* \"#utility.yul\":3559:3572   */\n      mload\n        /* \"#utility.yul\":3550:3572   */\n      swap1\n      pop\n        /* \"#utility.yul\":3581:3613   */\n      tag_99\n        /* \"#utility.yul\":3607:3612   */\n      dup2\n        /* \"#utility.yul\":3581:3613   */\n      tag_49\n      jump\t// in\n    tag_99:\n        /* \"#utility.yul\":3478:3619   */\n      swap3\n      swap2\n      pop\n      pop\n      jump\t// out\n        /* \"#utility.yul\":3625:4596   */\n    tag_32:\n        /* \"#utility.yul\":3728:3734   */\n      0x00\n        /* \"#utility.yul\":3736:3742   */\n      0x00\n        /* \"#utility.yul\":3744:3750   */\n      0x00\n        /* \"#utility.yul\":3752:3758   */\n      0x00\n        /* \"#utility.yul\":3760:3766   */\n      0x00\n        /* \"#utility.yul\":3809:3812   */\n      0xa0\n        /* \"#utility.yul\":3797:3806   */\n      dup7\n        /* \"#utility.yul\":3788:3795   */\n      dup9\n        /* \"#utility.yul\":3784:3807   */\n      sub\n        /* \"#utility.yul\":3780:3813   */\n      slt\n        /* \"#utility.yul\":3777:3897   */\n      iszero\n      tag_101\n      jumpi\n        /* \"#utility.yul\":3816:3895   */\n      tag_102\n      tag_38\n      jump\t// in\n    tag_102:\n        /* \"#utility.yul\":3777:3897   */\n    tag_101:\n        /* \"#utility.yul\":3936:3937   */\n      0x00\n        /* \"#utility.yul\":3961:4024   */\n      tag_103\n        /* \"#utility.yul\":4016:4023   */\n      dup9\n        /* \"#utility.yul\":4007:4013   */\n      dup3\n        /* \"#utility.yul\":3996:4005   */\n      dup10\n        /* \"#utility.yul\":3992:4014   */\n      add\n        /* \"#utility.yul\":3961:4024   */\n      tag_47\n      jump\t// in\n    tag_103:\n        /* \"#utility.yul\":3951:4024   */\n      swap6\n      pop\n        /* \"#utility.yul\":3907:4034   */\n      pop\n        /* \"#utility.yul\":4073:4075   */\n      0x20\n        /* \"#utility.yul\":4099:4162   */\n      tag_104\n        /* \"#utility.yul\":4154:4161   */\n      dup9\n        /* \"#utility.yul\":4145:4151   */\n      dup3\n        /* \"#utility.yul\":4134:4143   */\n      dup10\n        /* \"#utility.yul\":4130:4152   */\n      add\n        /* \"#utility.yul\":4099:4162   */\n      tag_50\n      jump\t// in\n    tag_104:\n        /* \"#utility.yul\":4089:4162   */\n      swap5\n      pop\n        /* \"#utility.yul\":4044:4172   */\n      pop\n        /* \"#utility.yul\":4211:4213   */\n      0x40\n        /* \"#utility.yul\":4237:4301   */\n      tag_105\n        /* \"#utility.yul\":4293:4300   */\n      dup9\n        /* \"#utility.yul\":4284:4290   */\n      dup3\n        /* \"#utility.yul\":4273:4282   */\n      dup10\n        /* \"#utility.yul\":4269:4291   */\n      add\n        /* \"#utility.yul\":4237:4301   */\n      tag_42\n      jump\t// in\n    tag_105:\n        /* \"#utility.yul\":4227:4301   */\n      swap4\n      pop\n        /* \"#utility.yul\":4182:4311   */\n      pop\n        /* \"#utility.yul\":4350:4352   */\n      0x60\n        /* \"#utility.yul\":4376:4440   */\n      tag_106\n        /* \"#utility.yul\":4432:4439   */\n      dup9\n        /* \"#utility.yul\":4423:4429   */\n      dup3\n        /* \"#utility.yul\":4412:4421   */\n      dup10\n        /* \"#utility.yul\":4408:4430   */\n      add\n        /* \"#utility.yul\":4376:4440   */\n      tag_42\n      jump\t// in\n    tag_106:\n        /* \"#utility.yul\":4366:4440   */\n      swap3\n      pop\n        /* \"#utility.yul\":4321:4450   */\n      pop\n        /* \"#utility.yul\":4489:4492   */\n      0x80\n        /* \"#utility.yul\":4516:4579   */\n      tag_107\n        /* \"#utility.yul\":4571:4578   */\n      dup9\n        /* \"#utility.yul\":4562:4568   */\n      dup3\n        /* \"#utility.yul\":4551:4560   */\n      dup10\n        /* \"#utility.yul\":4547:4569   */\n      add\n        /* \"#utility.yul\":4516:4579   */\n      tag_47\n      jump\t// in\n    tag_107:\n        /* \"#utility.yul\":4506:4579   */\n      swap2\n      pop\n        /* \"#utility.yul\":4460:4589   */\n      pop\n        /* \"#utility.yul\":3625:4596   */\n      swap3\n      swap6\n      pop\n      swap3\n      swap6\n      swap1\n      swap4\n      pop\n      jump\t// out\n        /* \"#utility.yul\":4602:5158   */\n    tag_34:\n        /* \"#utility.yul\":4641:4648   */\n      0x00\n        /* \"#utility.yul\":4664:4683   */\n      tag_109\n        /* \"#utility.yul\":4681:4682   */\n      dup3\n        /* \"#utility.yul\":4664:4683   */\n      tag_48\n      jump\t// in\n    tag_109:\n        /* \"#utility.yul\":4659:4683   */\n      swap2\n      pop\n        /* \"#utility.yul\":4697:4716   */\n      tag_110\n        /* \"#utility.yul\":4714:4715   */\n      dup4\n        /* \"#utility.yul\":4697:4716   */\n      tag_48\n      jump\t// in\n    tag_110:\n        /* \"#utility.yul\":4692:4716   */\n      swap3\n      pop\n        /* \"#utility.yul\":4751:4752   */\n      dup3\n        /* \"#utility.yul\":4748:4749   */\n      dup3\n        /* \"#utility.yul\":4744:4753   */\n      mul\n        /* \"#utility.yul\":4773:4802   */\n      tag_111\n        /* \"#utility.yul\":4790:4801   */\n      dup2\n        /* \"#utility.yul\":4773:4802   */\n      tag_48\n      jump\t// in\n    tag_111:\n        /* \"#utility.yul\":4762:4802   */\n      swap2\n      pop\n        /* \"#utility.yul\":4860:4926   */\n      0x8000000000000000000000000000000000000000000000000000000000000000\n        /* \"#utility.yul\":4857:4858   */\n      dup5\n        /* \"#utility.yul\":4854:4927   */\n      eq\n        /* \"#utility.yul\":4850:4851   */\n      0x00\n        /* \"#utility.yul\":4847:4848   */\n      dup5\n        /* \"#utility.yul\":4843:4852   */\n      slt\n        /* \"#utility.yul\":4839:4928   */\n      and\n        /* \"#utility.yul\":4836:4951   */\n      iszero\n      tag_112\n      jumpi\n        /* \"#utility.yul\":4931:4949   */\n      tag_113\n      tag_43\n      jump\t// in\n    tag_113:\n        /* \"#utility.yul\":4836:4951   */\n    tag_112:\n        /* \"#utility.yul\":5101:5102   */\n      dup3\n        /* \"#utility.yul\":5092:5099   */\n      dup3\n        /* \"#utility.yul\":5087:5103   */\n      sdiv\n        /* \"#utility.yul\":5084:5085   */\n      dup5\n        /* \"#utility.yul\":5081:5104   */\n      eq\n        /* \"#utility.yul\":5061:5062   */\n      dup4\n        /* \"#utility.yul\":5054:5063   */\n      iszero\n        /* \"#utility.yul\":5034:5118   */\n      or\n        /* \"#utility.yul\":5011:5151   */\n      tag_114\n      jumpi\n        /* \"#utility.yul\":5131:5149   */\n      tag_115\n      tag_43\n      jump\t// in\n    tag_115:\n        /* \"#utility.yul\":5011:5151   */\n    tag_114:\n        /* \"#utility.yul\":4649:5158   */\n      pop\n        /* \"#utility.yul\":4602:5158   */\n      swap3\n      swap2\n      pop\n      pop\n      jump\t// out\n\n    auxdata: 0xa264697066735822122051a0fed5229bf91e0239f39e061f20c06346bdb588bfd4629b9a09ac8e2194f564736f6c63430008210033\n}\n",
				"bytecode": {
					"linkReferences": {},
					"object": "61054761004d600b8282823980515f1a6073146041577f4e487b71000000000000000000000000000000000000000000000000000000005f525f60045260245ffd5b305f52607381538281f3fe730000000000000000000000000000000000000000301460806040526004361061004a575f3560e01c80630d8e6e2c1461004e5780636e5b6b281461006c57806398d5fdca1461009c575b5f5ffd5b6100566100ba565b6040516100639190610236565b60405180910390f35b6100866004803603810190610081919061027d565b610141565b6040516100939190610236565b60405180910390f35b6100a4610179565b6040516100b19190610236565b60405180910390f35b5f73694aa1769357215de4fac081bf1f309adc32530673ffffffffffffffffffffffffffffffffffffffff166354fd4d506040518163ffffffff1660e01b8152600401602060405180830381865afa158015610118573d5f5f3e3d5ffd5b505050506040513d601f19601f8201168201806040525081019061013c91906102bc565b905090565b5f5f61014b610179565b90505f670de0b6b3a764000082856101639190610314565b61016d9190610382565b90508092505050919050565b5f5f73694aa1769357215de4fac081bf1f309adc32530690505f8173ffffffffffffffffffffffffffffffffffffffff1663feaf968c6040518163ffffffff1660e01b815260040160a060405180830381865afa1580156101dc573d5f5f3e3d5ffd5b505050506040513d601f19601f820116820180604052508101906102009190610424565b5050509150506402540be40081610217919061049b565b9250505090565b5f819050919050565b6102308161021e565b82525050565b5f6020820190506102495f830184610227565b92915050565b5f5ffd5b61025c8161021e565b8114610266575f5ffd5b50565b5f8135905061027781610253565b92915050565b5f602082840312156102925761029161024f565b5b5f61029f84828501610269565b91505092915050565b5f815190506102b681610253565b92915050565b5f602082840312156102d1576102d061024f565b5b5f6102de848285016102a8565b91505092915050565b7f4e487b71000000000000000000000000000000000000000000000000000000005f52601160045260245ffd5b5f61031e8261021e565b91506103298361021e565b92508282026103378161021e565b9150828204841483151761034e5761034d6102e7565b5b5092915050565b7f4e487b71000000000000000000000000000000000000000000000000000000005f52601260045260245ffd5b5f61038c8261021e565b91506103978361021e565b9250826103a7576103a6610355565b5b828204905092915050565b5f69ffffffffffffffffffff82169050919050565b6103d0816103b2565b81146103da575f5ffd5b50565b5f815190506103eb816103c7565b92915050565b5f819050919050565b610403816103f1565b811461040d575f5ffd5b50565b5f8151905061041e816103fa565b92915050565b5f5f5f5f5f60a0868803121561043d5761043c61024f565b5b5f61044a888289016103dd565b955050602061045b88828901610410565b945050604061046c888289016102a8565b935050606061047d888289016102a8565b925050608061048e888289016103dd565b9150509295509295909350565b5f6104a5826103f1565b91506104b0836103f1565b92508282026104be816103f1565b91507f800000000000000000000000000000000000000000000000000000000000000084145f841216156104f5576104f46102e7565b5b828205841483151761050a576105096102e7565b5b509291505056fea264697066735822122051a0fed5229bf91e0239f39e061f20c06346bdb588bfd4629b9a09ac8e2194f564736f6c63430008210033",
					"opcodes": "PUSH2 0x547 PUSH2 0x4D PUSH1 0xB DUP3 DUP3 DUP3 CODECOPY DUP1 MLOAD PUSH0 BYTE PUSH1 0x73 EQ PUSH1 0x41 JUMPI PUSH32 0x4E487B7100000000000000000000000000000000000000000000000000000000 PUSH0 MSTORE PUSH0 PUSH1 0x4 MSTORE PUSH1 0x24 PUSH0 REVERT JUMPDEST ADDRESS PUSH0 MSTORE PUSH1 0x73 DUP2 MSTORE8 DUP3 DUP2 RETURN INVALID PUSH20 0x0 ADDRESS EQ PUSH1 0x80 PUSH1 0x40 MSTORE PUSH1 0x4 CALLDATASIZE LT PUSH2 0x4A JUMPI PUSH0 CALLDATALOAD PUSH1 0xE0 SHR DUP1 PUSH4 0xD8E6E2C EQ PUSH2 0x4E JUMPI DUP1 PUSH4 0x6E5B6B28 EQ PUSH2 0x6C JUMPI DUP1 PUSH4 0x98D5FDCA EQ PUSH2 0x9C JUMPI JUMPDEST PUSH0 PUSH0 REVERT JUMPDEST PUSH2 0x56 PUSH2 0xBA JUMP JUMPDEST PUSH1 0x40 MLOAD PUSH2 0x63 SWAP2 SWAP1 PUSH2 0x236 JUMP JUMPDEST PUSH1 0x40 MLOAD DUP1 SWAP2 SUB SWAP1 RETURN JUMPDEST PUSH2 0x86 PUSH1 0x4 DUP1 CALLDATASIZE SUB DUP2 ADD SWAP1 PUSH2 0x81 SWAP2 SWAP1 PUSH2 0x27D JUMP JUMPDEST PUSH2 0x141 JUMP JUMPDEST PUSH1 0x40 MLOAD PUSH2 0x93 SWAP2 SWAP1 PUSH2 0x236 JUMP JUMPDEST PUSH1 0x40 MLOAD DUP1 SWAP2 SUB SWAP1 RETURN JUMPDEST PUSH2 0xA4 PUSH2 0x179 JUMP JUMPDEST PUSH1 0x40 MLOAD PUSH2 0xB1 SWAP2 SWAP1 PUSH2 0x236 JUMP JUMPDEST PUSH1 0x40 MLOAD DUP1 SWAP2 SUB SWAP1 RETURN JUMPDEST PUSH0 PUSH20 0x694AA1769357215DE4FAC081BF1F309ADC325306 PUSH20 0xFFFFFFFFFFFFFFFFFFFFFFFFFFFFFFFFFFFFFFFF AND PUSH4 0x54FD4D50 PUSH1 0x40 MLOAD DUP2 PUSH4 0xFFFFFFFF AND PUSH1 0xE0 SHL DUP2 MSTORE PUSH1 0x4 ADD PUSH1 0x20 PUSH1 0x40 MLOAD DUP1 DUP4 SUB DUP2 DUP7 GAS STATICCALL ISZERO DUP1 ISZERO PUSH2 0x118 JUMPI RETURNDATASIZE PUSH0 PUSH0 RETURNDATACOPY RETURNDATASIZE PUSH0 REVERT JUMPDEST POP POP POP POP PUSH1 0x40 MLOAD RETURNDATASIZE PUSH1 0x1F NOT PUSH1 0x1F DUP3 ADD AND DUP3 ADD DUP1 PUSH1 0x40 MSTORE POP DUP2 ADD SWAP1 PUSH2 0x13C SWAP2 SWAP1 PUSH2 0x2BC JUMP JUMPDEST SWAP1 POP SWAP1 JUMP JUMPDEST PUSH0 PUSH0 PUSH2 0x14B PUSH2 0x179 JUMP JUMPDEST SWAP1 POP PUSH0 PUSH8 0xDE0B6B3A7640000 DUP3 DUP6 PUSH2 0x163 SWAP2 SWAP1 PUSH2 0x314 JUMP JUMPDEST PUSH2 0x16D SWAP2 SWAP1 PUSH2 0x382 JUMP JUMPDEST SWAP1 POP DUP1 SWAP3 POP POP POP SWAP2 SWAP1 POP JUMP JUMPDEST PUSH0 PUSH0 PUSH20 0x694AA1769357215DE4FAC081BF1F309ADC325306 SWAP1 POP PUSH0 DUP2 PUSH20 0xFFFFFFFFFFFFFFFFFFFFFFFFFFFFFFFFFFFFFFFF AND PUSH4 0xFEAF968C PUSH1 0x40 MLOAD DUP2 PUSH4 0xFFFFFFFF AND PUSH1 0xE0 SHL DUP2 MSTORE PUSH1 0x4 ADD PUSH1 0xA0 PUSH1 0x40 MLOAD DUP1 DUP4 SUB DUP2 DUP7 GAS STATICCALL ISZERO DUP1 ISZERO PUSH2 0x1DC JUMPI RETURNDATASIZE PUSH0 PUSH0 RETURNDATACOPY RETURNDATASIZE PUSH0 REVERT JUMPDEST POP POP POP POP PUSH1 0x40 MLOAD RETURNDATASIZE PUSH1 0x1F NOT PUSH1 0x1F DUP3 ADD AND DUP3 ADD DUP1 PUSH1 0x40 MSTORE POP DUP2 ADD SWAP1 PUSH2 0x200 SWAP2 SWAP1 PUSH2 0x424 JUMP JUMPDEST POP POP POP SWAP2 POP POP PUSH5 0x2540BE400 DUP2 PUSH2 0x217 SWAP2 SWAP1 PUSH2 0x49B JUMP JUMPDEST SWAP3 POP POP POP SWAP1 JUMP JUMPDEST PUSH0 DUP2 SWAP1 POP SWAP2 SWAP1 POP JUMP JUMPDEST PUSH2 0x230 DUP2 PUSH2 0x21E JUMP JUMPDEST DUP3 MSTORE POP POP JUMP JUMPDEST PUSH0 PUSH1 0x20 DUP3 ADD SWAP1 POP PUSH2 0x249 PUSH0 DUP4 ADD DUP5 PUSH2 0x227 JUMP JUMPDEST SWAP3 SWAP2 POP POP JUMP JUMPDEST PUSH0 PUSH0 REVERT JUMPDEST PUSH2 0x25C DUP2 PUSH2 0x21E JUMP JUMPDEST DUP2 EQ PUSH2 0x266 JUMPI PUSH0 PUSH0 REVERT JUMPDEST POP JUMP JUMPDEST PUSH0 DUP2 CALLDATALOAD SWAP1 POP PUSH2 0x277 DUP2 PUSH2 0x253 JUMP JUMPDEST SWAP3 SWAP2 POP POP JUMP JUMPDEST PUSH0 PUSH1 0x20 DUP3 DUP5 SUB SLT ISZERO PUSH2 0x292 JUMPI PUSH2 0x291 PUSH2 0x24F JUMP JUMPDEST JUMPDEST PUSH0 PUSH2 0x29F DUP5 DUP3 DUP6 ADD PUSH2 0x269 JUMP JUMPDEST SWAP2 POP POP SWAP3 SWAP2 POP POP JUMP JUMPDEST PUSH0 DUP2 MLOAD SWAP1 POP PUSH2 0x2B6 DUP2 PUSH2 0x253 JUMP JUMPDEST SWAP3 SWAP2 POP POP JUMP JUMPDEST PUSH0 PUSH1 0x20 DUP3 DUP5 SUB SLT ISZERO PUSH2 0x2D1 JUMPI PUSH2 0x2D0 PUSH2 0x24F JUMP JUMPDEST JUMPDEST PUSH0 PUSH2 0x2DE DUP5 DUP3 DUP6 ADD PUSH2 0x2A8 JUMP JUMPDEST SWAP2 POP POP SWAP3 SWAP2 POP POP JUMP JUMPDEST PUSH32 0x4E487B7100000000000000000000000000000000000000000000000000000000 PUSH0 MSTORE PUSH1 0x11 PUSH1 0x4 MSTORE PUSH1 0x24 PUSH0 REVERT JUMPDEST PUSH0 PUSH2 0x31E DUP3 PUSH2 0x21E JUMP JUMPDEST SWAP2 POP PUSH2 0x329 DUP4 PUSH2 0x21E JUMP JUMPDEST SWAP3 POP DUP3 DUP3 MUL PUSH2 0x337 DUP2 PUSH2 0x21E JUMP JUMPDEST SWAP2 POP DUP3 DUP3 DIV DUP5 EQ DUP4 ISZERO OR PUSH2 0x34E JUMPI PUSH2 0x34D PUSH2 0x2E7 JUMP JUMPDEST JUMPDEST POP SWAP3 SWAP2 POP POP JUMP JUMPDEST PUSH32 0x4E487B7100000000000000000000000000000000000000000000000000000000 PUSH0 MSTORE PUSH1 0x12 PUSH1 0x4 MSTORE PUSH1 0x24 PUSH0 REVERT JUMPDEST PUSH0 PUSH2 0x38C DUP3 PUSH2 0x21E JUMP JUMPDEST SWAP2 POP PUSH2 0x397 DUP4 PUSH2 0x21E JUMP JUMPDEST SWAP3 POP DUP3 PUSH2 0x3A7 JUMPI PUSH2 0x3A6 PUSH2 0x355 JUMP JUMPDEST JUMPDEST DUP3 DUP3 DIV SWAP1 POP SWAP3 SWAP2 POP POP JUMP JUMPDEST PUSH0 PUSH10 0xFFFFFFFFFFFFFFFFFFFF DUP3 AND SWAP1 POP SWAP2 SWAP1 POP JUMP JUMPDEST PUSH2 0x3D0 DUP2 PUSH2 0x3B2 JUMP JUMPDEST DUP2 EQ PUSH2 0x3DA JUMPI PUSH0 PUSH0 REVERT JUMPDEST POP JUMP JUMPDEST PUSH0 DUP2 MLOAD SWAP1 POP PUSH2 0x3EB DUP2 PUSH2 0x3C7 JUMP JUMPDEST SWAP3 SWAP2 POP POP JUMP JUMPDEST PUSH0 DUP2 SWAP1 POP SWAP2 SWAP1 POP JUMP JUMPDEST PUSH2 0x403 DUP2 PUSH2 0x3F1 JUMP JUMPDEST DUP2 EQ PUSH2 0x40D JUMPI PUSH0 PUSH0 REVERT JUMPDEST POP JUMP JUMPDEST PUSH0 DUP2 MLOAD SWAP1 POP PUSH2 0x41E DUP2 PUSH2 0x3FA JUMP JUMPDEST SWAP3 SWAP2 POP POP JUMP JUMPDEST PUSH0 PUSH0 PUSH0 PUSH0 PUSH0 PUSH1 0xA0 DUP7 DUP9 SUB SLT ISZERO PUSH2 0x43D JUMPI PUSH2 0x43C PUSH2 0x24F JUMP JUMPDEST JUMPDEST PUSH0 PUSH2 0x44A DUP9 DUP3 DUP10 ADD PUSH2 0x3DD JUMP JUMPDEST SWAP6 POP POP PUSH1 0x20 PUSH2 0x45B DUP9 DUP3 DUP10 ADD PUSH2 0x410 JUMP JUMPDEST SWAP5 POP POP PUSH1 0x40 PUSH2 0x46C DUP9 DUP3 DUP10 ADD PUSH2 0x2A8 JUMP JUMPDEST SWAP4 POP POP PUSH1 0x60 PUSH2 0x47D DUP9 DUP3 DUP10 ADD PUSH2 0x2A8 JUMP JUMPDEST SWAP3 POP POP PUSH1 0x80 PUSH2 0x48E DUP9 DUP3 DUP10 ADD PUSH2 0x3DD JUMP JUMPDEST SWAP2 POP POP SWAP3 SWAP6 POP SWAP3 SWAP6 SWAP1 SWAP4 POP JUMP JUMPDEST PUSH0 PUSH2 0x4A5 DUP3 PUSH2 0x3F1 JUMP JUMPDEST SWAP2 POP PUSH2 0x4B0 DUP4 PUSH2 0x3F1 JUMP JUMPDEST SWAP3 POP DUP3 DUP3 MUL PUSH2 0x4BE DUP2 PUSH2 0x3F1 JUMP JUMPDEST SWAP2 POP PUSH32 0x8000000000000000000000000000000000000000000000000000000000000000 DUP5 EQ PUSH0 DUP5 SLT AND ISZERO PUSH2 0x4F5 JUMPI PUSH2 0x4F4 PUSH2 0x2E7 JUMP JUMPDEST JUMPDEST DUP3 DUP3 SDIV DUP5 EQ DUP4 ISZERO OR PUSH2 0x50A JUMPI PUSH2 0x509 PUSH2 0x2E7 JUMP JUMPDEST JUMPDEST POP SWAP3 SWAP2 POP POP JUMP INVALID LOG2 PUSH5 0x6970667358 0x22 SLT KECCAK256 MLOAD LOG0 INVALID 0xD5 0x22 SWAP12 EXTDELEGATECALL CLZ MUL CODECOPY RETURN SWAP15 MOD 0x1F KECCAK256 0xC0 PUSH4 0x46BDB588 0xBF 0xD4 PUSH3 0x9B9A09 0xAC DUP15 0x21 SWAP5 CREATE2 PUSH5 0x736F6C6343 STOP ADDMOD 0x21 STOP CALLER "
				},
				"gasEstimates": {
					"creation": {
						"codeDepositCost": "270200",
						"executionCost": "335",
						"totalCost": "270535"
					},
					"external": {
						"getConversionRate(uint256)": "infinite",
						"getPrice()": "infinite",
						"getVersion()": "infinite"
					}
				},
				"methodIdentifiers": {
					"getConversionRate(uint256)": "6e5b6b28",
					"getPrice()": "98d5fdca",
					"getVersion()": "0d8e6e2c"
				}
			},
			"storageLayout": {
				"storage": [],
				"types": null
			},
			"userdoc": {
				"kind": "user",
				"methods": {},
				"version": 1
			}
		}
	}
}