{
	"FundMe.sol": {
		"FundMe": {
			"abi": [
				{
					"inputs": [],
					"name": "fund",
					"outputs": [],
					"stateMutability": "payable",
					"type": "function"
				},
				{
					"inputs": [],
					"name": "withDraw",
					"outputs": [],
					"stateMutability": "nonpayable",
					"type": "function"
				}
			],
			"devdoc": {
				"kind": "dev",
				"methods": {},
				"version": 1
			},
			"evm": {
				"assembly": "    /* \"FundMe.sol\":66:369  contract FundMe{... */\n  mstore(0x40, 0x80)\n  callvalue\n  dup1\n  iszero\n  tag_1\n  jumpi\n  revert(0x00, 0x00)\ntag_1:\n  pop\n  dataSize(sub_0)\n  dup1\n  dataOffset(sub_0)\n  0x00\n  codecopy\n  0x00\n  return\nstop\n\nsub_0: assembly {\n        /* \"FundMe.sol\":66:369  contract FundMe{... */\n      mstore(0x40, 0x80)\n      jumpi(tag_1, lt(calldatasize, 0x04))\n      shr(0xe0, calldataload(0x00))\n      dup1\n      0x0fdb1c10\n      eq\n      tag_2\n      jumpi\n      dup1\n      0xb60d4288\n      eq\n      tag_3\n      jumpi\n    tag_1:\n      revert(0x00, 0x00)\n        /* \"FundMe.sol\":333:367  function withDraw() public{... */\n    tag_2:\n      callvalue\n      dup1\n      iszero\n      tag_4\n      jumpi\n      revert(0x00, 0x00)\n    tag_4:\n      pop\n      tag_5\n      tag_6\n      jump\t// in\n    tag_5:\n      stop\n        /* \"FundMe.sol\":154:265  function fund() public payable {... */\n    tag_3:\n      tag_7\n      tag_8\n      jump\t// in\n    tag_7:\n      stop\n        /* \"FundMe.sol\":333:367  function withDraw() public{... */\n    tag_6:\n      jump\t// out\n        /* \"FundMe.sol\":154:265  function fund() public payable {... */\n    tag_8:\n        /* \"FundMe.sol\":216:220  1e18 */\n      0x0de0b6b3a7640000\n        /* \"FundMe.sol\":203:212  msg.value */\n      callvalue\n        /* \"FundMe.sol\":203:220  msg.value >= 1e18 */\n      lt\n      iszero\n        /* \"FundMe.sol\":195:257  require(msg.value >= 1e18,\"Amount must be greater then 1 eth\") */\n      tag_11\n      jumpi\n      mload(0x40)\n      0x08c379a000000000000000000000000000000000000000000000000000000000\n      dup2\n      mstore\n      0x04\n      add\n      tag_12\n      swap1\n      tag_13\n      jump\t// in\n    tag_12:\n      mload(0x40)\n      dup1\n      swap2\n      sub\n      swap1\n      revert\n    tag_11:\n        /* \"FundMe.sol\":154:265  function fund() public payable {... */\n      jump\t// out\n        /* \"#utility.yul\":7:176   */\n    tag_14:\n        /* \"#utility.yul\":91:102   */\n      0x00\n        /* \"#utility.yul\":125:131   */\n      dup3\n        /* \"#utility.yul\":120:123   */\n      dup3\n        /* \"#utility.yul\":113:132   */\n      mstore\n        /* \"#utility.yul\":165:169   */\n      0x20\n        /* \"#utility.yul\":160:163   */\n      dup3\n        /* \"#utility.yul\":156:170   */\n      add\n        /* \"#utility.yul\":141:170   */\n      swap1\n      pop\n        /* \"#utility.yul\":7:176   */\n      swap3\n      swap2\n      pop\n      pop\n      jump\t// out\n        /* \"#utility.yul\":182:402   */\n    tag_15:\n        /* \"#utility.yul\":322:356   */\n      0x416d6f756e74206d7573742062652067726561746572207468656e2031206574\n        /* \"#utility.yul\":318:319   */\n      0x00\n        /* \"#utility.yul\":310:316   */\n      dup3\n        /* \"#utility.yul\":306:320   */\n      add\n        /* \"#utility.yul\":299:357   */\n      mstore\n        /* \"#utility.yul\":391:394   */\n      0x6800000000000000000000000000000000000000000000000000000000000000\n        /* \"#utility.yul\":386:388   */\n      0x20\n        /* \"#utility.yul\":378:384   */\n      dup3\n        /* \"#utility.yul\":374:389   */\n      add\n        /* \"#utility.yul\":367:395   */\n      mstore\n        /* \"#utility.yul\":182:402   */\n      pop\n      jump\t// out\n        /* \"#utility.yul\":408:774   */\n    tag_16:\n        /* \"#utility.yul\":550:553   */\n      0x00\n        /* \"#utility.yul\":571:638   */\n      tag_21\n        /* \"#utility.yul\":635:637   */\n      0x21\n        /* \"#utility.yul\":630:633   */\n      dup4\n        /* \"#utility.yul\":571:638   */\n      tag_14\n      jump\t// in\n    tag_21:\n        /* \"#utility.yul\":564:638   */\n      swap2\n      pop\n        /* \"#utility.yul\":647:740   */\n      tag_22\n        /* \"#utility.yul\":736:739   */\n      dup3\n        /* \"#utility.yul\":647:740   */\n      tag_15\n      jump\t// in\n    tag_22:\n        /* \"#utility.yul\":765:767   */\n      0x40\n        /* \"#utility.yul\":760:763   */\n      dup3\n        /* \"#utility.yul\":756:768   */\n      add\n        /* \"#utility.yul\":749:768   */\n      swap1\n      pop\n        /* \"#utility.yul\":408:774   */\n      swap2\n      swap1\n      pop\n      jump\t// out\n        /* \"#utility.yul\":780:1199   */\n    tag_13:\n        /* \"#utility.yul\":946:950   */\n      0x00\n        /* \"#utility.yul\":984:986   */\n      0x20\n        /* \"#utility.yul\":973:982   */\n      dup3\n        /* \"#utility.yul\":969:987   */\n      add\n        /* \"#utility.yul\":961:987   */\n      swap1\n      pop\n        /* \"#utility.yul\":1033:1042   */\n      dup2\n        /* \"#utility.yul\":1027:1031   */\n      dup2\n        /* \"#utility.yul\":1023:1043   */\n      sub\n        /* \"#utility.yul\":1019:1020   */\n      0x00\n        /* \"#utility.yul\":1008:1017   */\n      dup4\n        /* \"#utility.yul\":1004:1021   */\n      add\n        /* \"#utility.yul\":997:1044   */\n      mstore\n        /* \"#utility.yul\":1061:1192   */\n      tag_24\n        /* \"#utility.yul\":1187:1191   */\n      dup2\n        /* \"#utility.yul\":1061:1192   */\n      tag_16\n      jump\t// in\n    tag_24:\n        /* \"#utility.yul\":1053:1192   */\n      swap1\n      pop\n        /* \"#utility.yul\":780:1199   */\n      swap2\n      swap1\n      pop\n      jump\t// out\n\n    auxdata: 0xa2646970667358221220f1fee8a9a9f7046114f703fe1cef987cff73db5b7d697396e80654eec8a3356f64736f6c63430008210033\n}\n",
				"bytecode": {
					"linkReferences": {},
					"object": "6080604052348015600e575f5ffd5b5061016f8061001c5f395ff3fe608060405260043610610028575f3560e01c80630fdb1c101461002c578063b60d428814610042575b5f5ffd5b348015610037575f5ffd5b5061004061004c565b005b61004a61004e565b005b565b670de0b6b3a7640000341015610099576040517f08c379a00000000000000000000000000000000000000000000000000000000081526004016100909061011b565b60405180910390fd5b565b5f82825260208201905092915050565b7f416d6f756e74206d7573742062652067726561746572207468656e20312065745f8201527f6800000000000000000000000000000000000000000000000000000000000000602082015250565b5f61010560218361009b565b9150610110826100ab565b604082019050919050565b5f6020820190508181035f830152610132816100f9565b905091905056fea2646970667358221220f1fee8a9a9f7046114f703fe1cef987cff73db5b7d697396e80654eec8a3356f64736f6c63430008210033",
					"opcodes": "PUSH1 0x80 PUSH1 0x40 MSTORE CALLVALUE DUP1 ISZERO PUSH1 0xE JUMPI PUSH0 PUSH0 REVERT JUMPDEST POP PUSH2 0x16F DUP1 PUSH2 0x1C PUSH0 CODECOPY PUSH0 RETURN INVALID PUSH1 0x80 PUSH1 0x40 MSTORE PUSH1 0x4 CALLDATASIZE LT PUSH2 0x28 JUMPI PUSH0 CALLDATALOAD PUSH1 0xE0 SHR DUP1 PUSH4 0xFDB1C10 EQ PUSH2 0x2C JUMPI DUP1 PUSH4 0xB60D4288 EQ PUSH2 0x42 JUMPI JUMPDEST PUSH0 PUSH0 REVERT JUMPDEST CALLVALUE DUP1 ISZERO PUSH2 0x37 JUMPI PUSH0 PUSH0 REVERT JUMPDEST POP PUSH2 0x40 PUSH2 0x4C JUMP JUMPDEST STOP JUMPDEST PUSH2 0x4A PUSH2 0x4E JUMP JUMPDEST STOP JUMPDEST JUMP JUMPDEST PUSH8 0xDE0B6B3A7640000 CALLVALUE LT ISZERO PUSH2 0x99 JUMPI PUSH1 0x40 MLOAD PUSH32 0x8C379A000000000000000000000000000000000000000000000000000000000 DUP2 MSTORE PUSH1 0x4 ADD PUSH2 0x90 SWAP1 PUSH2 0x11B JUMP JUMPDEST PUSH1 0x40 MLOAD DUP1 SWAP2 SUB SWAP1 REVERT JUMPDEST JUMP JUMPDEST PUSH0 DUP3 DUP3 MSTORE PUSH1 0x20 DUP3 ADD SWAP1 POP SWAP3 SWAP2 POP POP JUMP JUMPDEST PUSH32 0x416D6F756E74206D7573742062652067726561746572207468656E2031206574 PUSH0 DUP3 ADD MSTORE PUSH32 0x6800000000000000000000000000000000000000000000000000000000000000 PUSH1 0x20 DUP3 ADD MSTORE POP JUMP JUMPDEST PUSH0 PUSH2 0x105 PUSH1 0x21 DUP4 PUSH2 0x9B JUMP JUMPDEST SWAP2 POP PUSH2 0x110 DUP3 PUSH2 0xAB JUMP JUMPDEST PUSH1 0x40 DUP3 ADD SWAP1 POP SWAP2 SWAP1 POP JUMP JUMPDEST PUSH0 PUSH1 0x20 DUP3 ADD SWAP1 POP DUP2 DUP2 SUB PUSH0 DUP4 ADD MSTORE PUSH2 0x132 DUP2 PUSH2 0xF9 JUMP JUMPDEST SWAP1 POP SWAP2 SWAP1 POP JUMP INVALID LOG2 PUSH5 0x6970667358 0x22 SLT KECCAK256 CALL INVALID 0xE8 0xA9 0xA9 0xF7 DIV PUSH2 0x14F7 SUB INVALID SHR 0xEF SWAP9 PUSH29 0xFF73DB5B7D697396E80654EEC8A3356F64736F6C634300082100330000 "
				},
				"gasEstimates": {
					"creation": {
						"codeDepositCost": "73400",
						"executionCost": "121",
						"totalCost": "73521"
					},
					"external": {
						"fund()": "446",
						"withDraw()": "121"
					}
				},
				"methodIdentifiers": {
					"fund()": "b60d4288",
					"withDraw()": "0fdb1c10"
				}
			},
			"storageLayout": {
				"storage": [],
				"types": null
			},
			"userdoc": {
				"kind": "user",
				"methods": {},
				"version": 1
			}
		}
	}
}