{
	"Contract/FundMe.sol": {
		"FundMe": {
			"abi": [
				{
					"inputs": [],
					"stateMutability": "nonpayable",
					"type": "constructor"
				},
				{
					"inputs": [],
					"name": "Unauthorized",
					"type": "error"
				},
				{
					"inputs": [],
					"name": "MINIMUM_USD",
					"outputs": [
						{
							"internalType": "uint256",
							"name": "",
							"type": "uint256"
						}
					],
					"stateMutability": "view",
					"type": "function"
				},
				{
					"inputs": [
						{
							"internalType": "address",
							"name": "",
							"type": "address"
						}
					],
					"name": "addressToamountfunded",
					"outputs": [
						{
							"internalType": "uint256",
							"name": "",
							"type": "uint256"
						}
					],
					"stateMutability": "view",
					"type": "function"
				},
				{
					"inputs": [],
					"name": "fund",
					"outputs": [],
					"stateMutability": "payable",
					"type": "function"
				},
				{
					"inputs": [
						{
							"internalType": "uint256",
							"name": "",
							"type": "uint256"
						}
					],
					"name": "funders",
					"outputs": [
						{
							"internalType": "address",
							"name": "",
							"type": "address"
						}
					],
					"stateMutability": "view",
					"type": "function"
				},
				{
					"inputs": [],
					"name": "i_owner",
					"outputs": [
						{
							"internalType": "address",
							"name": "",
							"type": "address"
						}
					],
					"stateMutability": "view",
					"type": "function"
				},
				{
					"inputs": [],
					"name": "withDraw",
					"outputs": [],
					"stateMutability": "nonpayable",
					"type": "function"
				}
			],
			"devdoc": {
				"kind": "dev",
				"methods": {},
				"version": 1
			},
			"evm": {
				"assembly": "    /* \"Contract/FundMe.sol\":547:2588  contract FundMe{... */\n  mstore(0x40, 0xa0)\n    /* \"Contract/FundMe.sol\":977:1027  constructor(){... */\n  callvalue\n  dup1\n  iszero\n  tag_1\n  jumpi\n  revert(0x00, 0x00)\ntag_1:\n  pop\n    /* \"Contract/FundMe.sol\":1010:1020  msg.sender */\n  caller\n    /* \"Contract/FundMe.sol\":1000:1020  i_owner = msg.sender */\n  0xffffffffffffffffffffffffffffffffffffffff\n  and\n  0x80\n  dup2\n  0xffffffffffffffffffffffffffffffffffffffff\n  and\n  dup2\n  mstore\n  pop\n  pop\n    /* \"Contract/FundMe.sol\":547:2588  contract FundMe{... */\n  mload(0x80)\n  codecopy(0x00, dataOffset(sub_0), dataSize(sub_0))\n  0x00\n  assignImmutable(\"0xcc143a676b82d5e07b2c9d57717b403ab3c58caa273a42cdb95b15980141a86c\")\n  return(0x00, dataSize(sub_0))\nstop\n\nsub_0: assembly {\n        /* \"Contract/FundMe.sol\":547:2588  contract FundMe{... */\n      mstore(0x40, 0x80)\n      jumpi(tag_1, lt(calldatasize, 0x04))\n      shr(0xe0, calldataload(0x00))\n      dup1\n      0x0fdb1c10\n      eq\n      tag_2\n      jumpi\n      dup1\n      0x6b69a592\n      eq\n      tag_3\n      jumpi\n      dup1\n      0xa0a6800f\n      eq\n      tag_4\n      jumpi\n      dup1\n      0xb60d4288\n      eq\n      tag_5\n      jumpi\n      dup1\n      0xdba6335f\n      eq\n      tag_6\n      jumpi\n      dup1\n      0xdc0d3dff\n      eq\n      tag_7\n      jumpi\n    tag_1:\n      revert(0x00, 0x00)\n        /* \"Contract/FundMe.sol\":1429:2282  function withDraw() public onlyOwner{... */\n    tag_2:\n      callvalue\n      dup1\n      iszero\n      tag_8\n      jumpi\n      revert(0x00, 0x00)\n    tag_8:\n      pop\n      tag_9\n      tag_10\n      jump\t// in\n    tag_9:\n      stop\n        /* \"Contract/FundMe.sol\":675:721  uint256 public constant MINIMUM_USD = 5 * 1e18 */\n    tag_3:\n      callvalue\n      dup1\n      iszero\n      tag_11\n      jumpi\n      revert(0x00, 0x00)\n    tag_11:\n      pop\n      tag_12\n      tag_13\n      jump\t// in\n    tag_12:\n      mload(0x40)\n      tag_14\n      swap2\n      swap1\n      tag_15\n      jump\t// in\n    tag_14:\n      mload(0x40)\n      dup1\n      swap2\n      sub\n      swap1\n      return\n        /* \"Contract/FundMe.sol\":834:889  mapping(address=> uint256) public addressToamountfunded */\n    tag_4:\n      callvalue\n      dup1\n      iszero\n      tag_16\n      jumpi\n      revert(0x00, 0x00)\n    tag_16:\n      pop\n      tag_17\n      0x04\n      dup1\n      calldatasize\n      sub\n      dup2\n      add\n      swap1\n      tag_18\n      swap2\n      swap1\n      tag_19\n      jump\t// in\n    tag_18:\n      tag_20\n      jump\t// in\n    tag_17:\n      mload(0x40)\n      tag_21\n      swap2\n      swap1\n      tag_15\n      jump\t// in\n    tag_21:\n      mload(0x40)\n      dup1\n      swap2\n      sub\n      swap1\n      return\n        /* \"Contract/FundMe.sol\":1099:1361  function fund() public payable {... */\n    tag_5:\n      tag_22\n      tag_23\n      jump\t// in\n    tag_22:\n      stop\n        /* \"Contract/FundMe.sol\":938:970  address public immutable i_owner */\n    tag_6:\n      callvalue\n      dup1\n      iszero\n      tag_24\n      jumpi\n      revert(0x00, 0x00)\n    tag_24:\n      pop\n      tag_25\n      tag_26\n      jump\t// in\n    tag_25:\n      mload(0x40)\n      tag_27\n      swap2\n      swap1\n      tag_28\n      jump\t// in\n    tag_27:\n      mload(0x40)\n      dup1\n      swap2\n      sub\n      swap1\n      return\n        /* \"Contract/FundMe.sol\":803:827  address[] public funders */\n    tag_7:\n      callvalue\n      dup1\n      iszero\n      tag_29\n      jumpi\n      revert(0x00, 0x00)\n    tag_29:\n      pop\n      tag_30\n      0x04\n      dup1\n      calldatasize\n      sub\n      dup2\n      add\n      swap1\n      tag_31\n      swap2\n      swap1\n      tag_32\n      jump\t// in\n    tag_31:\n      tag_33\n      jump\t// in\n    tag_30:\n      mload(0x40)\n      tag_34\n      swap2\n      swap1\n      tag_28\n      jump\t// in\n    tag_34:\n      mload(0x40)\n      dup1\n      swap2\n      sub\n      swap1\n      return\n        /* \"Contract/FundMe.sol\":1429:2282  function withDraw() public onlyOwner{... */\n    tag_10:\n        /* \"Contract/FundMe.sol\":2504:2511  i_owner */\n      immutable(\"0xcc143a676b82d5e07b2c9d57717b403ab3c58caa273a42cdb95b15980141a86c\")\n        /* \"Contract/FundMe.sol\":2490:2511  msg.sender != i_owner */\n      0xffffffffffffffffffffffffffffffffffffffff\n      and\n        /* \"Contract/FundMe.sol\":2490:2500  msg.sender */\n      caller\n        /* \"Contract/FundMe.sol\":2490:2511  msg.sender != i_owner */\n      0xffffffffffffffffffffffffffffffffffffffff\n      and\n      eq\n        /* \"Contract/FundMe.sol\":2487:2545  if(msg.sender != i_owner)... */\n      tag_36\n      jumpi\n        /* \"Contract/FundMe.sol\":2531:2545  Unauthorized() */\n      mload(0x40)\n      0x82b4290000000000000000000000000000000000000000000000000000000000\n      dup2\n      mstore\n      0x04\n      add\n      mload(0x40)\n      dup1\n      swap2\n      sub\n      swap1\n      revert\n        /* \"Contract/FundMe.sol\":2487:2545  if(msg.sender != i_owner)... */\n    tag_36:\n        /* \"Contract/FundMe.sol\":1581:1595  uint fundIndex */\n      0x00\n        /* \"Contract/FundMe.sol\":1598:1599  0 */\n      0x00\n        /* \"Contract/FundMe.sol\":1581:1599  uint fundIndex = 0 */\n      swap1\n      pop\n        /* \"Contract/FundMe.sol\":1577:1757  for(uint fundIndex = 0; fundIndex < funders.length; fundIndex++)... */\n    tag_38:\n        /* \"Contract/FundMe.sol\":1613:1620  funders */\n      0x00\n        /* \"Contract/FundMe.sol\":1613:1627  funders.length */\n      dup1\n      sload\n      swap1\n      pop\n        /* \"Contract/FundMe.sol\":1601:1610  fundIndex */\n      dup2\n        /* \"Contract/FundMe.sol\":1601:1627  fundIndex < funders.length */\n      lt\n        /* \"Contract/FundMe.sol\":1577:1757  for(uint fundIndex = 0; fundIndex < funders.length; fundIndex++)... */\n      iszero\n      tag_39\n      jumpi\n        /* \"Contract/FundMe.sol\":1664:1678  address funder */\n      0x00\n        /* \"Contract/FundMe.sol\":1681:1688  funders */\n      0x00\n        /* \"Contract/FundMe.sol\":1689:1698  fundIndex */\n      dup3\n        /* \"Contract/FundMe.sol\":1681:1699  funders[fundIndex] */\n      dup2\n      sload\n      dup2\n      lt\n      tag_41\n      jumpi\n      tag_42\n      tag_43\n      jump\t// in\n    tag_42:\n    tag_41:\n      swap1\n      0x00\n      mstore\n      keccak256(0x00, 0x20)\n      add\n      0x00\n      swap1\n      sload\n      swap1\n      0x0100\n      exp\n      swap1\n      div\n      0xffffffffffffffffffffffffffffffffffffffff\n      and\n        /* \"Contract/FundMe.sol\":1664:1699  address funder = funders[fundIndex] */\n      swap1\n      pop\n        /* \"Contract/FundMe.sol\":1745:1746  0 */\n      0x00\n        /* \"Contract/FundMe.sol\":1713:1734  addressToamountfunded */\n      0x01\n        /* \"Contract/FundMe.sol\":1713:1742  addressToamountfunded[funder] */\n      0x00\n        /* \"Contract/FundMe.sol\":1735:1741  funder */\n      dup4\n        /* \"Contract/FundMe.sol\":1713:1742  addressToamountfunded[funder] */\n      0xffffffffffffffffffffffffffffffffffffffff\n      and\n      0xffffffffffffffffffffffffffffffffffffffff\n      and\n      dup2\n      mstore\n      0x20\n      add\n      swap1\n      dup2\n      mstore\n      0x20\n      add\n      0x00\n      keccak256\n        /* \"Contract/FundMe.sol\":1713:1746  addressToamountfunded[funder] = 0 */\n      dup2\n      swap1\n      sstore\n      pop\n        /* \"Contract/FundMe.sol\":1650:1757  {... */\n      pop\n        /* \"Contract/FundMe.sol\":1629:1640  fundIndex++ */\n      dup1\n      dup1\n      0x01\n      add\n      swap2\n      pop\n      pop\n        /* \"Contract/FundMe.sol\":1577:1757  for(uint fundIndex = 0; fundIndex < funders.length; fundIndex++)... */\n      jump(tag_38)\n    tag_39:\n      pop\n        /* \"Contract/FundMe.sol\":1816:1817  0 */\n      0x00\n        /* \"Contract/FundMe.sol\":1802:1818  new address[](0) */\n      0xffffffffffffffff\n      dup2\n      gt\n      iszero\n      tag_45\n      jumpi\n      tag_46\n      tag_47\n      jump\t// in\n    tag_46:\n    tag_45:\n      mload(0x40)\n      swap1\n      dup1\n      dup3\n      mstore\n      dup1\n      0x20\n      mul\n      0x20\n      add\n      dup3\n      add\n      0x40\n      mstore\n      dup1\n      iszero\n      tag_48\n      jumpi\n      dup2\n      0x20\n      add\n      0x20\n      dup3\n      mul\n      dup1\n      calldatasize\n      dup4\n      calldatacopy\n      dup1\n      dup3\n      add\n      swap2\n      pop\n      pop\n      swap1\n      pop\n    tag_48:\n      pop\n        /* \"Contract/FundMe.sol\":1792:1799  funders */\n      0x00\n        /* \"Contract/FundMe.sol\":1792:1818  funders = new address[](0) */\n      swap1\n      dup2\n      tag_49\n      swap2\n      swap1\n      tag_50\n      jump\t// in\n    tag_49:\n      pop\n        /* \"Contract/FundMe.sol\":1935:1945  msg.sender */\n      caller\n        /* \"Contract/FundMe.sol\":1927:1955  payable(msg.sender).transfer */\n      0xffffffffffffffffffffffffffffffffffffffff\n      and\n        /* \"Contract/FundMe.sol\":1927:1978  payable(msg.sender).transfer(address(this).balance) */\n      0x08fc\n        /* \"Contract/FundMe.sol\":1956:1977  address(this).balance */\n      selfbalance\n        /* \"Contract/FundMe.sol\":1927:1978  payable(msg.sender).transfer(address(this).balance) */\n      swap1\n      dup2\n      iszero\n      mul\n      swap1\n      mload(0x40)\n      0x00\n      mload(0x40)\n      dup1\n      dup4\n      sub\n      dup2\n      dup6\n      dup9\n      dup9\n      call\n      swap4\n      pop\n      pop\n      pop\n      pop\n      iszero\n      dup1\n      iszero\n      tag_52\n      jumpi\n      returndatacopy(0x00, 0x00, returndatasize)\n      revert(0x00, returndatasize)\n    tag_52:\n      pop\n        /* \"Contract/FundMe.sol\":2014:2030  bool sendSuccess */\n      0x00\n        /* \"Contract/FundMe.sol\":2041:2051  msg.sender */\n      caller\n        /* \"Contract/FundMe.sol\":2033:2057  payable(msg.sender).send */\n      0xffffffffffffffffffffffffffffffffffffffff\n      and\n        /* \"Contract/FundMe.sol\":2033:2080  payable(msg.sender).send(address(this).balance) */\n      0x08fc\n        /* \"Contract/FundMe.sol\":2058:2079  address(this).balance */\n      selfbalance\n        /* \"Contract/FundMe.sol\":2033:2080  payable(msg.sender).send(address(this).balance) */\n      swap1\n      dup2\n      iszero\n      mul\n      swap1\n      mload(0x40)\n      0x00\n      mload(0x40)\n      dup1\n      dup4\n      sub\n      dup2\n      dup6\n      dup9\n      dup9\n      call\n      swap4\n      pop\n      pop\n      pop\n      pop\n        /* \"Contract/FundMe.sol\":2014:2080  bool sendSuccess = payable(msg.sender).send(address(this).balance) */\n      swap1\n      pop\n        /* \"Contract/FundMe.sol\":2098:2109  sendSuccess */\n      dup1\n        /* \"Contract/FundMe.sol\":2090:2125  require(sendSuccess, \"Send failed\") */\n      tag_54\n      jumpi\n      mload(0x40)\n      0x08c379a000000000000000000000000000000000000000000000000000000000\n      dup2\n      mstore\n      0x04\n      add\n      tag_55\n      swap1\n      tag_56\n      jump\t// in\n    tag_55:\n      mload(0x40)\n      dup1\n      swap2\n      sub\n      swap1\n      revert\n    tag_54:\n        /* \"Contract/FundMe.sol\":2152:2168  bool callSuccess */\n      0x00\n        /* \"Contract/FundMe.sol\":2181:2191  msg.sender */\n      caller\n        /* \"Contract/FundMe.sol\":2173:2197  payable(msg.sender).call */\n      0xffffffffffffffffffffffffffffffffffffffff\n      and\n        /* \"Contract/FundMe.sol\":2205:2226  address(this).balance */\n      selfbalance\n        /* \"Contract/FundMe.sol\":2173:2231  payable(msg.sender).call{value: address(this).balance}(\"\") */\n      mload(0x40)\n      tag_57\n      swap1\n      tag_58\n      jump\t// in\n    tag_57:\n      0x00\n      mload(0x40)\n      dup1\n      dup4\n      sub\n      dup2\n      dup6\n      dup8\n      gas\n      call\n      swap3\n      pop\n      pop\n      pop\n      returndatasize\n      dup1\n      0x00\n      dup2\n      eq\n      tag_61\n      jumpi\n      mload(0x40)\n      swap2\n      pop\n      and(add(returndatasize, 0x3f), not(0x1f))\n      dup3\n      add\n      0x40\n      mstore\n      returndatasize\n      dup3\n      mstore\n      returndatasize\n      0x00\n      0x20\n      dup5\n      add\n      returndatacopy\n      jump(tag_60)\n    tag_61:\n      0x60\n      swap2\n      pop\n    tag_60:\n      pop\n        /* \"Contract/FundMe.sol\":2151:2231  (bool callSuccess,) = payable(msg.sender).call{value: address(this).balance}(\"\") */\n      pop\n      swap1\n      pop\n        /* \"Contract/FundMe.sol\":2249:2260  callSuccess */\n      dup1\n        /* \"Contract/FundMe.sol\":2241:2275  require(callSuccess,\"Call failed\") */\n      tag_62\n      jumpi\n      mload(0x40)\n      0x08c379a000000000000000000000000000000000000000000000000000000000\n      dup2\n      mstore\n      0x04\n      add\n      tag_63\n      swap1\n      tag_64\n      jump\t// in\n    tag_63:\n      mload(0x40)\n      dup1\n      swap2\n      sub\n      swap1\n      revert\n    tag_62:\n        /* \"Contract/FundMe.sol\":1465:2282  {... */\n      pop\n      pop\n        /* \"Contract/FundMe.sol\":1429:2282  function withDraw() public onlyOwner{... */\n      jump\t// out\n        /* \"Contract/FundMe.sol\":675:721  uint256 public constant MINIMUM_USD = 5 * 1e18 */\n    tag_13:\n        /* \"Contract/FundMe.sol\":713:721  5 * 1e18 */\n      0x4563918244f40000\n        /* \"Contract/FundMe.sol\":675:721  uint256 public constant MINIMUM_USD = 5 * 1e18 */\n      dup2\n      jump\t// out\n        /* \"Contract/FundMe.sol\":834:889  mapping(address=> uint256) public addressToamountfunded */\n    tag_20:\n      mstore(0x20, 0x01)\n      dup1\n      0x00\n      mstore\n      keccak256(0x00, 0x40)\n      0x00\n      swap2\n      pop\n      swap1\n      pop\n      sload\n      dup2\n      jump\t// out\n        /* \"Contract/FundMe.sol\":1099:1361  function fund() public payable {... */\n    tag_23:\n        /* \"Contract/FundMe.sol\":713:721  5 * 1e18 */\n      0x4563918244f40000\n        /* \"Contract/FundMe.sol\":1148:1157  msg.value */\n      callvalue\n        /* \"Contract/FundMe.sol\":1148:1175  msg.value.getConversionRate */\n      linkerSymbol(\"12c6e211796fb1a0b7deb2980c9fd1040fdc89a58821908e516edabeb332aa14\")\n      0x6e5b6b28\n      swap1\n      swap2\n        /* \"Contract/FundMe.sol\":1148:1177  msg.value.getConversionRate() */\n      mload(0x40)\n      dup3\n      0xffffffff\n      and\n      0xe0\n      shl\n      dup2\n      mstore\n      0x04\n      add\n      tag_66\n      swap2\n      swap1\n      tag_67\n      jump\t// in\n    tag_66:\n      0x20\n      mload(0x40)\n      dup1\n      dup4\n      sub\n      dup2\n      dup7\n      gas\n      delegatecall\n      iszero\n      dup1\n      iszero\n      tag_69\n      jumpi\n      returndatacopy(0x00, 0x00, returndatasize)\n      revert(0x00, returndatasize)\n    tag_69:\n      pop\n      pop\n      pop\n      pop\n      mload(0x40)\n      returndatasize\n      not(0x1f)\n      0x1f\n      dup3\n      add\n      and\n      dup3\n      add\n      dup1\n      0x40\n      mstore\n      pop\n      dup2\n      add\n      swap1\n      tag_70\n      swap2\n      swap1\n      tag_71\n      jump\t// in\n    tag_70:\n        /* \"Contract/FundMe.sol\":1148:1192  msg.value.getConversionRate() >= MINIMUM_USD */\n      lt\n      iszero\n        /* \"Contract/FundMe.sol\":1140:1229  require(msg.value.getConversionRate() >= MINIMUM_USD,\"Amount must be greater then 1 eth\") */\n      tag_72\n      jumpi\n      mload(0x40)\n      0x08c379a000000000000000000000000000000000000000000000000000000000\n      dup2\n      mstore\n      0x04\n      add\n      tag_73\n      swap1\n      tag_74\n      jump\t// in\n    tag_73:\n      mload(0x40)\n      dup1\n      swap2\n      sub\n      swap1\n      revert\n    tag_72:\n        /* \"Contract/FundMe.sol\":1239:1246  funders */\n      0x00\n        /* \"Contract/FundMe.sol\":1252:1262  msg.sender */\n      caller\n        /* \"Contract/FundMe.sol\":1239:1263  funders.push(msg.sender) */\n      swap1\n      dup1\n      0x01\n      dup2\n      sload\n      add\n      dup1\n      dup3\n      sstore\n      dup1\n      swap2\n      pop\n      pop\n      0x01\n      swap1\n      sub\n      swap1\n      0x00\n      mstore\n      keccak256(0x00, 0x20)\n      add\n      0x00\n      swap1\n      swap2\n      swap1\n      swap2\n      swap1\n      swap2\n      0x0100\n      exp\n      dup2\n      sload\n      dup2\n      0xffffffffffffffffffffffffffffffffffffffff\n      mul\n      not\n      and\n      swap1\n      dup4\n      0xffffffffffffffffffffffffffffffffffffffff\n      and\n      mul\n      or\n      swap1\n      sstore\n      pop\n        /* \"Contract/FundMe.sol\":1345:1354  msg.value */\n      callvalue\n        /* \"Contract/FundMe.sol\":1309:1330  addressToamountfunded */\n      0x01\n        /* \"Contract/FundMe.sol\":1309:1342  addressToamountfunded[msg.sender] */\n      0x00\n        /* \"Contract/FundMe.sol\":1331:1341  msg.sender */\n      caller\n        /* \"Contract/FundMe.sol\":1309:1342  addressToamountfunded[msg.sender] */\n      0xffffffffffffffffffffffffffffffffffffffff\n      and\n      0xffffffffffffffffffffffffffffffffffffffff\n      and\n      dup2\n      mstore\n      0x20\n      add\n      swap1\n      dup2\n      mstore\n      0x20\n      add\n      0x00\n      keccak256\n      sload\n        /* \"Contract/FundMe.sol\":1309:1354  addressToamountfunded[msg.sender] + msg.value */\n      tag_76\n      swap2\n      swap1\n      tag_77\n      jump\t// in\n    tag_76:\n        /* \"Contract/FundMe.sol\":1273:1294  addressToamountfunded */\n      0x01\n        /* \"Contract/FundMe.sol\":1273:1306  addressToamountfunded[msg.sender] */\n      0x00\n        /* \"Contract/FundMe.sol\":1295:1305  msg.sender */\n      caller\n        /* \"Contract/FundMe.sol\":1273:1306  addressToamountfunded[msg.sender] */\n      0xffffffffffffffffffffffffffffffffffffffff\n      and\n      0xffffffffffffffffffffffffffffffffffffffff\n      and\n      dup2\n      mstore\n      0x20\n      add\n      swap1\n      dup2\n      mstore\n      0x20\n      add\n      0x00\n      keccak256\n        /* \"Contract/FundMe.sol\":1273:1354  addressToamountfunded[msg.sender] = addressToamountfunded[msg.sender] + msg.value */\n      dup2\n      swap1\n      sstore\n      pop\n        /* \"Contract/FundMe.sol\":1099:1361  function fund() public payable {... */\n      jump\t// out\n        /* \"Contract/FundMe.sol\":938:970  address public immutable i_owner */\n    tag_26:\n      immutable(\"0xcc143a676b82d5e07b2c9d57717b403ab3c58caa273a42cdb95b15980141a86c\")\n      dup2\n      jump\t// out\n        /* \"Contract/FundMe.sol\":803:827  address[] public funders */\n    tag_33:\n      0x00\n      dup2\n      dup2\n      sload\n      dup2\n      lt\n      tag_78\n      jumpi\n      0x00\n      dup1\n      revert\n    tag_78:\n      swap1\n      0x00\n      mstore\n      keccak256(0x00, 0x20)\n      add\n      0x00\n      swap2\n      pop\n      sload\n      swap1\n      0x0100\n      exp\n      swap1\n      div\n      0xffffffffffffffffffffffffffffffffffffffff\n      and\n      dup2\n      jump\t// out\n        /* \"#utility.yul\":7:84   */\n    tag_80:\n        /* \"#utility.yul\":44:51   */\n      0x00\n        /* \"#utility.yul\":73:78   */\n      dup2\n        /* \"#utility.yul\":62:78   */\n      swap1\n      pop\n        /* \"#utility.yul\":7:84   */\n      swap2\n      swap1\n      pop\n      jump\t// out\n        /* \"#utility.yul\":90:208   */\n    tag_81:\n        /* \"#utility.yul\":177:201   */\n      tag_135\n        /* \"#utility.yul\":195:200   */\n      dup2\n        /* \"#utility.yul\":177:201   */\n      tag_80\n      jump\t// in\n    tag_135:\n        /* \"#utility.yul\":172:175   */\n      dup3\n        /* \"#utility.yul\":165:202   */\n      mstore\n        /* \"#utility.yul\":90:208   */\n      pop\n      pop\n      jump\t// out\n        /* \"#utility.yul\":214:436   */\n    tag_15:\n        /* \"#utility.yul\":307:311   */\n      0x00\n        /* \"#utility.yul\":345:347   */\n      0x20\n        /* \"#utility.yul\":334:343   */\n      dup3\n        /* \"#utility.yul\":330:348   */\n      add\n        /* \"#utility.yul\":322:348   */\n      swap1\n      pop\n        /* \"#utility.yul\":358:429   */\n      tag_137\n        /* \"#utility.yul\":426:427   */\n      0x00\n        /* \"#utility.yul\":415:424   */\n      dup4\n        /* \"#utility.yul\":411:428   */\n      add\n        /* \"#utility.yul\":402:408   */\n      dup5\n        /* \"#utility.yul\":358:429   */\n      tag_81\n      jump\t// in\n    tag_137:\n        /* \"#utility.yul\":214:436   */\n      swap3\n      swap2\n      pop\n      pop\n      jump\t// out\n        /* \"#utility.yul\":523:640   */\n    tag_83:\n        /* \"#utility.yul\":632:633   */\n      0x00\n        /* \"#utility.yul\":629:630   */\n      0x00\n        /* \"#utility.yul\":622:634   */\n      revert\n        /* \"#utility.yul\":769:895   */\n    tag_85:\n        /* \"#utility.yul\":806:813   */\n      0x00\n        /* \"#utility.yul\":846:888   */\n      0xffffffffffffffffffffffffffffffffffffffff\n        /* \"#utility.yul\":839:844   */\n      dup3\n        /* \"#utility.yul\":835:889   */\n      and\n        /* \"#utility.yul\":824:889   */\n      swap1\n      pop\n        /* \"#utility.yul\":769:895   */\n      swap2\n      swap1\n      pop\n      jump\t// out\n        /* \"#utility.yul\":901:997   */\n    tag_86:\n        /* \"#utility.yul\":938:945   */\n      0x00\n        /* \"#utility.yul\":967:991   */\n      tag_143\n        /* \"#utility.yul\":985:990   */\n      dup3\n        /* \"#utility.yul\":967:991   */\n      tag_85\n      jump\t// in\n    tag_143:\n        /* \"#utility.yul\":956:991   */\n      swap1\n      pop\n        /* \"#utility.yul\":901:997   */\n      swap2\n      swap1\n      pop\n      jump\t// out\n        /* \"#utility.yul\":1003:1125   */\n    tag_87:\n        /* \"#utility.yul\":1076:1100   */\n      tag_145\n        /* \"#utility.yul\":1094:1099   */\n      dup2\n        /* \"#utility.yul\":1076:1100   */\n      tag_86\n      jump\t// in\n    tag_145:\n        /* \"#utility.yul\":1069:1074   */\n      dup2\n        /* \"#utility.yul\":1066:1101   */\n      eq\n        /* \"#utility.yul\":1056:1119   */\n      tag_146\n      jumpi\n        /* \"#utility.yul\":1115:1116   */\n      0x00\n        /* \"#utility.yul\":1112:1113   */\n      0x00\n        /* \"#utility.yul\":1105:1117   */\n      revert\n        /* \"#utility.yul\":1056:1119   */\n    tag_146:\n        /* \"#utility.yul\":1003:1125   */\n      pop\n      jump\t// out\n        /* \"#utility.yul\":1131:1270   */\n    tag_88:\n        /* \"#utility.yul\":1177:1182   */\n      0x00\n        /* \"#utility.yul\":1215:1221   */\n      dup2\n        /* \"#utility.yul\":1202:1222   */\n      calldataload\n        /* \"#utility.yul\":1193:1222   */\n      swap1\n      pop\n        /* \"#utility.yul\":1231:1264   */\n      tag_148\n        /* \"#utility.yul\":1258:1263   */\n      dup2\n        /* \"#utility.yul\":1231:1264   */\n      tag_87\n      jump\t// in\n    tag_148:\n        /* \"#utility.yul\":1131:1270   */\n      swap3\n      swap2\n      pop\n      pop\n      jump\t// out\n        /* \"#utility.yul\":1276:1605   */\n    tag_19:\n        /* \"#utility.yul\":1335:1341   */\n      0x00\n        /* \"#utility.yul\":1384:1386   */\n      0x20\n        /* \"#utility.yul\":1372:1381   */\n      dup3\n        /* \"#utility.yul\":1363:1370   */\n      dup5\n        /* \"#utility.yul\":1359:1382   */\n      sub\n        /* \"#utility.yul\":1355:1387   */\n      slt\n        /* \"#utility.yul\":1352:1471   */\n      iszero\n      tag_150\n      jumpi\n        /* \"#utility.yul\":1390:1469   */\n      tag_151\n      tag_83\n      jump\t// in\n    tag_151:\n        /* \"#utility.yul\":1352:1471   */\n    tag_150:\n        /* \"#utility.yul\":1510:1511   */\n      0x00\n        /* \"#utility.yul\":1535:1588   */\n      tag_152\n        /* \"#utility.yul\":1580:1587   */\n      dup5\n        /* \"#utility.yul\":1571:1577   */\n      dup3\n        /* \"#utility.yul\":1560:1569   */\n      dup6\n        /* \"#utility.yul\":1556:1578   */\n      add\n        /* \"#utility.yul\":1535:1588   */\n      tag_88\n      jump\t// in\n    tag_152:\n        /* \"#utility.yul\":1525:1588   */\n      swap2\n      pop\n        /* \"#utility.yul\":1481:1598   */\n      pop\n        /* \"#utility.yul\":1276:1605   */\n      swap3\n      swap2\n      pop\n      pop\n      jump\t// out\n        /* \"#utility.yul\":1611:1729   */\n    tag_89:\n        /* \"#utility.yul\":1698:1722   */\n      tag_154\n        /* \"#utility.yul\":1716:1721   */\n      dup2\n        /* \"#utility.yul\":1698:1722   */\n      tag_86\n      jump\t// in\n    tag_154:\n        /* \"#utility.yul\":1693:1696   */\n      dup3\n        /* \"#utility.yul\":1686:1723   */\n      mstore\n        /* \"#utility.yul\":1611:1729   */\n      pop\n      pop\n      jump\t// out\n        /* \"#utility.yul\":1735:1957   */\n    tag_28:\n        /* \"#utility.yul\":1828:1832   */\n      0x00\n        /* \"#utility.yul\":1866:1868   */\n      0x20\n        /* \"#utility.yul\":1855:1864   */\n      dup3\n        /* \"#utility.yul\":1851:1869   */\n      add\n        /* \"#utility.yul\":1843:1869   */\n      swap1\n      pop\n        /* \"#utility.yul\":1879:1950   */\n      tag_156\n        /* \"#utility.yul\":1947:1948   */\n      0x00\n        /* \"#utility.yul\":1936:1945   */\n      dup4\n        /* \"#utility.yul\":1932:1949   */\n      add\n        /* \"#utility.yul\":1923:1929   */\n      dup5\n        /* \"#utility.yul\":1879:1950   */\n      tag_89\n      jump\t// in\n    tag_156:\n        /* \"#utility.yul\":1735:1957   */\n      swap3\n      swap2\n      pop\n      pop\n      jump\t// out\n        /* \"#utility.yul\":1963:2085   */\n    tag_90:\n        /* \"#utility.yul\":2036:2060   */\n      tag_158\n        /* \"#utility.yul\":2054:2059   */\n      dup2\n        /* \"#utility.yul\":2036:2060   */\n      tag_80\n      jump\t// in\n    tag_158:\n        /* \"#utility.yul\":2029:2034   */\n      dup2\n        /* \"#utility.yul\":2026:2061   */\n      eq\n        /* \"#utility.yul\":2016:2079   */\n      tag_159\n      jumpi\n        /* \"#utility.yul\":2075:2076   */\n      0x00\n        /* \"#utility.yul\":2072:2073   */\n      0x00\n        /* \"#utility.yul\":2065:2077   */\n      revert\n        /* \"#utility.yul\":2016:2079   */\n    tag_159:\n        /* \"#utility.yul\":1963:2085   */\n      pop\n      jump\t// out\n        /* \"#utility.yul\":2091:2230   */\n    tag_91:\n        /* \"#utility.yul\":2137:2142   */\n      0x00\n        /* \"#utility.yul\":2175:2181   */\n      dup2\n        /* \"#utility.yul\":2162:2182   */\n      calldataload\n        /* \"#utility.yul\":2153:2182   */\n      swap1\n      pop\n        /* \"#utility.yul\":2191:2224   */\n      tag_161\n        /* \"#utility.yul\":2218:2223   */\n      dup2\n        /* \"#utility.yul\":2191:2224   */\n      tag_90\n      jump\t// in\n    tag_161:\n        /* \"#utility.yul\":2091:2230   */\n      swap3\n      swap2\n      pop\n      pop\n      jump\t// out\n        /* \"#utility.yul\":2236:2565   */\n    tag_32:\n        /* \"#utility.yul\":2295:2301   */\n      0x00\n        /* \"#utility.yul\":2344:2346   */\n      0x20\n        /* \"#utility.yul\":2332:2341   */\n      dup3\n        /* \"#utility.yul\":2323:2330   */\n      dup5\n        /* \"#utility.yul\":2319:2342   */\n      sub\n        /* \"#utility.yul\":2315:2347   */\n      slt\n        /* \"#utility.yul\":2312:2431   */\n      iszero\n      tag_163\n      jumpi\n        /* \"#utility.yul\":2350:2429   */\n      tag_164\n      tag_83\n      jump\t// in\n    tag_164:\n        /* \"#utility.yul\":2312:2431   */\n    tag_163:\n        /* \"#utility.yul\":2470:2471   */\n      0x00\n        /* \"#utility.yul\":2495:2548   */\n      tag_165\n        /* \"#utility.yul\":2540:2547   */\n      dup5\n        /* \"#utility.yul\":2531:2537   */\n      dup3\n        /* \"#utility.yul\":2520:2529   */\n      dup6\n        /* \"#utility.yul\":2516:2538   */\n      add\n        /* \"#utility.yul\":2495:2548   */\n      tag_91\n      jump\t// in\n    tag_165:\n        /* \"#utility.yul\":2485:2548   */\n      swap2\n      pop\n        /* \"#utility.yul\":2441:2558   */\n      pop\n        /* \"#utility.yul\":2236:2565   */\n      swap3\n      swap2\n      pop\n      pop\n      jump\t// out\n        /* \"#utility.yul\":2571:2751   */\n    tag_43:\n        /* \"#utility.yul\":2619:2696   */\n      0x4e487b7100000000000000000000000000000000000000000000000000000000\n        /* \"#utility.yul\":2616:2617   */\n      0x00\n        /* \"#utility.yul\":2609:2697   */\n      mstore\n        /* \"#utility.yul\":2716:2720   */\n      0x32\n        /* \"#utility.yul\":2713:2714   */\n      0x04\n        /* \"#utility.yul\":2706:2721   */\n      mstore\n        /* \"#utility.yul\":2740:2744   */\n      0x24\n        /* \"#utility.yul\":2737:2738   */\n      0x00\n        /* \"#utility.yul\":2730:2745   */\n      revert\n        /* \"#utility.yul\":2757:2937   */\n    tag_47:\n        /* \"#utility.yul\":2805:2882   */\n      0x4e487b7100000000000000000000000000000000000000000000000000000000\n        /* \"#utility.yul\":2802:2803   */\n      0x00\n        /* \"#utility.yul\":2795:2883   */\n      mstore\n        /* \"#utility.yul\":2902:2906   */\n      0x41\n        /* \"#utility.yul\":2899:2900   */\n      0x04\n        /* \"#utility.yul\":2892:2907   */\n      mstore\n        /* \"#utility.yul\":2926:2930   */\n      0x24\n        /* \"#utility.yul\":2923:2924   */\n      0x00\n        /* \"#utility.yul\":2916:2931   */\n      revert\n        /* \"#utility.yul\":2943:3054   */\n    tag_92:\n        /* \"#utility.yul\":3007:3013   */\n      0x00\n        /* \"#utility.yul\":3041:3046   */\n      dup2\n        /* \"#utility.yul\":3035:3047   */\n      sload\n        /* \"#utility.yul\":3025:3047   */\n      swap1\n      pop\n        /* \"#utility.yul\":2943:3054   */\n      swap2\n      swap1\n      pop\n      jump\t// out\n        /* \"#utility.yul\":3060:3240   */\n    tag_93:\n        /* \"#utility.yul\":3108:3185   */\n      0x4e487b7100000000000000000000000000000000000000000000000000000000\n        /* \"#utility.yul\":3105:3106   */\n      0x00\n        /* \"#utility.yul\":3098:3186   */\n      mstore\n        /* \"#utility.yul\":3205:3209   */\n      0x11\n        /* \"#utility.yul\":3202:3203   */\n      0x04\n        /* \"#utility.yul\":3195:3210   */\n      mstore\n        /* \"#utility.yul\":3229:3233   */\n      0x24\n        /* \"#utility.yul\":3226:3227   */\n      0x00\n        /* \"#utility.yul\":3219:3234   */\n      revert\n        /* \"#utility.yul\":3662:3865   */\n    tag_95:\n        /* \"#utility.yul\":3743:3747   */\n      0x00\n        /* \"#utility.yul\":3766:3772   */\n      dup2\n        /* \"#utility.yul\":3758:3772   */\n      swap1\n      pop\n        /* \"#utility.yul\":3856:3857   */\n      0x01\n        /* \"#utility.yul\":3851:3852   */\n      dup1\n        /* \"#utility.yul\":3848:3849   */\n      0x01\n        /* \"#utility.yul\":3844:3853   */\n      sub\n        /* \"#utility.yul\":3836:3842   */\n      dup4\n        /* \"#utility.yul\":3832:3854   */\n      add\n        /* \"#utility.yul\":3828:3858   */\n      div\n        /* \"#utility.yul\":3820:3858   */\n      swap1\n      pop\n        /* \"#utility.yul\":3662:3865   */\n      swap2\n      swap1\n      pop\n      jump\t// out\n        /* \"#utility.yul\":3870:4026   */\n    tag_96:\n        /* \"#utility.yul\":3934:3938   */\n      0x00\n        /* \"#utility.yul\":3957:3960   */\n      dup2\n        /* \"#utility.yul\":3949:3960   */\n      swap1\n      pop\n        /* \"#utility.yul\":3980:3983   */\n      dup2\n        /* \"#utility.yul\":3977:3978   */\n      0x00\n        /* \"#utility.yul\":3970:3984   */\n      mstore\n        /* \"#utility.yul\":4014:4018   */\n      0x20\n        /* \"#utility.yul\":4011:4012   */\n      0x00\n        /* \"#utility.yul\":4001:4019   */\n      keccak256\n        /* \"#utility.yul\":3993:4019   */\n      swap1\n      pop\n        /* \"#utility.yul\":3870:4026   */\n      swap2\n      swap1\n      pop\n      jump\t// out\n        /* \"#utility.yul\":4032:4139   */\n    tag_97:\n        /* \"#utility.yul\":4076:4084   */\n      0x00\n        /* \"#utility.yul\":4126:4131   */\n      dup3\n        /* \"#utility.yul\":4120:4124   */\n      dup3\n        /* \"#utility.yul\":4116:4132   */\n      shl\n        /* \"#utility.yul\":4095:4132   */\n      swap1\n      pop\n        /* \"#utility.yul\":4032:4139   */\n      swap3\n      swap2\n      pop\n      pop\n      jump\t// out\n        /* \"#utility.yul\":4145:4538   */\n    tag_98:\n        /* \"#utility.yul\":4214:4220   */\n      0x00\n        /* \"#utility.yul\":4264:4265   */\n      0x08\n        /* \"#utility.yul\":4252:4262   */\n      dup4\n        /* \"#utility.yul\":4248:4266   */\n      mul\n        /* \"#utility.yul\":4287:4384   */\n      tag_180\n        /* \"#utility.yul\":4317:4383   */\n      0xffffffffffffffffffffffffffffffffffffffffffffffffffffffffffffffff\n        /* \"#utility.yul\":4306:4315   */\n      dup3\n        /* \"#utility.yul\":4287:4384   */\n      tag_97\n      jump\t// in\n    tag_180:\n        /* \"#utility.yul\":4405:4444   */\n      tag_181\n        /* \"#utility.yul\":4435:4443   */\n      dup7\n        /* \"#utility.yul\":4424:4433   */\n      dup4\n        /* \"#utility.yul\":4405:4444   */\n      tag_97\n      jump\t// in\n    tag_181:\n        /* \"#utility.yul\":4393:4444   */\n      swap6\n      pop\n        /* \"#utility.yul\":4477:4481   */\n      dup1\n        /* \"#utility.yul\":4473:4482   */\n      not\n        /* \"#utility.yul\":4466:4471   */\n      dup5\n        /* \"#utility.yul\":4462:4483   */\n      and\n        /* \"#utility.yul\":4453:4483   */\n      swap4\n      pop\n        /* \"#utility.yul\":4526:4530   */\n      dup1\n        /* \"#utility.yul\":4516:4524   */\n      dup7\n        /* \"#utility.yul\":4512:4531   */\n      and\n        /* \"#utility.yul\":4505:4510   */\n      dup5\n        /* \"#utility.yul\":4502:4532   */\n      or\n        /* \"#utility.yul\":4492:4532   */\n      swap3\n      pop\n        /* \"#utility.yul\":4221:4538   */\n      pop\n      pop\n        /* \"#utility.yul\":4145:4538   */\n      swap4\n      swap3\n      pop\n      pop\n      pop\n      jump\t// out\n        /* \"#utility.yul\":4544:4604   */\n    tag_99:\n        /* \"#utility.yul\":4572:4575   */\n      0x00\n        /* \"#utility.yul\":4593:4598   */\n      dup2\n        /* \"#utility.yul\":4586:4598   */\n      swap1\n      pop\n        /* \"#utility.yul\":4544:4604   */\n      swap2\n      swap1\n      pop\n      jump\t// out\n        /* \"#utility.yul\":4610:4752   */\n    tag_100:\n        /* \"#utility.yul\":4660:4669   */\n      0x00\n        /* \"#utility.yul\":4693:4746   */\n      tag_184\n        /* \"#utility.yul\":4711:4745   */\n      tag_185\n        /* \"#utility.yul\":4720:4744   */\n      tag_186\n        /* \"#utility.yul\":4738:4743   */\n      dup5\n        /* \"#utility.yul\":4720:4744   */\n      tag_80\n      jump\t// in\n    tag_186:\n        /* \"#utility.yul\":4711:4745   */\n      tag_99\n      jump\t// in\n    tag_185:\n        /* \"#utility.yul\":4693:4746   */\n      tag_80\n      jump\t// in\n    tag_184:\n        /* \"#utility.yul\":4680:4746   */\n      swap1\n      pop\n        /* \"#utility.yul\":4610:4752   */\n      swap2\n      swap1\n      pop\n      jump\t// out\n        /* \"#utility.yul\":4758:4833   */\n    tag_101:\n        /* \"#utility.yul\":4801:4804   */\n      0x00\n        /* \"#utility.yul\":4822:4827   */\n      dup2\n        /* \"#utility.yul\":4815:4827   */\n      swap1\n      pop\n        /* \"#utility.yul\":4758:4833   */\n      swap2\n      swap1\n      pop\n      jump\t// out\n        /* \"#utility.yul\":4839:5108   */\n    tag_102:\n        /* \"#utility.yul\":4949:4988   */\n      tag_189\n        /* \"#utility.yul\":4980:4987   */\n      dup4\n        /* \"#utility.yul\":4949:4988   */\n      tag_100\n      jump\t// in\n    tag_189:\n        /* \"#utility.yul\":5010:5101   */\n      tag_190\n        /* \"#utility.yul\":5059:5100   */\n      tag_191\n        /* \"#utility.yul\":5083:5099   */\n      dup3\n        /* \"#utility.yul\":5059:5100   */\n      tag_101\n      jump\t// in\n    tag_191:\n        /* \"#utility.yul\":5051:5057   */\n      dup5\n        /* \"#utility.yul\":5044:5048   */\n      dup5\n        /* \"#utility.yul\":5038:5049   */\n      sload\n        /* \"#utility.yul\":5010:5101   */\n      tag_98\n      jump\t// in\n    tag_190:\n        /* \"#utility.yul\":5004:5008   */\n      dup3\n        /* \"#utility.yul\":4997:5102   */\n      sstore\n        /* \"#utility.yul\":4915:5108   */\n      pop\n        /* \"#utility.yul\":4839:5108   */\n      pop\n      pop\n      pop\n      jump\t// out\n        /* \"#utility.yul\":5114:5187   */\n    tag_103:\n        /* \"#utility.yul\":5159:5162   */\n      0x00\n        /* \"#utility.yul\":5180:5181   */\n      0x00\n        /* \"#utility.yul\":5173:5181   */\n      swap1\n      pop\n        /* \"#utility.yul\":5114:5187   */\n      swap1\n      jump\t// out\n        /* \"#utility.yul\":5193:5382   */\n    tag_104:\n        /* \"#utility.yul\":5270:5302   */\n      tag_194\n      tag_103\n      jump\t// in\n    tag_194:\n        /* \"#utility.yul\":5311:5376   */\n      tag_195\n        /* \"#utility.yul\":5369:5375   */\n      dup2\n        /* \"#utility.yul\":5361:5367   */\n      dup5\n        /* \"#utility.yul\":5355:5359   */\n      dup5\n        /* \"#utility.yul\":5311:5376   */\n      tag_102\n      jump\t// in\n    tag_195:\n        /* \"#utility.yul\":5246:5382   */\n      pop\n        /* \"#utility.yul\":5193:5382   */\n      pop\n      pop\n      jump\t// out\n        /* \"#utility.yul\":5388:5603   */\n    tag_105:\n        /* \"#utility.yul\":5474:5475   */\n      0x00\n        /* \"#utility.yul\":5459:5597   */\n    tag_197:\n        /* \"#utility.yul\":5484:5493   */\n      dup3\n        /* \"#utility.yul\":5481:5482   */\n      dup2\n        /* \"#utility.yul\":5478:5494   */\n      lt\n        /* \"#utility.yul\":5459:5597   */\n      iszero\n      tag_199\n      jumpi\n        /* \"#utility.yul\":5536:5587   */\n      tag_200\n        /* \"#utility.yul\":5585:5586   */\n      0x00\n        /* \"#utility.yul\":5581:5582   */\n      dup3\n        /* \"#utility.yul\":5570:5579   */\n      dup5\n        /* \"#utility.yul\":5566:5583   */\n      add\n        /* \"#utility.yul\":5536:5587   */\n      tag_104\n      jump\t// in\n    tag_200:\n        /* \"#utility.yul\":5509:5510   */\n      0x01\n        /* \"#utility.yul\":5506:5507   */\n      dup2\n        /* \"#utility.yul\":5502:5511   */\n      add\n        /* \"#utility.yul\":5497:5511   */\n      swap1\n      pop\n        /* \"#utility.yul\":5459:5597   */\n      jump(tag_197)\n    tag_199:\n        /* \"#utility.yul\":5463:5477   */\n      pop\n        /* \"#utility.yul\":5388:5603   */\n      pop\n      pop\n      jump\t// out\n        /* \"#utility.yul\":5982:6622   */\n    tag_108:\n        /* \"#utility.yul\":6102:6105   */\n      dup2\n        /* \"#utility.yul\":6090:6100   */\n      dup4\n        /* \"#utility.yul\":6087:6106   */\n      lt\n        /* \"#utility.yul\":6084:6615   */\n      iszero\n      tag_205\n      jumpi\n        /* \"#utility.yul\":6193:6258   */\n      tag_206\n        /* \"#utility.yul\":6254:6257   */\n      dup3\n        /* \"#utility.yul\":6193:6258   */\n      tag_95\n      jump\t// in\n    tag_206:\n        /* \"#utility.yul\":6291:6363   */\n      tag_207\n        /* \"#utility.yul\":6352:6362   */\n      dup5\n        /* \"#utility.yul\":6291:6363   */\n      tag_95\n      jump\t// in\n    tag_207:\n        /* \"#utility.yul\":6398:6451   */\n      tag_208\n        /* \"#utility.yul\":6445:6450   */\n      dup4\n        /* \"#utility.yul\":6398:6451   */\n      tag_96\n      jump\t// in\n    tag_208:\n        /* \"#utility.yul\":6503:6515   */\n      dup2\n        /* \"#utility.yul\":6487:6501   */\n      dup2\n        /* \"#utility.yul\":6483:6516   */\n      add\n        /* \"#utility.yul\":6530:6605   */\n      tag_209\n        /* \"#utility.yul\":6591:6603   */\n      dup4\n        /* \"#utility.yul\":6577:6589   */\n      dup6\n        /* \"#utility.yul\":6573:6604   */\n      sub\n        /* \"#utility.yul\":6560:6571   */\n      dup3\n        /* \"#utility.yul\":6530:6605   */\n      tag_105\n      jump\t// in\n    tag_209:\n        /* \"#utility.yul\":6107:6615   */\n      pop\n      pop\n      pop\n      pop\n        /* \"#utility.yul\":6084:6615   */\n    tag_205:\n        /* \"#utility.yul\":5982:6622   */\n      pop\n      pop\n      pop\n      jump\t// out\n        /* \"#utility.yul\":6628:7016   */\n    tag_109:\n        /* \"#utility.yul\":6721:6741   */\n      0x010000000000000000\n        /* \"#utility.yul\":6713:6719   */\n      dup3\n        /* \"#utility.yul\":6710:6742   */\n      gt\n        /* \"#utility.yul\":6707:6785   */\n      iszero\n      tag_211\n      jumpi\n        /* \"#utility.yul\":6757:6775   */\n      tag_212\n      tag_47\n      jump\t// in\n    tag_212:\n        /* \"#utility.yul\":6707:6785   */\n    tag_211:\n        /* \"#utility.yul\":6809:6860   */\n      tag_213\n        /* \"#utility.yul\":6854:6859   */\n      dup2\n        /* \"#utility.yul\":6809:6860   */\n      tag_92\n      jump\t// in\n    tag_213:\n        /* \"#utility.yul\":6912:6918   */\n      dup3\n        /* \"#utility.yul\":6905:6910   */\n      dup3\n        /* \"#utility.yul\":6898:6919   */\n      sstore\n        /* \"#utility.yul\":6929:7009   */\n      tag_214\n        /* \"#utility.yul\":7002:7008   */\n      dup4\n        /* \"#utility.yul\":6994:7000   */\n      dup3\n        /* \"#utility.yul\":6987:6992   */\n      dup5\n        /* \"#utility.yul\":6929:7009   */\n      tag_108\n      jump\t// in\n    tag_214:\n        /* \"#utility.yul\":6697:7016   */\n      pop\n        /* \"#utility.yul\":6628:7016   */\n      pop\n      pop\n      jump\t// out\n        /* \"#utility.yul\":7021:7135   */\n    tag_110:\n        /* \"#utility.yul\":7088:7094   */\n      0x00\n        /* \"#utility.yul\":7122:7127   */\n      dup2\n        /* \"#utility.yul\":7116:7128   */\n      mload\n        /* \"#utility.yul\":7106:7128   */\n      swap1\n      pop\n        /* \"#utility.yul\":7021:7135   */\n      swap2\n      swap1\n      pop\n      jump\t// out\n        /* \"#utility.yul\":7141:7295   */\n    tag_111:\n        /* \"#utility.yul\":7184:7195   */\n      0x00\n        /* \"#utility.yul\":7220:7249   */\n      tag_217\n        /* \"#utility.yul\":7244:7247   */\n      dup3\n        /* \"#utility.yul\":7238:7248   */\n      mload\n        /* \"#utility.yul\":7220:7249   */\n      tag_86\n      jump\t// in\n    tag_217:\n        /* \"#utility.yul\":7283:7288   */\n      dup1\n        /* \"#utility.yul\":7259:7288   */\n      swap2\n      pop\n        /* \"#utility.yul\":7196:7295   */\n      pop\n        /* \"#utility.yul\":7141:7295   */\n      swap2\n      swap1\n      pop\n      jump\t// out\n        /* \"#utility.yul\":7301:7433   */\n    tag_112:\n        /* \"#utility.yul\":7368:7372   */\n      0x00\n        /* \"#utility.yul\":7391:7394   */\n      dup2\n        /* \"#utility.yul\":7383:7394   */\n      swap1\n      pop\n        /* \"#utility.yul\":7421:7425   */\n      0x20\n        /* \"#utility.yul\":7416:7419   */\n      dup3\n        /* \"#utility.yul\":7412:7426   */\n      add\n        /* \"#utility.yul\":7404:7426   */\n      swap1\n      pop\n        /* \"#utility.yul\":7301:7433   */\n      swap2\n      swap1\n      pop\n      jump\t// out\n        /* \"#utility.yul\":8572:8647   */\n    tag_119:\n        /* \"#utility.yul\":8615:8618   */\n      0x00\n        /* \"#utility.yul\":8636:8641   */\n      dup2\n        /* \"#utility.yul\":8629:8641   */\n      swap1\n      pop\n        /* \"#utility.yul\":8572:8647   */\n      swap2\n      swap1\n      pop\n      jump\t// out\n        /* \"#utility.yul\":8653:9654   */\n    tag_50:\n        /* \"#utility.yul\":8794:8846   */\n      tag_236\n        /* \"#utility.yul\":8842:8845   */\n      dup3\n        /* \"#utility.yul\":8794:8846   */\n      tag_110\n      jump\t// in\n    tag_236:\n        /* \"#utility.yul\":8911:8929   */\n      0xffffffffffffffff\n        /* \"#utility.yul\":8903:8909   */\n      dup2\n        /* \"#utility.yul\":8900:8930   */\n      gt\n        /* \"#utility.yul\":8897:8953   */\n      iszero\n      tag_237\n      jumpi\n        /* \"#utility.yul\":8933:8951   */\n      tag_238\n      tag_47\n      jump\t// in\n    tag_238:\n        /* \"#utility.yul\":8897:8953   */\n    tag_237:\n        /* \"#utility.yul\":8962:9019   */\n      tag_239\n        /* \"#utility.yul\":9012:9018   */\n      dup2\n        /* \"#utility.yul\":9007:9010   */\n      dup4\n        /* \"#utility.yul\":8962:9019   */\n      tag_109\n      jump\t// in\n    tag_239:\n        /* \"#utility.yul\":9043:9097   */\n      tag_240\n        /* \"#utility.yul\":9093:9096   */\n      dup4\n        /* \"#utility.yul\":9043:9097   */\n      tag_112\n      jump\t// in\n    tag_240:\n        /* \"#utility.yul\":9121:9172   */\n      tag_241\n        /* \"#utility.yul\":9168:9171   */\n      dup4\n        /* \"#utility.yul\":9121:9172   */\n      tag_96\n      jump\t// in\n    tag_241:\n        /* \"#utility.yul\":9211:9212   */\n      0x01\n        /* \"#utility.yul\":9203:9209   */\n      dup4\n        /* \"#utility.yul\":9199:9213   */\n      div\n        /* \"#utility.yul\":9238:9239   */\n      0x00\n        /* \"#utility.yul\":9223:9647   */\n    tag_242:\n        /* \"#utility.yul\":9248:9257   */\n      dup2\n        /* \"#utility.yul\":9245:9246   */\n      dup2\n        /* \"#utility.yul\":9242:9258   */\n      lt\n        /* \"#utility.yul\":9223:9647   */\n      iszero\n      tag_244\n      jumpi\n        /* \"#utility.yul\":9312:9313   */\n      0x00\n        /* \"#utility.yul\":9365:9398   */\n      tag_245\n        /* \"#utility.yul\":9391:9397   */\n      dup6\n        /* \"#utility.yul\":9365:9398   */\n      tag_111\n      jump\t// in\n    tag_245:\n        /* \"#utility.yul\":9433:9469   */\n      tag_246\n        /* \"#utility.yul\":9457:9468   */\n      dup2\n        /* \"#utility.yul\":9433:9469   */\n      tag_119\n      jump\t// in\n    tag_246:\n        /* \"#utility.yul\":9519:9528   */\n      dup1\n        /* \"#utility.yul\":9486:9528   */\n      swap3\n      pop\n        /* \"#utility.yul\":9568:9570   */\n      0x20\n        /* \"#utility.yul\":9560:9566   */\n      dup8\n        /* \"#utility.yul\":9556:9571   */\n      add\n        /* \"#utility.yul\":9546:9571   */\n      swap7\n      pop\n        /* \"#utility.yul\":9327:9586   */\n      pop\n      pop\n        /* \"#utility.yul\":9624:9636   */\n      dup1\n        /* \"#utility.yul\":9620:9621   */\n      dup3\n        /* \"#utility.yul\":9611:9618   */\n      dup6\n        /* \"#utility.yul\":9607:9622   */\n      add\n        /* \"#utility.yul\":9600:9637   */\n      sstore\n        /* \"#utility.yul\":9278:9647   */\n      pop\n        /* \"#utility.yul\":9273:9274   */\n      0x01\n        /* \"#utility.yul\":9270:9271   */\n      dup2\n        /* \"#utility.yul\":9266:9275   */\n      add\n        /* \"#utility.yul\":9261:9275   */\n      swap1\n      pop\n        /* \"#utility.yul\":9223:9647   */\n      jump(tag_242)\n    tag_244:\n        /* \"#utility.yul\":9227:9241   */\n      pop\n        /* \"#utility.yul\":8769:9654   */\n      pop\n      pop\n      pop\n      pop\n        /* \"#utility.yul\":8653:9654   */\n      pop\n      pop\n      jump\t// out\n        /* \"#utility.yul\":9660:9829   */\n    tag_120:\n        /* \"#utility.yul\":9744:9755   */\n      0x00\n        /* \"#utility.yul\":9778:9784   */\n      dup3\n        /* \"#utility.yul\":9773:9776   */\n      dup3\n        /* \"#utility.yul\":9766:9785   */\n      mstore\n        /* \"#utility.yul\":9818:9822   */\n      0x20\n        /* \"#utility.yul\":9813:9816   */\n      dup3\n        /* \"#utility.yul\":9809:9823   */\n      add\n        /* \"#utility.yul\":9794:9823   */\n      swap1\n      pop\n        /* \"#utility.yul\":9660:9829   */\n      swap3\n      swap2\n      pop\n      pop\n      jump\t// out\n        /* \"#utility.yul\":9835:9996   */\n    tag_121:\n        /* \"#utility.yul\":9975:9988   */\n      0x53656e64206661696c6564000000000000000000000000000000000000000000\n        /* \"#utility.yul\":9971:9972   */\n      0x00\n        /* \"#utility.yul\":9963:9969   */\n      dup3\n        /* \"#utility.yul\":9959:9973   */\n      add\n        /* \"#utility.yul\":9952:9989   */\n      mstore\n        /* \"#utility.yul\":9835:9996   */\n      pop\n      jump\t// out\n        /* \"#utility.yul\":10002:10368   */\n    tag_122:\n        /* \"#utility.yul\":10144:10147   */\n      0x00\n        /* \"#utility.yul\":10165:10232   */\n      tag_250\n        /* \"#utility.yul\":10229:10231   */\n      0x0b\n        /* \"#utility.yul\":10224:10227   */\n      dup4\n        /* \"#utility.yul\":10165:10232   */\n      tag_120\n      jump\t// in\n    tag_250:\n        /* \"#utility.yul\":10158:10232   */\n      swap2\n      pop\n        /* \"#utility.yul\":10241:10334   */\n      tag_251\n        /* \"#utility.yul\":10330:10333   */\n      dup3\n        /* \"#utility.yul\":10241:10334   */\n      tag_121\n      jump\t// in\n    tag_251:\n        /* \"#utility.yul\":10359:10361   */\n      0x20\n        /* \"#utility.yul\":10354:10357   */\n      dup3\n        /* \"#utility.yul\":10350:10362   */\n      add\n        /* \"#utility.yul\":10343:10362   */\n      swap1\n      pop\n        /* \"#utility.yul\":10002:10368   */\n      swap2\n      swap1\n      pop\n      jump\t// out\n        /* \"#utility.yul\":10374:10793   */\n    tag_56:\n        /* \"#utility.yul\":10540:10544   */\n      0x00\n        /* \"#utility.yul\":10578:10580   */\n      0x20\n        /* \"#utility.yul\":10567:10576   */\n      dup3\n        /* \"#utility.yul\":10563:10581   */\n      add\n        /* \"#utility.yul\":10555:10581   */\n      swap1\n      pop\n        /* \"#utility.yul\":10627:10636   */\n      dup2\n        /* \"#utility.yul\":10621:10625   */\n      dup2\n        /* \"#utility.yul\":10617:10637   */\n      sub\n        /* \"#utility.yul\":10613:10614   */\n      0x00\n        /* \"#utility.yul\":10602:10611   */\n      dup4\n        /* \"#utility.yul\":10598:10615   */\n      add\n        /* \"#utility.yul\":10591:10638   */\n      mstore\n        /* \"#utility.yul\":10655:10786   */\n      tag_253\n        /* \"#utility.yul\":10781:10785   */\n      dup2\n        /* \"#utility.yul\":10655:10786   */\n      tag_122\n      jump\t// in\n    tag_253:\n        /* \"#utility.yul\":10647:10786   */\n      swap1\n      pop\n        /* \"#utility.yul\":10374:10793   */\n      swap2\n      swap1\n      pop\n      jump\t// out\n        /* \"#utility.yul\":10799:10946   */\n    tag_123:\n        /* \"#utility.yul\":10900:10911   */\n      0x00\n        /* \"#utility.yul\":10937:10940   */\n      dup2\n        /* \"#utility.yul\":10922:10940   */\n      swap1\n      pop\n        /* \"#utility.yul\":10799:10946   */\n      swap3\n      swap2\n      pop\n      pop\n      jump\t// out\n        /* \"#utility.yul\":10952:11066   */\n    tag_124:\n      pop\n      jump\t// out\n        /* \"#utility.yul\":11072:11470   */\n    tag_125:\n        /* \"#utility.yul\":11231:11234   */\n      0x00\n        /* \"#utility.yul\":11252:11335   */\n      tag_257\n        /* \"#utility.yul\":11333:11334   */\n      0x00\n        /* \"#utility.yul\":11328:11331   */\n      dup4\n        /* \"#utility.yul\":11252:11335   */\n      tag_123\n      jump\t// in\n    tag_257:\n        /* \"#utility.yul\":11245:11335   */\n      swap2\n      pop\n        /* \"#utility.yul\":11344:11437   */\n      tag_258\n        /* \"#utility.yul\":11433:11436   */\n      dup3\n        /* \"#utility.yul\":11344:11437   */\n      tag_124\n      jump\t// in\n    tag_258:\n        /* \"#utility.yul\":11462:11463   */\n      0x00\n        /* \"#utility.yul\":11457:11460   */\n      dup3\n        /* \"#utility.yul\":11453:11464   */\n      add\n        /* \"#utility.yul\":11446:11464   */\n      swap1\n      pop\n        /* \"#utility.yul\":11072:11470   */\n      swap2\n      swap1\n      pop\n      jump\t// out\n        /* \"#utility.yul\":11476:11855   */\n    tag_58:\n        /* \"#utility.yul\":11660:11663   */\n      0x00\n        /* \"#utility.yul\":11682:11829   */\n      tag_260\n        /* \"#utility.yul\":11825:11828   */\n      dup3\n        /* \"#utility.yul\":11682:11829   */\n      tag_125\n      jump\t// in\n    tag_260:\n        /* \"#utility.yul\":11675:11829   */\n      swap2\n      pop\n        /* \"#utility.yul\":11846:11849   */\n      dup2\n        /* \"#utility.yul\":11839:11849   */\n      swap1\n      pop\n        /* \"#utility.yul\":11476:11855   */\n      swap2\n      swap1\n      pop\n      jump\t// out\n        /* \"#utility.yul\":11861:12022   */\n    tag_126:\n        /* \"#utility.yul\":12001:12014   */\n      0x43616c6c206661696c6564000000000000000000000000000000000000000000\n        /* \"#utility.yul\":11997:11998   */\n      0x00\n        /* \"#utility.yul\":11989:11995   */\n      dup3\n        /* \"#utility.yul\":11985:11999   */\n      add\n        /* \"#utility.yul\":11978:12015   */\n      mstore\n        /* \"#utility.yul\":11861:12022   */\n      pop\n      jump\t// out\n        /* \"#utility.yul\":12028:12394   */\n    tag_127:\n        /* \"#utility.yul\":12170:12173   */\n      0x00\n        /* \"#utility.yul\":12191:12258   */\n      tag_263\n        /* \"#utility.yul\":12255:12257   */\n      0x0b\n        /* \"#utility.yul\":12250:12253   */\n      dup4\n        /* \"#utility.yul\":12191:12258   */\n      tag_120\n      jump\t// in\n    tag_263:\n        /* \"#utility.yul\":12184:12258   */\n      swap2\n      pop\n        /* \"#utility.yul\":12267:12360   */\n      tag_264\n        /* \"#utility.yul\":12356:12359   */\n      dup3\n        /* \"#utility.yul\":12267:12360   */\n      tag_126\n      jump\t// in\n    tag_264:\n        /* \"#utility.yul\":12385:12387   */\n      0x20\n        /* \"#utility.yul\":12380:12383   */\n      dup3\n        /* \"#utility.yul\":12376:12388   */\n      add\n        /* \"#utility.yul\":12369:12388   */\n      swap1\n      pop\n        /* \"#utility.yul\":12028:12394   */\n      swap2\n      swap1\n      pop\n      jump\t// out\n        /* \"#utility.yul\":12400:12819   */\n    tag_64:\n        /* \"#utility.yul\":12566:12570   */\n      0x00\n        /* \"#utility.yul\":12604:12606   */\n      0x20\n        /* \"#utility.yul\":12593:12602   */\n      dup3\n        /* \"#utility.yul\":12589:12607   */\n      add\n        /* \"#utility.yul\":12581:12607   */\n      swap1\n      pop\n        /* \"#utility.yul\":12653:12662   */\n      dup2\n        /* \"#utility.yul\":12647:12651   */\n      dup2\n        /* \"#utility.yul\":12643:12663   */\n      sub\n        /* \"#utility.yul\":12639:12640   */\n      0x00\n        /* \"#utility.yul\":12628:12637   */\n      dup4\n        /* \"#utility.yul\":12624:12641   */\n      add\n        /* \"#utility.yul\":12617:12664   */\n      mstore\n        /* \"#utility.yul\":12681:12812   */\n      tag_266\n        /* \"#utility.yul\":12807:12811   */\n      dup2\n        /* \"#utility.yul\":12681:12812   */\n      tag_127\n      jump\t// in\n    tag_266:\n        /* \"#utility.yul\":12673:12812   */\n      swap1\n      pop\n        /* \"#utility.yul\":12400:12819   */\n      swap2\n      swap1\n      pop\n      jump\t// out\n        /* \"#utility.yul\":12825:12951   */\n    tag_128:\n        /* \"#utility.yul\":12920:12944   */\n      tag_268\n        /* \"#utility.yul\":12938:12943   */\n      dup2\n        /* \"#utility.yul\":12920:12944   */\n      tag_80\n      jump\t// in\n    tag_268:\n        /* \"#utility.yul\":12915:12918   */\n      dup3\n        /* \"#utility.yul\":12908:12945   */\n      mstore\n        /* \"#utility.yul\":12825:12951   */\n      pop\n      pop\n      jump\t// out\n        /* \"#utility.yul\":12957:13195   */\n    tag_67:\n        /* \"#utility.yul\":13058:13062   */\n      0x00\n        /* \"#utility.yul\":13096:13098   */\n      0x20\n        /* \"#utility.yul\":13085:13094   */\n      dup3\n        /* \"#utility.yul\":13081:13099   */\n      add\n        /* \"#utility.yul\":13073:13099   */\n      swap1\n      pop\n        /* \"#utility.yul\":13109:13188   */\n      tag_270\n        /* \"#utility.yul\":13185:13186   */\n      0x00\n        /* \"#utility.yul\":13174:13183   */\n      dup4\n        /* \"#utility.yul\":13170:13187   */\n      add\n        /* \"#utility.yul\":13161:13167   */\n      dup5\n        /* \"#utility.yul\":13109:13188   */\n      tag_128\n      jump\t// in\n    tag_270:\n        /* \"#utility.yul\":12957:13195   */\n      swap3\n      swap2\n      pop\n      pop\n      jump\t// out\n        /* \"#utility.yul\":13201:13344   */\n    tag_129:\n        /* \"#utility.yul\":13258:13263   */\n      0x00\n        /* \"#utility.yul\":13289:13295   */\n      dup2\n        /* \"#utility.yul\":13283:13296   */\n      mload\n        /* \"#utility.yul\":13274:13296   */\n      swap1\n      pop\n        /* \"#utility.yul\":13305:13338   */\n      tag_272\n        /* \"#utility.yul\":13332:13337   */\n      dup2\n        /* \"#utility.yul\":13305:13338   */\n      tag_90\n      jump\t// in\n    tag_272:\n        /* \"#utility.yul\":13201:13344   */\n      swap3\n      swap2\n      pop\n      pop\n      jump\t// out\n        /* \"#utility.yul\":13350:13701   */\n    tag_71:\n        /* \"#utility.yul\":13420:13426   */\n      0x00\n        /* \"#utility.yul\":13469:13471   */\n      0x20\n        /* \"#utility.yul\":13457:13466   */\n      dup3\n        /* \"#utility.yul\":13448:13455   */\n      dup5\n        /* \"#utility.yul\":13444:13467   */\n      sub\n        /* \"#utility.yul\":13440:13472   */\n      slt\n        /* \"#utility.yul\":13437:13556   */\n      iszero\n      tag_274\n      jumpi\n        /* \"#utility.yul\":13475:13554   */\n      tag_275\n      tag_83\n      jump\t// in\n    tag_275:\n        /* \"#utility.yul\":13437:13556   */\n    tag_274:\n        /* \"#utility.yul\":13595:13596   */\n      0x00\n        /* \"#utility.yul\":13620:13684   */\n      tag_276\n        /* \"#utility.yul\":13676:13683   */\n      dup5\n        /* \"#utility.yul\":13667:13673   */\n      dup3\n        /* \"#utility.yul\":13656:13665   */\n      dup6\n        /* \"#utility.yul\":13652:13674   */\n      add\n        /* \"#utility.yul\":13620:13684   */\n      tag_129\n      jump\t// in\n    tag_276:\n        /* \"#utility.yul\":13610:13684   */\n      swap2\n      pop\n        /* \"#utility.yul\":13566:13694   */\n      pop\n        /* \"#utility.yul\":13350:13701   */\n      swap3\n      swap2\n      pop\n      pop\n      jump\t// out\n        /* \"#utility.yul\":13707:13927   */\n    tag_130:\n        /* \"#utility.yul\":13847:13881   */\n      0x416d6f756e74206d7573742062652067726561746572207468656e2031206574\n        /* \"#utility.yul\":13843:13844   */\n      0x00\n        /* \"#utility.yul\":13835:13841   */\n      dup3\n        /* \"#utility.yul\":13831:13845   */\n      add\n        /* \"#utility.yul\":13824:13882   */\n      mstore\n        /* \"#utility.yul\":13916:13919   */\n      0x6800000000000000000000000000000000000000000000000000000000000000\n        /* \"#utility.yul\":13911:13913   */\n      0x20\n        /* \"#utility.yul\":13903:13909   */\n      dup3\n        /* \"#utility.yul\":13899:13914   */\n      add\n        /* \"#utility.yul\":13892:13920   */\n      mstore\n        /* \"#utility.yul\":13707:13927   */\n      pop\n      jump\t// out\n        /* \"#utility.yul\":13933:14299   */\n    tag_131:\n        /* \"#utility.yul\":14075:14078   */\n      0x00\n        /* \"#utility.yul\":14096:14163   */\n      tag_279\n        /* \"#utility.yul\":14160:14162   */\n      0x21\n        /* \"#utility.yul\":14155:14158   */\n      dup4\n        /* \"#utility.yul\":14096:14163   */\n      tag_120\n      jump\t// in\n    tag_279:\n        /* \"#utility.yul\":14089:14163   */\n      swap2\n      pop\n        /* \"#utility.yul\":14172:14265   */\n      tag_280\n        /* \"#utility.yul\":14261:14264   */\n      dup3\n        /* \"#utility.yul\":14172:14265   */\n      tag_130\n      jump\t// in\n    tag_280:\n        /* \"#utility.yul\":14290:14292   */\n      0x40\n        /* \"#utility.yul\":14285:14288   */\n      dup3\n        /* \"#utility.yul\":14281:14293   */\n      add\n        /* \"#utility.yul\":14274:14293   */\n      swap1\n      pop\n        /* \"#utility.yul\":13933:14299   */\n      swap2\n      swap1\n      pop\n      jump\t// out\n        /* \"#utility.yul\":14305:14724   */\n    tag_74:\n        /* \"#utility.yul\":14471:14475   */\n      0x00\n        /* \"#utility.yul\":14509:14511   */\n      0x20\n        /* \"#utility.yul\":14498:14507   */\n      dup3\n        /* \"#utility.yul\":14494:14512   */\n      add\n        /* \"#utility.yul\":14486:14512   */\n      swap1\n      pop\n        /* \"#utility.yul\":14558:14567   */\n      dup2\n        /* \"#utility.yul\":14552:14556   */\n      dup2\n        /* \"#utility.yul\":14548:14568   */\n      sub\n        /* \"#utility.yul\":14544:14545   */\n      0x00\n        /* \"#utility.yul\":14533:14542   */\n      dup4\n        /* \"#utility.yul\":14529:14546   */\n      add\n        /* \"#utility.yul\":14522:14569   */\n      mstore\n        /* \"#utility.yul\":14586:14717   */\n      tag_282\n        /* \"#utility.yul\":14712:14716   */\n      dup2\n        /* \"#utility.yul\":14586:14717   */\n      tag_131\n      jump\t// in\n    tag_282:\n        /* \"#utility.yul\":14578:14717   */\n      swap1\n      pop\n        /* \"#utility.yul\":14305:14724   */\n      swap2\n      swap1\n      pop\n      jump\t// out\n        /* \"#utility.yul\":14730:14921   */\n    tag_77:\n        /* \"#utility.yul\":14770:14773   */\n      0x00\n        /* \"#utility.yul\":14789:14809   */\n      tag_284\n        /* \"#utility.yul\":14807:14808   */\n      dup3\n        /* \"#utility.yul\":14789:14809   */\n      tag_80\n      jump\t// in\n    tag_284:\n        /* \"#utility.yul\":14784:14809   */\n      swap2\n      pop\n        /* \"#utility.yul\":14823:14843   */\n      tag_285\n        /* \"#utility.yul\":14841:14842   */\n      dup4\n        /* \"#utility.yul\":14823:14843   */\n      tag_80\n      jump\t// in\n    tag_285:\n        /* \"#utility.yul\":14818:14843   */\n      swap3\n      pop\n        /* \"#utility.yul\":14866:14867   */\n      dup3\n        /* \"#utility.yul\":14863:14864   */\n      dup3\n        /* \"#utility.yul\":14859:14868   */\n      add\n        /* \"#utility.yul\":14852:14868   */\n      swap1\n      pop\n        /* \"#utility.yul\":14887:14890   */\n      dup1\n        /* \"#utility.yul\":14884:14885   */\n      dup3\n        /* \"#utility.yul\":14881:14891   */\n      gt\n        /* \"#utility.yul\":14878:14914   */\n      iszero\n      tag_286\n      jumpi\n        /* \"#utility.yul\":14894:14912   */\n      tag_287\n      tag_93\n      jump\t// in\n    tag_287:\n        /* \"#utility.yul\":14878:14914   */\n    tag_286:\n        /* \"#utility.yul\":14730:14921   */\n      swap3\n      swap2\n      pop\n      pop\n      jump\t// out\n\n    auxdata: 0xa264697066735822122018428b45f06ba314fa2943401445edbbf3fd9a9943c06499896ade627355c1be64736f6c63430008210033\n}\n",
				"bytecode": {
					"linkReferences": {
						"Contract/PriceConvertor.sol": {
							"PriceConvertor": [
								{
									"length": 20,
									"start": 1206
								}
							]
						}
					},
					"object": "60a0604052348015600e575f5ffd5b503373ffffffffffffffffffffffffffffffffffffffff1660808173ffffffffffffffffffffffffffffffffffffffff1681525050608051610ce66100625f395f818161014601526105f70152610ce65ff3fe608060405260043610610054575f3560e01c80630fdb1c10146100585780636b69a5921461006e578063a0a6800f14610098578063b60d4288146100d4578063dba6335f146100de578063dc0d3dff14610108575b5f5ffd5b348015610063575f5ffd5b5061006c610144565b005b348015610079575f5ffd5b50610082610427565b60405161008f919061066b565b60405180910390f35b3480156100a3575f5ffd5b506100be60048036038101906100b991906106e2565b610433565b6040516100cb919061066b565b60405180910390f35b6100dc610448565b005b3480156100e9575f5ffd5b506100f26105f5565b6040516100ff919061071c565b60405180910390f35b348015610113575f5ffd5b5061012e6004803603810190610129919061075f565b610619565b60405161013b919061071c565b60405180910390f35b7f000000000000000000000000000000000000000000000000000000000000000073ffffffffffffffffffffffffffffffffffffffff163373ffffffffffffffffffffffffffffffffffffffff16146101c9576040517f82b4290000000000000000000000000000000000000000000000000000000000815260040160405180910390fd5b5f5f90505b5f80549050811015610268575f5f82815481106101ee576101ed61078a565b5b905f5260205f20015f9054906101000a900473ffffffffffffffffffffffffffffffffffffffff1690505f60015f8373ffffffffffffffffffffffffffffffffffffffff1673ffffffffffffffffffffffffffffffffffffffff1681526020019081526020015f20819055505080806001019150506101ce565b505f67ffffffffffffffff811115610283576102826107b7565b5b6040519080825280602002602001820160405280156102b15781602001602082028036833780820191505090505b505f90816102bf91906109e3565b503373ffffffffffffffffffffffffffffffffffffffff166108fc4790811502906040515f60405180830381858888f19350505050158015610303573d5f5f3e3d5ffd5b505f3373ffffffffffffffffffffffffffffffffffffffff166108fc4790811502906040515f60405180830381858888f1935050505090508061037b576040517f08c379a000000000000000000000000000000000000000000000000000000000815260040161037290610ac1565b60405180910390fd5b5f3373ffffffffffffffffffffffffffffffffffffffff16476040516103a090610b0c565b5f6040518083038185875af1925050503d805f81146103da576040519150601f19603f3d011682016040523d82523d5f602084013e6103df565b606091505b5050905080610423576040517f08c379a000000000000000000000000000000000000000000000000000000000815260040161041a90610b6a565b60405180910390fd5b5050565b674563918244f4000081565b6001602052805f5260405f205f915090505481565b674563918244f400003473__$12c6e211796fb1a0b7deb2980c9fd1040f$__636e5b6b2890916040518263ffffffff1660e01b815260040161048a9190610b97565b602060405180830381865af41580156104a5573d5f5f3e3d5ffd5b505050506040513d601f19601f820116820180604052508101906104c99190610bc4565b101561050a576040517f08c379a000000000000000000000000000000000000000000000000000000000815260040161050190610c5f565b60405180910390fd5b5f33908060018154018082558091505060019003905f5260205f20015f9091909190916101000a81548173ffffffffffffffffffffffffffffffffffffffff021916908373ffffffffffffffffffffffffffffffffffffffff1602179055503460015f3373ffffffffffffffffffffffffffffffffffffffff1673ffffffffffffffffffffffffffffffffffffffff1681526020019081526020015f20546105b29190610c7d565b60015f3373ffffffffffffffffffffffffffffffffffffffff1673ffffffffffffffffffffffffffffffffffffffff1681526020019081526020015f2081905550565b7f000000000000000000000000000000000000000000000000000000000000000081565b5f8181548110610627575f80fd5b905f5260205f20015f915054906101000a900473ffffffffffffffffffffffffffffffffffffffff1681565b5f819050919050565b61066581610653565b82525050565b5f60208201905061067e5f83018461065c565b92915050565b5f5ffd5b5f73ffffffffffffffffffffffffffffffffffffffff82169050919050565b5f6106b182610688565b9050919050565b6106c1816106a7565b81146106cb575f5ffd5b50565b5f813590506106dc816106b8565b92915050565b5f602082840312156106f7576106f6610684565b5b5f610704848285016106ce565b91505092915050565b610716816106a7565b82525050565b5f60208201905061072f5f83018461070d565b92915050565b61073e81610653565b8114610748575f5ffd5b50565b5f8135905061075981610735565b92915050565b5f6020828403121561077457610773610684565b5b5f6107818482850161074b565b91505092915050565b7f4e487b71000000000000000000000000000000000000000000000000000000005f52603260045260245ffd5b7f4e487b71000000000000000000000000000000000000000000000000000000005f52604160045260245ffd5b5f81549050919050565b7f4e487b71000000000000000000000000000000000000000000000000000000005f52601160045260245ffd5b5f8190506001806001038301049050919050565b5f819050815f5260205f209050919050565b5f82821b905092915050565b5f6008830261087c7fffffffffffffffffffffffffffffffffffffffffffffffffffffffffffffffff82610841565b6108868683610841565b95508019841693508086168417925050509392505050565b5f819050919050565b5f6108c16108bc6108b784610653565b61089e565b610653565b9050919050565b5f819050919050565b6108da836108a7565b6108ee6108e6826108c8565b84845461084d565b825550505050565b5f5f905090565b6109056108f6565b6109108184846108d1565b505050565b5f5b828110156109365761092b5f8284016108fd565b600181019050610917565b505050565b818310156109725761094c8261081b565b6109558461081b565b61095e8361082f565b81810161096d83850382610915565b505050505b505050565b68010000000000000000821115610991576109906107b7565b5b61099a816107e4565b8282556109a883828461093b565b505050565b5f81519050919050565b5f6109c282516106a7565b80915050919050565b5f819050602082019050919050565b5f819050919050565b6109ec826109ad565b67ffffffffffffffff811115610a0557610a046107b7565b5b610a0f8183610977565b610a18836109cb565b610a218361082f565b600183045f5b81811015610a5e575f610a39856109b7565b610a42816109da565b8092506020870196505050808285015550600181019050610a27565b50505050505050565b5f82825260208201905092915050565b7f53656e64206661696c65640000000000000000000000000000000000000000005f82015250565b5f610aab600b83610a67565b9150610ab682610a77565b602082019050919050565b5f6020820190508181035f830152610ad881610a9f565b9050919050565b5f81905092915050565b50565b5f610af75f83610adf565b9150610b0282610ae9565b5f82019050919050565b5f610b1682610aec565b9150819050919050565b7f43616c6c206661696c65640000000000000000000000000000000000000000005f82015250565b5f610b54600b83610a67565b9150610b5f82610b20565b602082019050919050565b5f6020820190508181035f830152610b8181610b48565b9050919050565b610b9181610653565b82525050565b5f602082019050610baa5f830184610b88565b92915050565b5f81519050610bbe81610735565b92915050565b5f60208284031215610bd957610bd8610684565b5b5f610be684828501610bb0565b91505092915050565b7f416d6f756e74206d7573742062652067726561746572207468656e20312065745f8201527f6800000000000000000000000000000000000000000000000000000000000000602082015250565b5f610c49602183610a67565b9150610c5482610bef565b604082019050919050565b5f6020820190508181035f830152610c7681610c3d565b9050919050565b5f610c8782610653565b9150610c9283610653565b9250828201905080821115610caa57610ca96107ee565b5b9291505056fea264697066735822122018428b45f06ba314fa2943401445edbbf3fd9a9943c06499896ade627355c1be64736f6c63430008210033",
					"opcodes": "PUSH1 0xA0 PUSH1 0x40 MSTORE CALLVALUE DUP1 ISZERO PUSH1 0xE JUMPI PUSH0 PUSH0 REVERT JUMPDEST POP CALLER PUSH20 0xFFFFFFFFFFFFFFFFFFFFFFFFFFFFFFFFFFFFFFFF AND PUSH1 0x80 DUP2 PUSH20 0xFFFFFFFFFFFFFFFFFFFFFFFFFFFFFFFFFFFFFFFF AND DUP2 MSTORE POP POP PUSH1 0x80 MLOAD PUSH2 0xCE6 PUSH2 0x62 PUSH0 CODECOPY PUSH0 DUP2 DUP2 PUSH2 0x146 ADD MSTORE PUSH2 0x5F7 ADD MSTORE PUSH2 0xCE6 PUSH0 RETURN INVALID PUSH1 0x80 PUSH1 0x40 MSTORE PUSH1 0x4 CALLDATASIZE LT PUSH2 0x54 JUMPI PUSH0 CALLDATALOAD PUSH1 0xE0 SHR DUP1 PUSH4 0xFDB1C10 EQ PUSH2 0x58 JUMPI DUP1 PUSH4 0x6B69A592 EQ PUSH2 0x6E JUMPI DUP1 PUSH4 0xA0A6800F EQ PUSH2 0x98 JUMPI DUP1 PUSH4 0xB60D4288 EQ PUSH2 0xD4 JUMPI DUP1 PUSH4 0xDBA6335F EQ PUSH2 0xDE JUMPI DUP1 PUSH4 0xDC0D3DFF EQ PUSH2 0x108 JUMPI JUMPDEST PUSH0 PUSH0 REVERT JUMPDEST CALLVALUE DUP1 ISZERO PUSH2 0x63 JUMPI PUSH0 PUSH0 REVERT JUMPDEST POP PUSH2 0x6C PUSH2 0x144 JUMP JUMPDEST STOP JUMPDEST CALLVALUE DUP1 ISZERO PUSH2 0x79 JUMPI PUSH0 PUSH0 REVERT JUMPDEST POP PUSH2 0x82 PUSH2 0x427 JUMP JUMPDEST PUSH1 0x40 MLOAD PUSH2 0x8F SWAP2 SWAP1 PUSH2 0x66B JUMP JUMPDEST PUSH1 0x40 MLOAD DUP1 SWAP2 SUB SWAP1 RETURN JUMPDEST CALLVALUE DUP1 ISZERO PUSH2 0xA3 JUMPI PUSH0 PUSH0 REVERT JUMPDEST POP PUSH2 0xBE PUSH1 0x4 DUP1 CALLDATASIZE SUB DUP2 ADD SWAP1 PUSH2 0xB9 SWAP2 SWAP1 PUSH2 0x6E2 JUMP JUMPDEST PUSH2 0x433 JUMP JUMPDEST PUSH1 0x40 MLOAD PUSH2 0xCB SWAP2 SWAP1 PUSH2 0x66B JUMP JUMPDEST PUSH1 0x40 MLOAD DUP1 SWAP2 SUB SWAP1 RETURN JUMPDEST PUSH2 0xDC PUSH2 0x448 JUMP JUMPDEST STOP JUMPDEST CALLVALUE DUP1 ISZERO PUSH2 0xE9 JUMPI PUSH0 PUSH0 REVERT JUMPDEST POP PUSH2 0xF2 PUSH2 0x5F5 JUMP JUMPDEST PUSH1 0x40 MLOAD PUSH2 0xFF SWAP2 SWAP1 PUSH2 0x71C JUMP JUMPDEST PUSH1 0x40 MLOAD DUP1 SWAP2 SUB SWAP1 RETURN JUMPDEST CALLVALUE DUP1 ISZERO PUSH2 0x113 JUMPI PUSH0 PUSH0 REVERT JUMPDEST POP PUSH2 0x12E PUSH1 0x4 DUP1 CALLDATASIZE SUB DUP2 ADD SWAP1 PUSH2 0x129 SWAP2 SWAP1 PUSH2 0x75F JUMP JUMPDEST PUSH2 0x619 JUMP JUMPDEST PUSH1 0x40 MLOAD PUSH2 0x13B SWAP2 SWAP1 PUSH2 0x71C JUMP JUMPDEST PUSH1 0x40 MLOAD DUP1 SWAP2 SUB SWAP1 RETURN JUMPDEST PUSH32 0x0 PUSH20 0xFFFFFFFFFFFFFFFFFFFFFFFFFFFFFFFFFFFFFFFF AND CALLER PUSH20 0xFFFFFFFFFFFFFFFFFFFFFFFFFFFFFFFFFFFFFFFF AND EQ PUSH2 0x1C9 JUMPI PUSH1 0x40 MLOAD PUSH32 0x82B4290000000000000000000000000000000000000000000000000000000000 DUP2 MSTORE PUSH1 0x4 ADD PUSH1 0x40 MLOAD DUP1 SWAP2 SUB SWAP1 REVERT JUMPDEST PUSH0 PUSH0 SWAP1 POP JUMPDEST PUSH0 DUP1 SLOAD SWAP1 POP DUP2 LT ISZERO PUSH2 0x268 JUMPI PUSH0 PUSH0 DUP3 DUP2 SLOAD DUP2 LT PUSH2 0x1EE JUMPI PUSH2 0x1ED PUSH2 0x78A JUMP JUMPDEST JUMPDEST SWAP1 PUSH0 MSTORE PUSH1 0x20 PUSH0 KECCAK256 ADD PUSH0 SWAP1 SLOAD SWAP1 PUSH2 0x100 EXP SWAP1 DIV PUSH20 0xFFFFFFFFFFFFFFFFFFFFFFFFFFFFFFFFFFFFFFFF AND SWAP1 POP PUSH0 PUSH1 0x1 PUSH0 DUP4 PUSH20 0xFFFFFFFFFFFFFFFFFFFFFFFFFFFFFFFFFFFFFFFF AND PUSH20 0xFFFFFFFFFFFFFFFFFFFFFFFFFFFFFFFFFFFFFFFF AND DUP2 MSTORE PUSH1 0x20 ADD SWAP1 DUP2 MSTORE PUSH1 0x20 ADD PUSH0 KECCAK256 DUP2 SWAP1 SSTORE POP POP DUP1 DUP1 PUSH1 0x1 ADD SWAP2 POP POP PUSH2 0x1CE JUMP JUMPDEST POP PUSH0 PUSH8 0xFFFFFFFFFFFFFFFF DUP2 GT ISZERO PUSH2 0x283 JUMPI PUSH2 0x282 PUSH2 0x7B7 JUMP JUMPDEST JUMPDEST PUSH1 0x40 MLOAD SWAP1 DUP1 DUP3 MSTORE DUP1 PUSH1 0x20 MUL PUSH1 0x20 ADD DUP3 ADD PUSH1 0x40 MSTORE DUP1 ISZERO PUSH2 0x2B1 JUMPI DUP2 PUSH1 0x20 ADD PUSH1 0x20 DUP3 MUL DUP1 CALLDATASIZE DUP4 CALLDATACOPY DUP1 DUP3 ADD SWAP2 POP POP SWAP1 POP JUMPDEST POP PUSH0 SWAP1 DUP2 PUSH2 0x2BF SWAP2 SWAP1 PUSH2 0x9E3 JUMP JUMPDEST POP CALLER PUSH20 0xFFFFFFFFFFFFFFFFFFFFFFFFFFFFFFFFFFFFFFFF AND PUSH2 0x8FC SELFBALANCE SWAP1 DUP2 ISZERO MUL SWAP1 PUSH1 0x40 MLOAD PUSH0 PUSH1 0x40 MLOAD DUP1 DUP4 SUB DUP2 DUP6 DUP9 DUP9 CALL SWAP4 POP POP POP POP ISZERO DUP1 ISZERO PUSH2 0x303 JUMPI RETURNDATASIZE PUSH0 PUSH0 RETURNDATACOPY RETURNDATASIZE PUSH0 REVERT JUMPDEST POP PUSH0 CALLER PUSH20 0xFFFFFFFFFFFFFFFFFFFFFFFFFFFFFFFFFFFFFFFF AND PUSH2 0x8FC SELFBALANCE SWAP1 DUP2 ISZERO MUL SWAP1 PUSH1 0x40 MLOAD PUSH0 PUSH1 0x40 MLOAD DUP1 DUP4 SUB DUP2 DUP6 DUP9 DUP9 CALL SWAP4 POP POP POP POP SWAP1 POP DUP1 PUSH2 0x37B JUMPI PUSH1 0x40 MLOAD PUSH32 0x8C379A000000000000000000000000000000000000000000000000000000000 DUP2 MSTORE PUSH1 0x4 ADD PUSH2 0x372 SWAP1 PUSH2 0xAC1 JUMP JUMPDEST PUSH1 0x40 MLOAD DUP1 SWAP2 SUB SWAP1 REVERT JUMPDEST PUSH0 CALLER PUSH20 0xFFFFFFFFFFFFFFFFFFFFFFFFFFFFFFFFFFFFFFFF AND SELFBALANCE PUSH1 0x40 MLOAD PUSH2 0x3A0 SWAP1 PUSH2 0xB0C JUMP JUMPDEST PUSH0 PUSH1 0x40 MLOAD DUP1 DUP4 SUB DUP2 DUP6 DUP8 GAS CALL SWAP3 POP POP POP RETURNDATASIZE DUP1 PUSH0 DUP2 EQ PUSH2 0x3DA JUMPI PUSH1 0x40 MLOAD SWAP2 POP PUSH1 0x1F NOT PUSH1 0x3F RETURNDATASIZE ADD AND DUP3 ADD PUSH1 0x40 MSTORE RETURNDATASIZE DUP3 MSTORE RETURNDATASIZE PUSH0 PUSH1 0x20 DUP5 ADD RETURNDATACOPY PUSH2 0x3DF JUMP JUMPDEST PUSH1 0x60 SWAP2 POP JUMPDEST POP POP SWAP1 POP DUP1 PUSH2 0x423 JUMPI PUSH1 0x40 MLOAD PUSH32 0x8C379A000000000000000000000000000000000000000000000000000000000 DUP2 MSTORE PUSH1 0x4 ADD PUSH2 0x41A SWAP1 PUSH2 0xB6A JUMP JUMPDEST PUSH1 0x40 MLOAD DUP1 SWAP2 SUB SWAP1 REVERT JUMPDEST POP POP JUMP JUMPDEST PUSH8 0x4563918244F40000 DUP2 JUMP JUMPDEST PUSH1 0x1 PUSH1 0x20 MSTORE DUP1 PUSH0 MSTORE PUSH1 0x40 PUSH0 KECCAK256 PUSH0 SWAP2 POP SWAP1 POP SLOAD DUP2 JUMP JUMPDEST PUSH8 0x4563918244F40000 CALLVALUE PUSH20 0x0 PUSH4 0x6E5B6B28 SWAP1 SWAP2 PUSH1 0x40 MLOAD DUP3 PUSH4 0xFFFFFFFF AND PUSH1 0xE0 SHL DUP2 MSTORE PUSH1 0x4 ADD PUSH2 0x48A SWAP2 SWAP1 PUSH2 0xB97 JUMP JUMPDEST PUSH1 0x20 PUSH1 0x40 MLOAD DUP1 DUP4 SUB DUP2 DUP7 GAS DELEGATECALL ISZERO DUP1 ISZERO PUSH2 0x4A5 JUMPI RETURNDATASIZE PUSH0 PUSH0 RETURNDATACOPY RETURNDATASIZE PUSH0 REVERT JUMPDEST POP POP POP POP PUSH1 0x40 MLOAD RETURNDATASIZE PUSH1 0x1F NOT PUSH1 0x1F DUP3 ADD AND DUP3 ADD DUP1 PUSH1 0x40 MSTORE POP DUP2 ADD SWAP1 PUSH2 0x4C9 SWAP2 SWAP1 PUSH2 0xBC4 JUMP JUMPDEST LT ISZERO PUSH2 0x50A JUMPI PUSH1 0x40 MLOAD PUSH32 0x8C379A000000000000000000000000000000000000000000000000000000000 DUP2 MSTORE PUSH1 0x4 ADD PUSH2 0x501 SWAP1 PUSH2 0xC5F JUMP JUMPDEST PUSH1 0x40 MLOAD DUP1 SWAP2 SUB SWAP1 REVERT JUMPDEST PUSH0 CALLER SWAP1 DUP1 PUSH1 0x1 DUP2 SLOAD ADD DUP1 DUP3 SSTORE DUP1 SWAP2 POP POP PUSH1 0x1 SWAP1 SUB SWAP1 PUSH0 MSTORE PUSH1 0x20 PUSH0 KECCAK256 ADD PUSH0 SWAP1 SWAP2 SWAP1 SWAP2 SWAP1 SWAP2 PUSH2 0x100 EXP DUP2 SLOAD DUP2 PUSH20 0xFFFFFFFFFFFFFFFFFFFFFFFFFFFFFFFFFFFFFFFF MUL NOT AND SWAP1 DUP4 PUSH20 0xFFFFFFFFFFFFFFFFFFFFFFFFFFFFFFFFFFFFFFFF AND MUL OR SWAP1 SSTORE POP CALLVALUE PUSH1 0x1 PUSH0 CALLER PUSH20 0xFFFFFFFFFFFFFFFFFFFFFFFFFFFFFFFFFFFFFFFF AND PUSH20 0xFFFFFFFFFFFFFFFFFFFFFFFFFFFFFFFFFFFFFFFF AND DUP2 MSTORE PUSH1 0x20 ADD SWAP1 DUP2 MSTORE PUSH1 0x20 ADD PUSH0 KECCAK256 SLOAD PUSH2 0x5B2 SWAP2 SWAP1 PUSH2 0xC7D JUMP JUMPDEST PUSH1 0x1 PUSH0 CALLER PUSH20 0xFFFFFFFFFFFFFFFFFFFFFFFFFFFFFFFFFFFFFFFF AND PUSH20 0xFFFFFFFFFFFFFFFFFFFFFFFFFFFFFFFFFFFFFFFF AND DUP2 MSTORE PUSH1 0x20 ADD SWAP1 DUP2 MSTORE PUSH1 0x20 ADD PUSH0 KECCAK256 DUP2 SWAP1 SSTORE POP JUMP JUMPDEST PUSH32 0x0 DUP2 JUMP JUMPDEST PUSH0 DUP2 DUP2 SLOAD DUP2 LT PUSH2 0x627 JUMPI PUSH0 DUP1 REVERT JUMPDEST SWAP1 PUSH0 MSTORE PUSH1 0x20 PUSH0 KECCAK256 ADD PUSH0 SWAP2 POP SLOAD SWAP1 PUSH2 0x100 EXP SWAP1 DIV PUSH20 0xFFFFFFFFFFFFFFFFFFFFFFFFFFFFFFFFFFFFFFFF AND DUP2 JUMP JUMPDEST PUSH0 DUP2 SWAP1 POP SWAP2 SWAP1 POP JUMP JUMPDEST PUSH2 0x665 DUP2 PUSH2 0x653 JUMP JUMPDEST DUP3 MSTORE POP POP JUMP JUMPDEST PUSH0 PUSH1 0x20 DUP3 ADD SWAP1 POP PUSH2 0x67E PUSH0 DUP4 ADD DUP5 PUSH2 0x65C JUMP JUMPDEST SWAP3 SWAP2 POP POP JUMP JUMPDEST PUSH0 PUSH0 REVERT JUMPDEST PUSH0 PUSH20 0xFFFFFFFFFFFFFFFFFFFFFFFFFFFFFFFFFFFFFFFF DUP3 AND SWAP1 POP SWAP2 SWAP1 POP JUMP JUMPDEST PUSH0 PUSH2 0x6B1 DUP3 PUSH2 0x688 JUMP JUMPDEST SWAP1 POP SWAP2 SWAP1 POP JUMP JUMPDEST PUSH2 0x6C1 DUP2 PUSH2 0x6A7 JUMP JUMPDEST DUP2 EQ PUSH2 0x6CB JUMPI PUSH0 PUSH0 REVERT JUMPDEST POP JUMP JUMPDEST PUSH0 DUP2 CALLDATALOAD SWAP1 POP PUSH2 0x6DC DUP2 PUSH2 0x6B8 JUMP JUMPDEST SWAP3 SWAP2 POP POP JUMP JUMPDEST PUSH0 PUSH1 0x20 DUP3 DUP5 SUB SLT ISZERO PUSH2 0x6F7 JUMPI PUSH2 0x6F6 PUSH2 0x684 JUMP JUMPDEST JUMPDEST PUSH0 PUSH2 0x704 DUP5 DUP3 DUP6 ADD PUSH2 0x6CE JUMP JUMPDEST SWAP2 POP POP SWAP3 SWAP2 POP POP JUMP JUMPDEST PUSH2 0x716 DUP2 PUSH2 0x6A7 JUMP JUMPDEST DUP3 MSTORE POP POP JUMP JUMPDEST PUSH0 PUSH1 0x20 DUP3 ADD SWAP1 POP PUSH2 0x72F PUSH0 DUP4 ADD DUP5 PUSH2 0x70D JUMP JUMPDEST SWAP3 SWAP2 POP POP JUMP JUMPDEST PUSH2 0x73E DUP2 PUSH2 0x653 JUMP JUMPDEST DUP2 EQ PUSH2 0x748 JUMPI PUSH0 PUSH0 REVERT JUMPDEST POP JUMP JUMPDEST PUSH0 DUP2 CALLDATALOAD SWAP1 POP PUSH2 0x759 DUP2 PUSH2 0x735 JUMP JUMPDEST SWAP3 SWAP2 POP POP JUMP JUMPDEST PUSH0 PUSH1 0x20 DUP3 DUP5 SUB SLT ISZERO PUSH2 0x774 JUMPI PUSH2 0x773 PUSH2 0x684 JUMP JUMPDEST JUMPDEST PUSH0 PUSH2 0x781 DUP5 DUP3 DUP6 ADD PUSH2 0x74B JUMP JUMPDEST SWAP2 POP POP SWAP3 SWAP2 POP POP JUMP JUMPDEST PUSH32 0x4E487B7100000000000000000000000000000000000000000000000000000000 PUSH0 MSTORE PUSH1 0x32 PUSH1 0x4 MSTORE PUSH1 0x24 PUSH0 REVERT JUMPDEST PUSH32 0x4E487B7100000000000000000000000000000000000000000000000000000000 PUSH0 MSTORE PUSH1 0x41 PUSH1 0x4 MSTORE PUSH1 0x24 PUSH0 REVERT JUMPDEST PUSH0 DUP2 SLOAD SWAP1 POP SWAP2 SWAP1 POP JUMP JUMPDEST PUSH32 0x4E487B7100000000000000000000000000000000000000000000000000000000 PUSH0 MSTORE PUSH1 0x11 PUSH1 0x4 MSTORE PUSH1 0x24 PUSH0 REVERT JUMPDEST PUSH0 DUP2 SWAP1 POP PUSH1 0x1 DUP1 PUSH1 0x1 SUB DUP4 ADD DIV SWAP1 POP SWAP2 SWAP1 POP JUMP JUMPDEST PUSH0 DUP2 SWAP1 POP DUP2 PUSH0 MSTORE PUSH1 0x20 PUSH0 KECCAK256 SWAP1 POP SWAP2 SWAP1 POP JUMP JUMPDEST PUSH0 DUP3 DUP3 SHL SWAP1 POP SWAP3 SWAP2 POP POP JUMP JUMPDEST PUSH0 PUSH1 0x8 DUP4 MUL PUSH2 0x87C PUSH32 0xFFFFFFFFFFFFFFFFFFFFFFFFFFFFFFFFFFFFFFFFFFFFFFFFFFFFFFFFFFFFFFFF DUP3 PUSH2 0x841 JUMP JUMPDEST PUSH2 0x886 DUP7 DUP4 PUSH2 0x841 JUMP JUMPDEST SWAP6 POP DUP1 NOT DUP5 AND SWAP4 POP DUP1 DUP7 AND DUP5 OR SWAP3 POP POP POP SWAP4 SWAP3 POP POP POP JUMP JUMPDEST PUSH0 DUP2 SWAP1 POP SWAP2 SWAP1 POP JUMP JUMPDEST PUSH0 PUSH2 0x8C1 PUSH2 0x8BC PUSH2 0x8B7 DUP5 PUSH2 0x653 JUMP JUMPDEST PUSH2 0x89E JUMP JUMPDEST PUSH2 0x653 JUMP JUMPDEST SWAP1 POP SWAP2 SWAP1 POP JUMP JUMPDEST PUSH0 DUP2 SWAP1 POP SWAP2 SWAP1 POP JUMP JUMPDEST PUSH2 0x8DA DUP4 PUSH2 0x8A7 JUMP JUMPDEST PUSH2 0x8EE PUSH2 0x8E6 DUP3 PUSH2 0x8C8 JUMP JUMPDEST DUP5 DUP5 SLOAD PUSH2 0x84D JUMP JUMPDEST DUP3 SSTORE POP POP POP POP JUMP JUMPDEST PUSH0 PUSH0 SWAP1 POP SWAP1 JUMP JUMPDEST PUSH2 0x905 PUSH2 0x8F6 JUMP JUMPDEST PUSH2 0x910 DUP2 DUP5 DUP5 PUSH2 0x8D1 JUMP JUMPDEST POP POP POP JUMP JUMPDEST PUSH0 JUMPDEST DUP3 DUP2 LT ISZERO PUSH2 0x936 JUMPI PUSH2 0x92B PUSH0 DUP3 DUP5 ADD PUSH2 0x8FD JUMP JUMPDEST PUSH1 0x1 DUP2 ADD SWAP1 POP PUSH2 0x917 JUMP JUMPDEST POP POP POP JUMP JUMPDEST DUP2 DUP4 LT ISZERO PUSH2 0x972 JUMPI PUSH2 0x94C DUP3 PUSH2 0x81B JUMP JUMPDEST PUSH2 0x955 DUP5 PUSH2 0x81B JUMP JUMPDEST PUSH2 0x95E DUP4 PUSH2 0x82F JUMP JUMPDEST DUP2 DUP2 ADD PUSH2 0x96D DUP4 DUP6 SUB DUP3 PUSH2 0x915 JUMP JUMPDEST POP POP POP POP JUMPDEST POP POP POP JUMP JUMPDEST PUSH9 0x10000000000000000 DUP3 GT ISZERO PUSH2 0x991 JUMPI PUSH2 0x990 PUSH2 0x7B7 JUMP JUMPDEST JUMPDEST PUSH2 0x99A DUP2 PUSH2 0x7E4 JUMP JUMPDEST DUP3 DUP3 SSTORE PUSH2 0x9A8 DUP4 DUP3 DUP5 PUSH2 0x93B JUMP JUMPDEST POP POP POP JUMP JUMPDEST PUSH0 DUP2 MLOAD SWAP1 POP SWAP2 SWAP1 POP JUMP JUMPDEST PUSH0 PUSH2 0x9C2 DUP3 MLOAD PUSH2 0x6A7 JUMP JUMPDEST DUP1 SWAP2 POP POP SWAP2 SWAP1 POP JUMP JUMPDEST PUSH0 DUP2 SWAP1 POP PUSH1 0x20 DUP3 ADD SWAP1 POP SWAP2 SWAP1 POP JUMP JUMPDEST PUSH0 DUP2 SWAP1 POP SWAP2 SWAP1 POP JUMP JUMPDEST PUSH2 0x9EC DUP3 PUSH2 0x9AD JUMP JUMPDEST PUSH8 0xFFFFFFFFFFFFFFFF DUP2 GT ISZERO PUSH2 0xA05 JUMPI PUSH2 0xA04 PUSH2 0x7B7 JUMP JUMPDEST JUMPDEST PUSH2 0xA0F DUP2 DUP4 PUSH2 0x977 JUMP JUMPDEST PUSH2 0xA18 DUP4 PUSH2 0x9CB JUMP JUMPDEST PUSH2 0xA21 DUP4 PUSH2 0x82F JUMP JUMPDEST PUSH1 0x1 DUP4 DIV PUSH0 JUMPDEST DUP2 DUP2 LT ISZERO PUSH2 0xA5E JUMPI PUSH0 PUSH2 0xA39 DUP6 PUSH2 0x9B7 JUMP JUMPDEST PUSH2 0xA42 DUP2 PUSH2 0x9DA JUMP JUMPDEST DUP1 SWAP3 POP PUSH1 0x20 DUP8 ADD SWAP7 POP POP POP DUP1 DUP3 DUP6 ADD SSTORE POP PUSH1 0x1 DUP2 ADD SWAP1 POP PUSH2 0xA27 JUMP JUMPDEST POP POP POP POP POP POP POP JUMP JUMPDEST PUSH0 DUP3 DUP3 MSTORE PUSH1 0x20 DUP3 ADD SWAP1 POP SWAP3 SWAP2 POP POP JUMP JUMPDEST PUSH32 0x53656E64206661696C6564000000000000000000000000000000000000000000 PUSH0 DUP3 ADD MSTORE POP JUMP JUMPDEST PUSH0 PUSH2 0xAAB PUSH1 0xB DUP4 PUSH2 0xA67 JUMP JUMPDEST SWAP2 POP PUSH2 0xAB6 DUP3 PUSH2 0xA77 JUMP JUMPDEST PUSH1 0x20 DUP3 ADD SWAP1 POP SWAP2 SWAP1 POP JUMP JUMPDEST PUSH0 PUSH1 0x20 DUP3 ADD SWAP1 POP DUP2 DUP2 SUB PUSH0 DUP4 ADD MSTORE PUSH2 0xAD8 DUP2 PUSH2 0xA9F JUMP JUMPDEST SWAP1 POP SWAP2 SWAP1 POP JUMP JUMPDEST PUSH0 DUP2 SWAP1 POP SWAP3 SWAP2 POP POP JUMP JUMPDEST POP JUMP JUMPDEST PUSH0 PUSH2 0xAF7 PUSH0 DUP4 PUSH2 0xADF JUMP JUMPDEST SWAP2 POP PUSH2 0xB02 DUP3 PUSH2 0xAE9 JUMP JUMPDEST PUSH0 DUP3 ADD SWAP1 POP SWAP2 SWAP1 POP JUMP JUMPDEST PUSH0 PUSH2 0xB16 DUP3 PUSH2 0xAEC JUMP JUMPDEST SWAP2 POP DUP2 SWAP1 POP SWAP2 SWAP1 POP JUMP JUMPDEST PUSH32 0x43616C6C206661696C6564000000000000000000000000000000000000000000 PUSH0 DUP3 ADD MSTORE POP JUMP JUMPDEST PUSH0 PUSH2 0xB54 PUSH1 0xB DUP4 PUSH2 0xA67 JUMP JUMPDEST SWAP2 POP PUSH2 0xB5F DUP3 PUSH2 0xB20 JUMP JUMPDEST PUSH1 0x20 DUP3 ADD SWAP1 POP SWAP2 SWAP1 POP JUMP JUMPDEST PUSH0 PUSH1 0x20 DUP3 ADD SWAP1 POP DUP2 DUP2 SUB PUSH0 DUP4 ADD MSTORE PUSH2 0xB81 DUP2 PUSH2 0xB48 JUMP JUMPDEST SWAP1 POP SWAP2 SWAP1 POP JUMP JUMPDEST PUSH2 0xB91 DUP2 PUSH2 0x653 JUMP JUMPDEST DUP3 MSTORE POP POP JUMP JUMPDEST PUSH0 PUSH1 0x20 DUP3 ADD SWAP1 POP PUSH2 0xBAA PUSH0 DUP4 ADD DUP5 PUSH2 0xB88 JUMP JUMPDEST SWAP3 SWAP2 POP POP JUMP JUMPDEST PUSH0 DUP2 MLOAD SWAP1 POP PUSH2 0xBBE DUP2 PUSH2 0x735 JUMP JUMPDEST SWAP3 SWAP2 POP POP JUMP JUMPDEST PUSH0 PUSH1 0x20 DUP3 DUP5 SUB SLT ISZERO PUSH2 0xBD9 JUMPI PUSH2 0xBD8 PUSH2 0x684 JUMP JUMPDEST JUMPDEST PUSH0 PUSH2 0xBE6 DUP5 DUP3 DUP6 ADD PUSH2 0xBB0 JUMP JUMPDEST SWAP2 POP POP SWAP3 SWAP2 POP POP JUMP JUMPDEST PUSH32 0x416D6F756E74206D7573742062652067726561746572207468656E2031206574 PUSH0 DUP3 ADD MSTORE PUSH32 0x6800000000000000000000000000000000000000000000000000000000000000 PUSH1 0x20 DUP3 ADD MSTORE POP JUMP JUMPDEST PUSH0 PUSH2 0xC49 PUSH1 0x21 DUP4 PUSH2 0xA67 JUMP JUMPDEST SWAP2 POP PUSH2 0xC54 DUP3 PUSH2 0xBEF JUMP JUMPDEST PUSH1 0x40 DUP3 ADD SWAP1 POP SWAP2 SWAP1 POP JUMP JUMPDEST PUSH0 PUSH1 0x20 DUP3 ADD SWAP1 POP DUP2 DUP2 SUB PUSH0 DUP4 ADD MSTORE PUSH2 0xC76 DUP2 PUSH2 0xC3D JUMP JUMPDEST SWAP1 POP SWAP2 SWAP1 POP JUMP JUMPDEST PUSH0 PUSH2 0xC87 DUP3 PUSH2 0x653 JUMP JUMPDEST SWAP2 POP PUSH2 0xC92 DUP4 PUSH2 0x653 JUMP JUMPDEST SWAP3 POP DUP3 DUP3 ADD SWAP1 POP DUP1 DUP3 GT ISZERO PUSH2 0xCAA JUMPI PUSH2 0xCA9 PUSH2 0x7EE JUMP JUMPDEST JUMPDEST SWAP3 SWAP2 POP POP JUMP INVALID LOG2 PUSH5 0x6970667358 0x22 SLT KECCAK256 XOR TIMESTAMP DUP12 GASLIMIT CREATE PUSH12 0xA314FA2943401445EDBBF3FD SWAP11 SWAP10 NUMBER 0xC0 PUSH5 0x99896ADE62 PUSH20 0x55C1BE64736F6C63430008210033000000000000 "
				},
				"gasEstimates": {
					"creation": {
						"codeDepositCost": "660400",
						"executionCost": "infinite",
						"totalCost": "infinite"
					},
					"external": {
						"MINIMUM_USD()": "325",
						"addressToamountfunded(address)": "2824",
						"fund()": "infinite",
						"funders(uint256)": "5031",
						"i_owner()": "infinite",
						"withDraw()": "infinite"
					}
				},
				"methodIdentifiers": {
					"MINIMUM_USD()": "6b69a592",
					"addressToamountfunded(address)": "a0a6800f",
					"fund()": "b60d4288",
					"funders(uint256)": "dc0d3dff",
					"i_owner()": "dba6335f",
					"withDraw()": "0fdb1c10"
				}
			},
			"storageLayout": {
				"storage": [
					{
						"astId": 62,
						"contract": "Contract/FundMe.sol:FundMe",
						"label": "funders",
						"offset": 0,
						"slot": "0",
						"type": "t_array(t_address)dyn_storage"
					},
					{
						"astId": 66,
						"contract": "Contract/FundMe.sol:FundMe",
						"label": "addressToamountfunded",
						"offset": 0,
						"slot": "1",
						"type": "t_mapping(t_address,t_uint256)"
					}
				],
				"types": {
					"t_address": {
						"encoding": "inplace",
						"label": "address",
						"numberOfBytes": "20"
					},
					"t_array(t_address)dyn_storage": {
						"base": "t_address",
						"encoding": "dynamic_array",
						"label": "address[]",
						"numberOfBytes": "32"
					},
					"t_mapping(t_address,t_uint256)": {
						"encoding": "mapping",
						"key": "t_address",
						"label": "mapping(address => uint256)",
						"numberOfBytes": "32",
						"value": "t_uint256"
					},
					"t_uint256": {
						"encoding": "inplace",
						"label": "uint256",
						"numberOfBytes": "32"
					}
				}
			},
			"userdoc": {
				"kind": "user",
				"methods": {},
				"version": 1
			}
		}
	}
}