{
	"data": {
		"bytecode": {
			"linkReferences": {
				"Contract/PriceConvertor.sol": {
					"PriceConvertor": [
						{
							"length": 20,
							"start": 308
						}
					]
				}
			},
			"object": "6080604052674563918244f400005f553480156019575f5ffd5b506105bc806100275f395ff3fe60806040526004361061003e575f3560e01c8063098de82014610042578063a0a6800f1461006c578063b60d4288146100a8578063dc0d3dff146100b2575b5f5ffd5b34801561004d575f5ffd5b506100566100ee565b6040516100639190610302565b60405180910390f35b348015610077575f5ffd5b50610092600480360381019061008d9190610379565b6100f3565b60405161009f9190610302565b60405180910390f35b6100b0610108565b005b3480156100bd575f5ffd5b506100d860048036038101906100d391906103ce565b6102af565b6040516100e59190610408565b60405180910390f35b5f5481565b6002602052805f5260405f205f915090505481565b5f543473__$12c6e211796fb1a0b7deb2980c9fd1040f$__636e5b6b2890916040518263ffffffff1660e01b81526004016101439190610430565b602060405180830381865af415801561015e573d5f5f3e3d5ffd5b505050506040513d601f19601f82011682018060405250810190610182919061045d565b10156101c3576040517f08c379a00000000000000000000000000000000000000000000000000000000081526004016101ba90610508565b60405180910390fd5b600133908060018154018082558091505060019003905f5260205f20015f9091909190916101000a81548173ffffffffffffffffffffffffffffffffffffffff021916908373ffffffffffffffffffffffffffffffffffffffff1602179055503460025f3373ffffffffffffffffffffffffffffffffffffffff1673ffffffffffffffffffffffffffffffffffffffff1681526020019081526020015f205461026c9190610553565b60025f3373ffffffffffffffffffffffffffffffffffffffff1673ffffffffffffffffffffffffffffffffffffffff1681526020019081526020015f2081905550565b600181815481106102be575f80fd5b905f5260205f20015f915054906101000a900473ffffffffffffffffffffffffffffffffffffffff1681565b5f819050919050565b6102fc816102ea565b82525050565b5f6020820190506103155f8301846102f3565b92915050565b5f5ffd5b5f73ffffffffffffffffffffffffffffffffffffffff82169050919050565b5f6103488261031f565b9050919050565b6103588161033e565b8114610362575f5ffd5b50565b5f813590506103738161034f565b92915050565b5f6020828403121561038e5761038d61031b565b5b5f61039b84828501610365565b91505092915050565b6103ad816102ea565b81146103b7575f5ffd5b50565b5f813590506103c8816103a4565b92915050565b5f602082840312156103e3576103e261031b565b5b5f6103f0848285016103ba565b91505092915050565b6104028161033e565b82525050565b5f60208201905061041b5f8301846103f9565b92915050565b61042a816102ea565b82525050565b5f6020820190506104435f830184610421565b92915050565b5f81519050610457816103a4565b92915050565b5f602082840312156104725761047161031b565b5b5f61047f84828501610449565b91505092915050565b5f82825260208201905092915050565b7f416d6f756e74206d7573742062652067726561746572207468656e20312065745f8201527f6800000000000000000000000000000000000000000000000000000000000000602082015250565b5f6104f2602183610488565b91506104fd82610498565b604082019050919050565b5f6020820190508181035f83015261051f816104e6565b9050919050565b7f4e487b71000000000000000000000000000000000000000000000000000000005f52601160045260245ffd5b5f61055d826102ea565b9150610568836102ea565b92508282019050808211156105805761057f610526565b5b9291505056fea26469706673582212202da6e0562d9a56862cfa51f0509400d68269cb14f3efdb9201f15fd563b7962264736f6c63430008210033",
			"opcodes": "PUSH1 0x80 PUSH1 0x40 MSTORE PUSH8 0x4563918244F40000 PUSH0 SSTORE CALLVALUE DUP1 ISZERO PUSH1 0x19 JUMPI PUSH0 PUSH0 REVERT JUMPDEST POP PUSH2 0x5BC DUP1 PUSH2 0x27 PUSH0 CODECOPY PUSH0 RETURN INVALID PUSH1 0x80 PUSH1 0x40 MSTORE PUSH1 0x4 CALLDATASIZE LT PUSH2 0x3E JUMPI PUSH0 CALLDATALOAD PUSH1 0xE0 SHR DUP1 PUSH4 0x98DE820 EQ PUSH2 0x42 JUMPI DUP1 PUSH4 0xA0A6800F EQ PUSH2 0x6C JUMPI DUP1 PUSH4 0xB60D4288 EQ PUSH2 0xA8 JUMPI DUP1 PUSH4 0xDC0D3DFF EQ PUSH2 0xB2 JUMPI JUMPDEST PUSH0 PUSH0 REVERT JUMPDEST CALLVALUE DUP1 ISZERO PUSH2 0x4D JUMPI PUSH0 PUSH0 REVERT JUMPDEST POP PUSH2 0x56 PUSH2 0xEE JUMP JUMPDEST PUSH1 0x40 MLOAD PUSH2 0x63 SWAP2 SWAP1 PUSH2 0x302 JUMP JUMPDEST PUSH1 0x40 MLOAD DUP1 SWAP2 SUB SWAP1 RETURN JUMPDEST CALLVALUE DUP1 ISZERO PUSH2 0x77 JUMPI PUSH0 PUSH0 REVERT JUMPDEST POP PUSH2 0x92 PUSH1 0x4 DUP1 CALLDATASIZE SUB DUP2 ADD SWAP1 PUSH2 0x8D SWAP2 SWAP1 PUSH2 0x379 JUMP JUMPDEST PUSH2 0xF3 JUMP JUMPDEST PUSH1 0x40 MLOAD PUSH2 0x9F SWAP2 SWAP1 PUSH2 0x302 JUMP JUMPDEST PUSH1 0x40 MLOAD DUP1 SWAP2 SUB SWAP1 RETURN JUMPDEST PUSH2 0xB0 PUSH2 0x108 JUMP JUMPDEST STOP JUMPDEST CALLVALUE DUP1 ISZERO PUSH2 0xBD JUMPI PUSH0 PUSH0 REVERT JUMPDEST POP PUSH2 0xD8 PUSH1 0x4 DUP1 CALLDATASIZE SUB DUP2 ADD SWAP1 PUSH2 0xD3 SWAP2 SWAP1 PUSH2 0x3CE JUMP JUMPDEST PUSH2 0x2AF JUMP JUMPDEST PUSH1 0x40 MLOAD PUSH2 0xE5 SWAP2 SWAP1 PUSH2 0x408 JUMP JUMPDEST PUSH1 0x40 MLOAD DUP1 SWAP2 SUB SWAP1 RETURN JUMPDEST PUSH0 SLOAD DUP2 JUMP JUMPDEST PUSH1 0x2 PUSH1 0x20 MSTORE DUP1 PUSH0 MSTORE PUSH1 0x40 PUSH0 KECCAK256 PUSH0 SWAP2 POP SWAP1 POP SLOAD DUP2 JUMP JUMPDEST PUSH0 SLOAD CALLVALUE PUSH20 0x0 PUSH4 0x6E5B6B28 SWAP1 SWAP2 PUSH1 0x40 MLOAD DUP3 PUSH4 0xFFFFFFFF AND PUSH1 0xE0 SHL DUP2 MSTORE PUSH1 0x4 ADD PUSH2 0x143 SWAP2 SWAP1 PUSH2 0x430 JUMP JUMPDEST PUSH1 0x20 PUSH1 0x40 MLOAD DUP1 DUP4 SUB DUP2 DUP7 GAS DELEGATECALL ISZERO DUP1 ISZERO PUSH2 0x15E JUMPI RETURNDATASIZE PUSH0 PUSH0 RETURNDATACOPY RETURNDATASIZE PUSH0 REVERT JUMPDEST POP POP POP POP PUSH1 0x40 MLOAD RETURNDATASIZE PUSH1 0x1F NOT PUSH1 0x1F DUP3 ADD AND DUP3 ADD DUP1 PUSH1 0x40 MSTORE POP DUP2 ADD SWAP1 PUSH2 0x182 SWAP2 SWAP1 PUSH2 0x45D JUMP JUMPDEST LT ISZERO PUSH2 0x1C3 JUMPI PUSH1 0x40 MLOAD PUSH32 0x8C379A000000000000000000000000000000000000000000000000000000000 DUP2 MSTORE PUSH1 0x4 ADD PUSH2 0x1BA SWAP1 PUSH2 0x508 JUMP JUMPDEST PUSH1 0x40 MLOAD DUP1 SWAP2 SUB SWAP1 REVERT JUMPDEST PUSH1 0x1 CALLER SWAP1 DUP1 PUSH1 0x1 DUP2 SLOAD ADD DUP1 DUP3 SSTORE DUP1 SWAP2 POP POP PUSH1 0x1 SWAP1 SUB SWAP1 PUSH0 MSTORE PUSH1 0x20 PUSH0 KECCAK256 ADD PUSH0 SWAP1 SWAP2 SWAP1 SWAP2 SWAP1 SWAP2 PUSH2 0x100 EXP DUP2 SLOAD DUP2 PUSH20 0xFFFFFFFFFFFFFFFFFFFFFFFFFFFFFFFFFFFFFFFF MUL NOT AND SWAP1 DUP4 PUSH20 0xFFFFFFFFFFFFFFFFFFFFFFFFFFFFFFFFFFFFFFFF AND MUL OR SWAP1 SSTORE POP CALLVALUE PUSH1 0x2 PUSH0 CALLER PUSH20 0xFFFFFFFFFFFFFFFFFFFFFFFFFFFFFFFFFFFFFFFF AND PUSH20 0xFFFFFFFFFFFFFFFFFFFFFFFFFFFFFFFFFFFFFFFF AND DUP2 MSTORE PUSH1 0x20 ADD SWAP1 DUP2 MSTORE PUSH1 0x20 ADD PUSH0 KECCAK256 SLOAD PUSH2 0x26C SWAP2 SWAP1 PUSH2 0x553 JUMP JUMPDEST PUSH1 0x2 PUSH0 CALLER PUSH20 0xFFFFFFFFFFFFFFFFFFFFFFFFFFFFFFFFFFFFFFFF AND PUSH20 0xFFFFFFFFFFFFFFFFFFFFFFFFFFFFFFFFFFFFFFFF AND DUP2 MSTORE PUSH1 0x20 ADD SWAP1 DUP2 MSTORE PUSH1 0x20 ADD PUSH0 KECCAK256 DUP2 SWAP1 SSTORE POP JUMP JUMPDEST PUSH1 0x1 DUP2 DUP2 SLOAD DUP2 LT PUSH2 0x2BE JUMPI PUSH0 DUP1 REVERT JUMPDEST SWAP1 PUSH0 MSTORE PUSH1 0x20 PUSH0 KECCAK256 ADD PUSH0 SWAP2 POP SLOAD SWAP1 PUSH2 0x100 EXP SWAP1 DIV PUSH20 0xFFFFFFFFFFFFFFFFFFFFFFFFFFFFFFFFFFFFFFFF AND DUP2 JUMP JUMPDEST PUSH0 DUP2 SWAP1 POP SWAP2 SWAP1 POP JUMP JUMPDEST PUSH2 0x2FC DUP2 PUSH2 0x2EA JUMP JUMPDEST DUP3 MSTORE POP POP JUMP JUMPDEST PUSH0 PUSH1 0x20 DUP3 ADD SWAP1 POP PUSH2 0x315 PUSH0 DUP4 ADD DUP5 PUSH2 0x2F3 JUMP JUMPDEST SWAP3 SWAP2 POP POP JUMP JUMPDEST PUSH0 PUSH0 REVERT JUMPDEST PUSH0 PUSH20 0xFFFFFFFFFFFFFFFFFFFFFFFFFFFFFFFFFFFFFFFF DUP3 AND SWAP1 POP SWAP2 SWAP1 POP JUMP JUMPDEST PUSH0 PUSH2 0x348 DUP3 PUSH2 0x31F JUMP JUMPDEST SWAP1 POP SWAP2 SWAP1 POP JUMP JUMPDEST PUSH2 0x358 DUP2 PUSH2 0x33E JUMP JUMPDEST DUP2 EQ PUSH2 0x362 JUMPI PUSH0 PUSH0 REVERT JUMPDEST POP JUMP JUMPDEST PUSH0 DUP2 CALLDATALOAD SWAP1 POP PUSH2 0x373 DUP2 PUSH2 0x34F JUMP JUMPDEST SWAP3 SWAP2 POP POP JUMP JUMPDEST PUSH0 PUSH1 0x20 DUP3 DUP5 SUB SLT ISZERO PUSH2 0x38E JUMPI PUSH2 0x38D PUSH2 0x31B JUMP JUMPDEST JUMPDEST PUSH0 PUSH2 0x39B DUP5 DUP3 DUP6 ADD PUSH2 0x365 JUMP JUMPDEST SWAP2 POP POP SWAP3 SWAP2 POP POP JUMP JUMPDEST PUSH2 0x3AD DUP2 PUSH2 0x2EA JUMP JUMPDEST DUP2 EQ PUSH2 0x3B7 JUMPI PUSH0 PUSH0 REVERT JUMPDEST POP JUMP JUMPDEST PUSH0 DUP2 CALLDATALOAD SWAP1 POP PUSH2 0x3C8 DUP2 PUSH2 0x3A4 JUMP JUMPDEST SWAP3 SWAP2 POP POP JUMP JUMPDEST PUSH0 PUSH1 0x20 DUP3 DUP5 SUB SLT ISZERO PUSH2 0x3E3 JUMPI PUSH2 0x3E2 PUSH2 0x31B JUMP JUMPDEST JUMPDEST PUSH0 PUSH2 0x3F0 DUP5 DUP3 DUP6 ADD PUSH2 0x3BA JUMP JUMPDEST SWAP2 POP POP SWAP3 SWAP2 POP POP JUMP JUMPDEST PUSH2 0x402 DUP2 PUSH2 0x33E JUMP JUMPDEST DUP3 MSTORE POP POP JUMP JUMPDEST PUSH0 PUSH1 0x20 DUP3 ADD SWAP1 POP PUSH2 0x41B PUSH0 DUP4 ADD DUP5 PUSH2 0x3F9 JUMP JUMPDEST SWAP3 SWAP2 POP POP JUMP JUMPDEST PUSH2 0x42A DUP2 PUSH2 0x2EA JUMP JUMPDEST DUP3 MSTORE POP POP JUMP JUMPDEST PUSH0 PUSH1 0x20 DUP3 ADD SWAP1 POP PUSH2 0x443 PUSH0 DUP4 ADD DUP5 PUSH2 0x421 JUMP JUMPDEST SWAP3 SWAP2 POP POP JUMP JUMPDEST PUSH0 DUP2 MLOAD SWAP1 POP PUSH2 0x457 DUP2 PUSH2 0x3A4 JUMP JUMPDEST SWAP3 SWAP2 POP POP JUMP JUMPDEST PUSH0 PUSH1 0x20 DUP3 DUP5 SUB SLT ISZERO PUSH2 0x472 JUMPI PUSH2 0x471 PUSH2 0x31B JUMP JUMPDEST JUMPDEST PUSH0 PUSH2 0x47F DUP5 DUP3 DUP6 ADD PUSH2 0x449 JUMP JUMPDEST SWAP2 POP POP SWAP3 SWAP2 POP POP JUMP JUMPDEST PUSH0 DUP3 DUP3 MSTORE PUSH1 0x20 DUP3 ADD SWAP1 POP SWAP3 SWAP2 POP POP JUMP JUMPDEST PUSH32 0x416D6F756E74206D7573742062652067726561746572207468656E2031206574 PUSH0 DUP3 ADD MSTORE PUSH32 0x6800000000000000000000000000000000000000000000000000000000000000 PUSH1 0x20 DUP3 ADD MSTORE POP JUMP JUMPDEST PUSH0 PUSH2 0x4F2 PUSH1 0x21 DUP4 PUSH2 0x488 JUMP JUMPDEST SWAP2 POP PUSH2 0x4FD DUP3 PUSH2 0x498 JUMP JUMPDEST PUSH1 0x40 DUP3 ADD SWAP1 POP SWAP2 SWAP1 POP JUMP JUMPDEST PUSH0 PUSH1 0x20 DUP3 ADD SWAP1 POP DUP2 DUP2 SUB PUSH0 DUP4 ADD MSTORE PUSH2 0x51F DUP2 PUSH2 0x4E6 JUMP JUMPDEST SWAP1 POP SWAP2 SWAP1 POP JUMP JUMPDEST PUSH32 0x4E487B7100000000000000000000000000000000000000000000000000000000 PUSH0 MSTORE PUSH1 0x11 PUSH1 0x4 MSTORE PUSH1 0x24 PUSH0 REVERT JUMPDEST PUSH0 PUSH2 0x55D DUP3 PUSH2 0x2EA JUMP JUMPDEST SWAP2 POP PUSH2 0x568 DUP4 PUSH2 0x2EA JUMP JUMPDEST SWAP3 POP DUP3 DUP3 ADD SWAP1 POP DUP1 DUP3 GT ISZERO PUSH2 0x580 JUMPI PUSH2 0x57F PUSH2 0x526 JUMP JUMPDEST JUMPDEST SWAP3 SWAP2 POP POP JUMP INVALID LOG2 PUSH5 0x6970667358 0x22 SLT KECCAK256 0x2D 0xA6 RJUMP 0x562D SWAP11 JUMP DUP7 0x2C STATICCALL MLOAD CREATE POP SWAP5 STOP 0xD6 DUP3 PUSH10 0xCB14F3EFDB9201F15FD5 PUSH4 0xB7962264 PUSH20 0x6F6C634300082100330000000000000000000000 "
		},
		"gasEstimates": {
			"creation": {
				"codeDepositCost": "293600",
				"executionCost": "22434",
				"totalCost": "316034"
			},
			"external": {
				"addressToamountfunded(address)": "2802",
				"fund()": "infinite",
				"funders(uint256)": "4988",
				"minimumUsd()": "2402"
			}
		},
		"methodIdentifiers": {
			"addressToamountfunded(address)": "a0a6800f",
			"fund()": "b60d4288",
			"funders(uint256)": "dc0d3dff",
			"minimumUsd()": "098de820"
		}
	},
	"abi": [
		{
			"inputs": [
				{
					"internalType": "address",
					"name": "",
					"type": "address"
				}
			],
			"name": "addressToamountfunded",
			"outputs": [
				{
					"internalType": "uint256",
					"name": "",
					"type": "uint256"
				}
			],
			"stateMutability": "view",
			"type": "function"
		},
		{
			"inputs": [],
			"name": "fund",
			"outputs": [],
			"stateMutability": "payable",
			"type": "function"
		},
		{
			"inputs": [
				{
					"internalType": "uint256",
					"name": "",
					"type": "uint256"
				}
			],
			"name": "funders",
			"outputs": [
				{
					"internalType": "address",
					"name": "",
					"type": "address"
				}
			],
			"stateMutability": "view",
			"type": "function"
		},
		{
			"inputs": [],
			"name": "minimumUsd",
			"outputs": [
				{
					"internalType": "uint256",
					"name": "",
					"type": "uint256"
				}
			],
			"stateMutability": "view",
			"type": "function"
		}
	]
}