{
	"data": {
		"bytecode": {
			"linkReferences": {
				"Contract/PriceConvertor.sol": {
					"PriceConvertor": [
						{
							"length": 20,
							"start": 459
						}
					]
				}
			},
			"object": "60a0604052348015600e575f5ffd5b503373ffffffffffffffffffffffffffffffffffffffff1660808173ffffffffffffffffffffffffffffffffffffffff1681525050608051610cff6100625f395f818161030c01526106100152610cff5ff3fe608060405260043610610058575f3560e01c80630fdb1c10146100715780636b69a59214610087578063a0a6800f146100b1578063b60d4288146100ed578063dba6335f146100f7578063dc0d3dff1461012157610067565b366100675761006561015d565b005b61006f61015d565b005b34801561007c575f5ffd5b5061008561030a565b005b348015610092575f5ffd5b5061009b6105ed565b6040516100a89190610684565b60405180910390f35b3480156100bc575f5ffd5b506100d760048036038101906100d291906106fb565b6105f9565b6040516100e49190610684565b60405180910390f35b6100f561015d565b005b348015610102575f5ffd5b5061010b61060e565b6040516101189190610735565b60405180910390f35b34801561012c575f5ffd5b5061014760048036038101906101429190610778565b610632565b6040516101549190610735565b60405180910390f35b674563918244f400003473__$12c6e211796fb1a0b7deb2980c9fd1040f$__636e5b6b2890916040518263ffffffff1660e01b815260040161019f91906107b2565b602060405180830381865af41580156101ba573d5f5f3e3d5ffd5b505050506040513d601f19601f820116820180604052508101906101de91906107df565b101561021f576040517f08c379a00000000000000000000000000000000000000000000000000000000081526004016102169061088a565b60405180910390fd5b5f33908060018154018082558091505060019003905f5260205f20015f9091909190916101000a81548173ffffffffffffffffffffffffffffffffffffffff021916908373ffffffffffffffffffffffffffffffffffffffff1602179055503460015f3373ffffffffffffffffffffffffffffffffffffffff1673ffffffffffffffffffffffffffffffffffffffff1681526020019081526020015f20546102c791906108d5565b60015f3373ffffffffffffffffffffffffffffffffffffffff1673ffffffffffffffffffffffffffffffffffffffff1681526020019081526020015f2081905550565b7f000000000000000000000000000000000000000000000000000000000000000073ffffffffffffffffffffffffffffffffffffffff163373ffffffffffffffffffffffffffffffffffffffff161461038f576040517f82b4290000000000000000000000000000000000000000000000000000000000815260040160405180910390fd5b5f5f90505b5f8054905081101561042e575f5f82815481106103b4576103b3610908565b5b905f5260205f20015f9054906101000a900473ffffffffffffffffffffffffffffffffffffffff1690505f60015f8373ffffffffffffffffffffffffffffffffffffffff1673ffffffffffffffffffffffffffffffffffffffff1681526020019081526020015f2081905550508080600101915050610394565b505f67ffffffffffffffff81111561044957610448610935565b5b6040519080825280602002602001820160405280156104775781602001602082028036833780820191505090505b505f90816104859190610b34565b503373ffffffffffffffffffffffffffffffffffffffff166108fc4790811502906040515f60405180830381858888f193505050501580156104c9573d5f5f3e3d5ffd5b505f3373ffffffffffffffffffffffffffffffffffffffff166108fc4790811502906040515f60405180830381858888f19350505050905080610541576040517f08c379a000000000000000000000000000000000000000000000000000000000815260040161053890610c02565b60405180910390fd5b5f3373ffffffffffffffffffffffffffffffffffffffff164760405161056690610c4d565b5f6040518083038185875af1925050503d805f81146105a0576040519150601f19603f3d011682016040523d82523d5f602084013e6105a5565b606091505b50509050806105e9576040517f08c379a00000000000000000000000000000000000000000000000000000000081526004016105e090610cab565b60405180910390fd5b5050565b674563918244f4000081565b6001602052805f5260405f205f915090505481565b7f000000000000000000000000000000000000000000000000000000000000000081565b5f8181548110610640575f80fd5b905f5260205f20015f915054906101000a900473ffffffffffffffffffffffffffffffffffffffff1681565b5f819050919050565b61067e8161066c565b82525050565b5f6020820190506106975f830184610675565b92915050565b5f5ffd5b5f73ffffffffffffffffffffffffffffffffffffffff82169050919050565b5f6106ca826106a1565b9050919050565b6106da816106c0565b81146106e4575f5ffd5b50565b5f813590506106f5816106d1565b92915050565b5f602082840312156107105761070f61069d565b5b5f61071d848285016106e7565b91505092915050565b61072f816106c0565b82525050565b5f6020820190506107485f830184610726565b92915050565b6107578161066c565b8114610761575f5ffd5b50565b5f813590506107728161074e565b92915050565b5f6020828403121561078d5761078c61069d565b5b5f61079a84828501610764565b91505092915050565b6107ac8161066c565b82525050565b5f6020820190506107c55f8301846107a3565b92915050565b5f815190506107d98161074e565b92915050565b5f602082840312156107f4576107f361069d565b5b5f610801848285016107cb565b91505092915050565b5f82825260208201905092915050565b7f416d6f756e74206d7573742062652067726561746572207468656e20312065745f8201527f6800000000000000000000000000000000000000000000000000000000000000602082015250565b5f61087460218361080a565b915061087f8261081a565b604082019050919050565b5f6020820190508181035f8301526108a181610868565b9050919050565b7f4e487b71000000000000000000000000000000000000000000000000000000005f52601160045260245ffd5b5f6108df8261066c565b91506108ea8361066c565b9250828201905080821115610902576109016108a8565b5b92915050565b7f4e487b71000000000000000000000000000000000000000000000000000000005f52603260045260245ffd5b7f4e487b71000000000000000000000000000000000000000000000000000000005f52604160045260245ffd5b5f81549050919050565b5f8190506001806001038301049050919050565b5f819050815f5260205f209050919050565b5f82821b905092915050565b5f600883026109cd7fffffffffffffffffffffffffffffffffffffffffffffffffffffffffffffffff82610992565b6109d78683610992565b95508019841693508086168417925050509392505050565b5f819050919050565b5f610a12610a0d610a088461066c565b6109ef565b61066c565b9050919050565b5f819050919050565b610a2b836109f8565b610a3f610a3782610a19565b84845461099e565b825550505050565b5f5f905090565b610a56610a47565b610a61818484610a22565b505050565b5f5b82811015610a8757610a7c5f828401610a4e565b600181019050610a68565b505050565b81831015610ac357610a9d8261096c565b610aa68461096c565b610aaf83610980565b818101610abe83850382610a66565b505050505b505050565b68010000000000000000821115610ae257610ae1610935565b5b610aeb81610962565b828255610af9838284610a8c565b505050565b5f81519050919050565b5f610b1382516106c0565b80915050919050565b5f819050602082019050919050565b5f819050919050565b610b3d82610afe565b67ffffffffffffffff811115610b5657610b55610935565b5b610b608183610ac8565b610b6983610b1c565b610b7283610980565b600183045f5b81811015610baf575f610b8a85610b08565b610b9381610b2b565b8092506020870196505050808285015550600181019050610b78565b50505050505050565b7f53656e64206661696c65640000000000000000000000000000000000000000005f82015250565b5f610bec600b8361080a565b9150610bf782610bb8565b602082019050919050565b5f6020820190508181035f830152610c1981610be0565b9050919050565b5f81905092915050565b50565b5f610c385f83610c20565b9150610c4382610c2a565b5f82019050919050565b5f610c5782610c2d565b9150819050919050565b7f43616c6c206661696c65640000000000000000000000000000000000000000005f82015250565b5f610c95600b8361080a565b9150610ca082610c61565b602082019050919050565b5f6020820190508181035f830152610cc281610c89565b905091905056fea26469706673582212202cb9f9eb41c0958bb0bd3998bacf87a960d4f322c93e13a442006a1e9a1c6bbd64736f6c63430008210033",
			"opcodes": "PUSH1 0xA0 PUSH1 0x40 MSTORE CALLVALUE DUP1 ISZERO PUSH1 0xE JUMPI PUSH0 PUSH0 REVERT JUMPDEST POP CALLER PUSH20 0xFFFFFFFFFFFFFFFFFFFFFFFFFFFFFFFFFFFFFFFF AND PUSH1 0x80 DUP2 PUSH20 0xFFFFFFFFFFFFFFFFFFFFFFFFFFFFFFFFFFFFFFFF AND DUP2 MSTORE POP POP PUSH1 0x80 MLOAD PUSH2 0xCFF PUSH2 0x62 PUSH0 CODECOPY PUSH0 DUP2 DUP2 PUSH2 0x30C ADD MSTORE PUSH2 0x610 ADD MSTORE PUSH2 0xCFF PUSH0 RETURN INVALID PUSH1 0x80 PUSH1 0x40 MSTORE PUSH1 0x4 CALLDATASIZE LT PUSH2 0x58 JUMPI PUSH0 CALLDATALOAD PUSH1 0xE0 SHR DUP1 PUSH4 0xFDB1C10 EQ PUSH2 0x71 JUMPI DUP1 PUSH4 0x6B69A592 EQ PUSH2 0x87 JUMPI DUP1 PUSH4 0xA0A6800F EQ PUSH2 0xB1 JUMPI DUP1 PUSH4 0xB60D4288 EQ PUSH2 0xED JUMPI DUP1 PUSH4 0xDBA6335F EQ PUSH2 0xF7 JUMPI DUP1 PUSH4 0xDC0D3DFF EQ PUSH2 0x121 JUMPI PUSH2 0x67 JUMP JUMPDEST CALLDATASIZE PUSH2 0x67 JUMPI PUSH2 0x65 PUSH2 0x15D JUMP JUMPDEST STOP JUMPDEST PUSH2 0x6F PUSH2 0x15D JUMP JUMPDEST STOP JUMPDEST CALLVALUE DUP1 ISZERO PUSH2 0x7C JUMPI PUSH0 PUSH0 REVERT JUMPDEST POP PUSH2 0x85 PUSH2 0x30A JUMP JUMPDEST STOP JUMPDEST CALLVALUE DUP1 ISZERO PUSH2 0x92 JUMPI PUSH0 PUSH0 REVERT JUMPDEST POP PUSH2 0x9B PUSH2 0x5ED JUMP JUMPDEST PUSH1 0x40 MLOAD PUSH2 0xA8 SWAP2 SWAP1 PUSH2 0x684 JUMP JUMPDEST PUSH1 0x40 MLOAD DUP1 SWAP2 SUB SWAP1 RETURN JUMPDEST CALLVALUE DUP1 ISZERO PUSH2 0xBC JUMPI PUSH0 PUSH0 REVERT JUMPDEST POP PUSH2 0xD7 PUSH1 0x4 DUP1 CALLDATASIZE SUB DUP2 ADD SWAP1 PUSH2 0xD2 SWAP2 SWAP1 PUSH2 0x6FB JUMP JUMPDEST PUSH2 0x5F9 JUMP JUMPDEST PUSH1 0x40 MLOAD PUSH2 0xE4 SWAP2 SWAP1 PUSH2 0x684 JUMP JUMPDEST PUSH1 0x40 MLOAD DUP1 SWAP2 SUB SWAP1 RETURN JUMPDEST PUSH2 0xF5 PUSH2 0x15D JUMP JUMPDEST STOP JUMPDEST CALLVALUE DUP1 ISZERO PUSH2 0x102 JUMPI PUSH0 PUSH0 REVERT JUMPDEST POP PUSH2 0x10B PUSH2 0x60E JUMP JUMPDEST PUSH1 0x40 MLOAD PUSH2 0x118 SWAP2 SWAP1 PUSH2 0x735 JUMP JUMPDEST PUSH1 0x40 MLOAD DUP1 SWAP2 SUB SWAP1 RETURN JUMPDEST CALLVALUE DUP1 ISZERO PUSH2 0x12C JUMPI PUSH0 PUSH0 REVERT JUMPDEST POP PUSH2 0x147 PUSH1 0x4 DUP1 CALLDATASIZE SUB DUP2 ADD SWAP1 PUSH2 0x142 SWAP2 SWAP1 PUSH2 0x778 JUMP JUMPDEST PUSH2 0x632 JUMP JUMPDEST PUSH1 0x40 MLOAD PUSH2 0x154 SWAP2 SWAP1 PUSH2 0x735 JUMP JUMPDEST PUSH1 0x40 MLOAD DUP1 SWAP2 SUB SWAP1 RETURN JUMPDEST PUSH8 0x4563918244F40000 CALLVALUE PUSH20 0x0 PUSH4 0x6E5B6B28 SWAP1 SWAP2 PUSH1 0x40 MLOAD DUP3 PUSH4 0xFFFFFFFF AND PUSH1 0xE0 SHL DUP2 MSTORE PUSH1 0x4 ADD PUSH2 0x19F SWAP2 SWAP1 PUSH2 0x7B2 JUMP JUMPDEST PUSH1 0x20 PUSH1 0x40 MLOAD DUP1 DUP4 SUB DUP2 DUP7 GAS DELEGATECALL ISZERO DUP1 ISZERO PUSH2 0x1BA JUMPI RETURNDATASIZE PUSH0 PUSH0 RETURNDATACOPY RETURNDATASIZE PUSH0 REVERT JUMPDEST POP POP POP POP PUSH1 0x40 MLOAD RETURNDATASIZE PUSH1 0x1F NOT PUSH1 0x1F DUP3 ADD AND DUP3 ADD DUP1 PUSH1 0x40 MSTORE POP DUP2 ADD SWAP1 PUSH2 0x1DE SWAP2 SWAP1 PUSH2 0x7DF JUMP JUMPDEST LT ISZERO PUSH2 0x21F JUMPI PUSH1 0x40 MLOAD PUSH32 0x8C379A000000000000000000000000000000000000000000000000000000000 DUP2 MSTORE PUSH1 0x4 ADD PUSH2 0x216 SWAP1 PUSH2 0x88A JUMP JUMPDEST PUSH1 0x40 MLOAD DUP1 SWAP2 SUB SWAP1 REVERT JUMPDEST PUSH0 CALLER SWAP1 DUP1 PUSH1 0x1 DUP2 SLOAD ADD DUP1 DUP3 SSTORE DUP1 SWAP2 POP POP PUSH1 0x1 SWAP1 SUB SWAP1 PUSH0 MSTORE PUSH1 0x20 PUSH0 KECCAK256 ADD PUSH0 SWAP1 SWAP2 SWAP1 SWAP2 SWAP1 SWAP2 PUSH2 0x100 EXP DUP2 SLOAD DUP2 PUSH20 0xFFFFFFFFFFFFFFFFFFFFFFFFFFFFFFFFFFFFFFFF MUL NOT AND SWAP1 DUP4 PUSH20 0xFFFFFFFFFFFFFFFFFFFFFFFFFFFFFFFFFFFFFFFF AND MUL OR SWAP1 SSTORE POP CALLVALUE PUSH1 0x1 PUSH0 CALLER PUSH20 0xFFFFFFFFFFFFFFFFFFFFFFFFFFFFFFFFFFFFFFFF AND PUSH20 0xFFFFFFFFFFFFFFFFFFFFFFFFFFFFFFFFFFFFFFFF AND DUP2 MSTORE PUSH1 0x20 ADD SWAP1 DUP2 MSTORE PUSH1 0x20 ADD PUSH0 KECCAK256 SLOAD PUSH2 0x2C7 SWAP2 SWAP1 PUSH2 0x8D5 JUMP JUMPDEST PUSH1 0x1 PUSH0 CALLER PUSH20 0xFFFFFFFFFFFFFFFFFFFFFFFFFFFFFFFFFFFFFFFF AND PUSH20 0xFFFFFFFFFFFFFFFFFFFFFFFFFFFFFFFFFFFFFFFF AND DUP2 MSTORE PUSH1 0x20 ADD SWAP1 DUP2 MSTORE PUSH1 0x20 ADD PUSH0 KECCAK256 DUP2 SWAP1 SSTORE POP JUMP JUMPDEST PUSH32 0x0 PUSH20 0xFFFFFFFFFFFFFFFFFFFFFFFFFFFFFFFFFFFFFFFF AND CALLER PUSH20 0xFFFFFFFFFFFFFFFFFFFFFFFFFFFFFFFFFFFFFFFF AND EQ PUSH2 0x38F JUMPI PUSH1 0x40 MLOAD PUSH32 0x82B4290000000000000000000000000000000000000000000000000000000000 DUP2 MSTORE PUSH1 0x4 ADD PUSH1 0x40 MLOAD DUP1 SWAP2 SUB SWAP1 REVERT JUMPDEST PUSH0 PUSH0 SWAP1 POP JUMPDEST PUSH0 DUP1 SLOAD SWAP1 POP DUP2 LT ISZERO PUSH2 0x42E JUMPI PUSH0 PUSH0 DUP3 DUP2 SLOAD DUP2 LT PUSH2 0x3B4 JUMPI PUSH2 0x3B3 PUSH2 0x908 JUMP JUMPDEST JUMPDEST SWAP1 PUSH0 MSTORE PUSH1 0x20 PUSH0 KECCAK256 ADD PUSH0 SWAP1 SLOAD SWAP1 PUSH2 0x100 EXP SWAP1 DIV PUSH20 0xFFFFFFFFFFFFFFFFFFFFFFFFFFFFFFFFFFFFFFFF AND SWAP1 POP PUSH0 PUSH1 0x1 PUSH0 DUP4 PUSH20 0xFFFFFFFFFFFFFFFFFFFFFFFFFFFFFFFFFFFFFFFF AND PUSH20 0xFFFFFFFFFFFFFFFFFFFFFFFFFFFFFFFFFFFFFFFF AND DUP2 MSTORE PUSH1 0x20 ADD SWAP1 DUP2 MSTORE PUSH1 0x20 ADD PUSH0 KECCAK256 DUP2 SWAP1 SSTORE POP POP DUP1 DUP1 PUSH1 0x1 ADD SWAP2 POP POP PUSH2 0x394 JUMP JUMPDEST POP PUSH0 PUSH8 0xFFFFFFFFFFFFFFFF DUP2 GT ISZERO PUSH2 0x449 JUMPI PUSH2 0x448 PUSH2 0x935 JUMP JUMPDEST JUMPDEST PUSH1 0x40 MLOAD SWAP1 DUP1 DUP3 MSTORE DUP1 PUSH1 0x20 MUL PUSH1 0x20 ADD DUP3 ADD PUSH1 0x40 MSTORE DUP1 ISZERO PUSH2 0x477 JUMPI DUP2 PUSH1 0x20 ADD PUSH1 0x20 DUP3 MUL DUP1 CALLDATASIZE DUP4 CALLDATACOPY DUP1 DUP3 ADD SWAP2 POP POP SWAP1 POP JUMPDEST POP PUSH0 SWAP1 DUP2 PUSH2 0x485 SWAP2 SWAP1 PUSH2 0xB34 JUMP JUMPDEST POP CALLER PUSH20 0xFFFFFFFFFFFFFFFFFFFFFFFFFFFFFFFFFFFFFFFF AND PUSH2 0x8FC SELFBALANCE SWAP1 DUP2 ISZERO MUL SWAP1 PUSH1 0x40 MLOAD PUSH0 PUSH1 0x40 MLOAD DUP1 DUP4 SUB DUP2 DUP6 DUP9 DUP9 CALL SWAP4 POP POP POP POP ISZERO DUP1 ISZERO PUSH2 0x4C9 JUMPI RETURNDATASIZE PUSH0 PUSH0 RETURNDATACOPY RETURNDATASIZE PUSH0 REVERT JUMPDEST POP PUSH0 CALLER PUSH20 0xFFFFFFFFFFFFFFFFFFFFFFFFFFFFFFFFFFFFFFFF AND PUSH2 0x8FC SELFBALANCE SWAP1 DUP2 ISZERO MUL SWAP1 PUSH1 0x40 MLOAD PUSH0 PUSH1 0x40 MLOAD DUP1 DUP4 SUB DUP2 DUP6 DUP9 DUP9 CALL SWAP4 POP POP POP POP SWAP1 POP DUP1 PUSH2 0x541 JUMPI PUSH1 0x40 MLOAD PUSH32 0x8C379A000000000000000000000000000000000000000000000000000000000 DUP2 MSTORE PUSH1 0x4 ADD PUSH2 0x538 SWAP1 PUSH2 0xC02 JUMP JUMPDEST PUSH1 0x40 MLOAD DUP1 SWAP2 SUB SWAP1 REVERT JUMPDEST PUSH0 CALLER PUSH20 0xFFFFFFFFFFFFFFFFFFFFFFFFFFFFFFFFFFFFFFFF AND SELFBALANCE PUSH1 0x40 MLOAD PUSH2 0x566 SWAP1 PUSH2 0xC4D JUMP JUMPDEST PUSH0 PUSH1 0x40 MLOAD DUP1 DUP4 SUB DUP2 DUP6 DUP8 GAS CALL SWAP3 POP POP POP RETURNDATASIZE DUP1 PUSH0 DUP2 EQ PUSH2 0x5A0 JUMPI PUSH1 0x40 MLOAD SWAP2 POP PUSH1 0x1F NOT PUSH1 0x3F RETURNDATASIZE ADD AND DUP3 ADD PUSH1 0x40 MSTORE RETURNDATASIZE DUP3 MSTORE RETURNDATASIZE PUSH0 PUSH1 0x20 DUP5 ADD RETURNDATACOPY PUSH2 0x5A5 JUMP JUMPDEST PUSH1 0x60 SWAP2 POP JUMPDEST POP POP SWAP1 POP DUP1 PUSH2 0x5E9 JUMPI PUSH1 0x40 MLOAD PUSH32 0x8C379A000000000000000000000000000000000000000000000000000000000 DUP2 MSTORE PUSH1 0x4 ADD PUSH2 0x5E0 SWAP1 PUSH2 0xCAB JUMP JUMPDEST PUSH1 0x40 MLOAD DUP1 SWAP2 SUB SWAP1 REVERT JUMPDEST POP POP JUMP JUMPDEST PUSH8 0x4563918244F40000 DUP2 JUMP JUMPDEST PUSH1 0x1 PUSH1 0x20 MSTORE DUP1 PUSH0 MSTORE PUSH1 0x40 PUSH0 KECCAK256 PUSH0 SWAP2 POP SWAP1 POP SLOAD DUP2 JUMP JUMPDEST PUSH32 0x0 DUP2 JUMP JUMPDEST PUSH0 DUP2 DUP2 SLOAD DUP2 LT PUSH2 0x640 JUMPI PUSH0 DUP1 REVERT JUMPDEST SWAP1 PUSH0 MSTORE PUSH1 0x20 PUSH0 KECCAK256 ADD PUSH0 SWAP2 POP SLOAD SWAP1 PUSH2 0x100 EXP SWAP1 DIV PUSH20 0xFFFFFFFFFFFFFFFFFFFFFFFFFFFFFFFFFFFFFFFF AND DUP2 JUMP JUMPDEST PUSH0 DUP2 SWAP1 POP SWAP2 SWAP1 POP JUMP JUMPDEST PUSH2 0x67E DUP2 PUSH2 0x66C JUMP JUMPDEST DUP3 MSTORE POP POP JUMP JUMPDEST PUSH0 PUSH1 0x20 DUP3 ADD SWAP1 POP PUSH2 0x697 PUSH0 DUP4 ADD DUP5 PUSH2 0x675 JUMP JUMPDEST SWAP3 SWAP2 POP POP JUMP JUMPDEST PUSH0 PUSH0 REVERT JUMPDEST PUSH0 PUSH20 0xFFFFFFFFFFFFFFFFFFFFFFFFFFFFFFFFFFFFFFFF DUP3 AND SWAP1 POP SWAP2 SWAP1 POP JUMP JUMPDEST PUSH0 PUSH2 0x6CA DUP3 PUSH2 0x6A1 JUMP JUMPDEST SWAP1 POP SWAP2 SWAP1 POP JUMP JUMPDEST PUSH2 0x6DA DUP2 PUSH2 0x6C0 JUMP JUMPDEST DUP2 EQ PUSH2 0x6E4 JUMPI PUSH0 PUSH0 REVERT JUMPDEST POP JUMP JUMPDEST PUSH0 DUP2 CALLDATALOAD SWAP1 POP PUSH2 0x6F5 DUP2 PUSH2 0x6D1 JUMP JUMPDEST SWAP3 SWAP2 POP POP JUMP JUMPDEST PUSH0 PUSH1 0x20 DUP3 DUP5 SUB SLT ISZERO PUSH2 0x710 JUMPI PUSH2 0x70F PUSH2 0x69D JUMP JUMPDEST JUMPDEST PUSH0 PUSH2 0x71D DUP5 DUP3 DUP6 ADD PUSH2 0x6E7 JUMP JUMPDEST SWAP2 POP POP SWAP3 SWAP2 POP POP JUMP JUMPDEST PUSH2 0x72F DUP2 PUSH2 0x6C0 JUMP JUMPDEST DUP3 MSTORE POP POP JUMP JUMPDEST PUSH0 PUSH1 0x20 DUP3 ADD SWAP1 POP PUSH2 0x748 PUSH0 DUP4 ADD DUP5 PUSH2 0x726 JUMP JUMPDEST SWAP3 SWAP2 POP POP JUMP JUMPDEST PUSH2 0x757 DUP2 PUSH2 0x66C JUMP JUMPDEST DUP2 EQ PUSH2 0x761 JUMPI PUSH0 PUSH0 REVERT JUMPDEST POP JUMP JUMPDEST PUSH0 DUP2 CALLDATALOAD SWAP1 POP PUSH2 0x772 DUP2 PUSH2 0x74E JUMP JUMPDEST SWAP3 SWAP2 POP POP JUMP JUMPDEST PUSH0 PUSH1 0x20 DUP3 DUP5 SUB SLT ISZERO PUSH2 0x78D JUMPI PUSH2 0x78C PUSH2 0x69D JUMP JUMPDEST JUMPDEST PUSH0 PUSH2 0x79A DUP5 DUP3 DUP6 ADD PUSH2 0x764 JUMP JUMPDEST SWAP2 POP POP SWAP3 SWAP2 POP POP JUMP JUMPDEST PUSH2 0x7AC DUP2 PUSH2 0x66C JUMP JUMPDEST DUP3 MSTORE POP POP JUMP JUMPDEST PUSH0 PUSH1 0x20 DUP3 ADD SWAP1 POP PUSH2 0x7C5 PUSH0 DUP4 ADD DUP5 PUSH2 0x7A3 JUMP JUMPDEST SWAP3 SWAP2 POP POP JUMP JUMPDEST PUSH0 DUP2 MLOAD SWAP1 POP PUSH2 0x7D9 DUP2 PUSH2 0x74E JUMP JUMPDEST SWAP3 SWAP2 POP POP JUMP JUMPDEST PUSH0 PUSH1 0x20 DUP3 DUP5 SUB SLT ISZERO PUSH2 0x7F4 JUMPI PUSH2 0x7F3 PUSH2 0x69D JUMP JUMPDEST JUMPDEST PUSH0 PUSH2 0x801 DUP5 DUP3 DUP6 ADD PUSH2 0x7CB JUMP JUMPDEST SWAP2 POP POP SWAP3 SWAP2 POP POP JUMP JUMPDEST PUSH0 DUP3 DUP3 MSTORE PUSH1 0x20 DUP3 ADD SWAP1 POP SWAP3 SWAP2 POP POP JUMP JUMPDEST PUSH32 0x416D6F756E74206D7573742062652067726561746572207468656E2031206574 PUSH0 DUP3 ADD MSTORE PUSH32 0x6800000000000000000000000000000000000000000000000000000000000000 PUSH1 0x20 DUP3 ADD MSTORE POP JUMP JUMPDEST PUSH0 PUSH2 0x874 PUSH1 0x21 DUP4 PUSH2 0x80A JUMP JUMPDEST SWAP2 POP PUSH2 0x87F DUP3 PUSH2 0x81A JUMP JUMPDEST PUSH1 0x40 DUP3 ADD SWAP1 POP SWAP2 SWAP1 POP JUMP JUMPDEST PUSH0 PUSH1 0x20 DUP3 ADD SWAP1 POP DUP2 DUP2 SUB PUSH0 DUP4 ADD MSTORE PUSH2 0x8A1 DUP2 PUSH2 0x868 JUMP JUMPDEST SWAP1 POP SWAP2 SWAP1 POP JUMP JUMPDEST PUSH32 0x4E487B7100000000000000000000000000000000000000000000000000000000 PUSH0 MSTORE PUSH1 0x11 PUSH1 0x4 MSTORE PUSH1 0x24 PUSH0 REVERT JUMPDEST PUSH0 PUSH2 0x8DF DUP3 PUSH2 0x66C JUMP JUMPDEST SWAP2 POP PUSH2 0x8EA DUP4 PUSH2 0x66C JUMP JUMPDEST SWAP3 POP DUP3 DUP3 ADD SWAP1 POP DUP1 DUP3 GT ISZERO PUSH2 0x902 JUMPI PUSH2 0x901 PUSH2 0x8A8 JUMP JUMPDEST JUMPDEST SWAP3 SWAP2 POP POP JUMP JUMPDEST PUSH32 0x4E487B7100000000000000000000000000000000000000000000000000000000 PUSH0 MSTORE PUSH1 0x32 PUSH1 0x4 MSTORE PUSH1 0x24 PUSH0 REVERT JUMPDEST PUSH32 0x4E487B7100000000000000000000000000000000000000000000000000000000 PUSH0 MSTORE PUSH1 0x41 PUSH1 0x4 MSTORE PUSH1 0x24 PUSH0 REVERT JUMPDEST PUSH0 DUP2 SLOAD SWAP1 POP SWAP2 SWAP1 POP JUMP JUMPDEST PUSH0 DUP2 SWAP1 POP PUSH1 0x1 DUP1 PUSH1 0x1 SUB DUP4 ADD DIV SWAP1 POP SWAP2 SWAP1 POP JUMP JUMPDEST PUSH0 DUP2 SWAP1 POP DUP2 PUSH0 MSTORE PUSH1 0x20 PUSH0 KECCAK256 SWAP1 POP SWAP2 SWAP1 POP JUMP JUMPDEST PUSH0 DUP3 DUP3 SHL SWAP1 POP SWAP3 SWAP2 POP POP JUMP JUMPDEST PUSH0 PUSH1 0x8 DUP4 MUL PUSH2 0x9CD PUSH32 0xFFFFFFFFFFFFFFFFFFFFFFFFFFFFFFFFFFFFFFFFFFFFFFFFFFFFFFFFFFFFFFFF DUP3 PUSH2 0x992 JUMP JUMPDEST PUSH2 0x9D7 DUP7 DUP4 PUSH2 0x992 JUMP JUMPDEST SWAP6 POP DUP1 NOT DUP5 AND SWAP4 POP DUP1 DUP7 AND DUP5 OR SWAP3 POP POP POP SWAP4 SWAP3 POP POP POP JUMP JUMPDEST PUSH0 DUP2 SWAP1 POP SWAP2 SWAP1 POP JUMP JUMPDEST PUSH0 PUSH2 0xA12 PUSH2 0xA0D PUSH2 0xA08 DUP5 PUSH2 0x66C JUMP JUMPDEST PUSH2 0x9EF JUMP JUMPDEST PUSH2 0x66C JUMP JUMPDEST SWAP1 POP SWAP2 SWAP1 POP JUMP JUMPDEST PUSH0 DUP2 SWAP1 POP SWAP2 SWAP1 POP JUMP JUMPDEST PUSH2 0xA2B DUP4 PUSH2 0x9F8 JUMP JUMPDEST PUSH2 0xA3F PUSH2 0xA37 DUP3 PUSH2 0xA19 JUMP JUMPDEST DUP5 DUP5 SLOAD PUSH2 0x99E JUMP JUMPDEST DUP3 SSTORE POP POP POP POP JUMP JUMPDEST PUSH0 PUSH0 SWAP1 POP SWAP1 JUMP JUMPDEST PUSH2 0xA56 PUSH2 0xA47 JUMP JUMPDEST PUSH2 0xA61 DUP2 DUP5 DUP5 PUSH2 0xA22 JUMP JUMPDEST POP POP POP JUMP JUMPDEST PUSH0 JUMPDEST DUP3 DUP2 LT ISZERO PUSH2 0xA87 JUMPI PUSH2 0xA7C PUSH0 DUP3 DUP5 ADD PUSH2 0xA4E JUMP JUMPDEST PUSH1 0x1 DUP2 ADD SWAP1 POP PUSH2 0xA68 JUMP JUMPDEST POP POP POP JUMP JUMPDEST DUP2 DUP4 LT ISZERO PUSH2 0xAC3 JUMPI PUSH2 0xA9D DUP3 PUSH2 0x96C JUMP JUMPDEST PUSH2 0xAA6 DUP5 PUSH2 0x96C JUMP JUMPDEST PUSH2 0xAAF DUP4 PUSH2 0x980 JUMP JUMPDEST DUP2 DUP2 ADD PUSH2 0xABE DUP4 DUP6 SUB DUP3 PUSH2 0xA66 JUMP JUMPDEST POP POP POP POP JUMPDEST POP POP POP JUMP JUMPDEST PUSH9 0x10000000000000000 DUP3 GT ISZERO PUSH2 0xAE2 JUMPI PUSH2 0xAE1 PUSH2 0x935 JUMP JUMPDEST JUMPDEST PUSH2 0xAEB DUP2 PUSH2 0x962 JUMP JUMPDEST DUP3 DUP3 SSTORE PUSH2 0xAF9 DUP4 DUP3 DUP5 PUSH2 0xA8C JUMP JUMPDEST POP POP POP JUMP JUMPDEST PUSH0 DUP2 MLOAD SWAP1 POP SWAP2 SWAP1 POP JUMP JUMPDEST PUSH0 PUSH2 0xB13 DUP3 MLOAD PUSH2 0x6C0 JUMP JUMPDEST DUP1 SWAP2 POP POP SWAP2 SWAP1 POP JUMP JUMPDEST PUSH0 DUP2 SWAP1 POP PUSH1 0x20 DUP3 ADD SWAP1 POP SWAP2 SWAP1 POP JUMP JUMPDEST PUSH0 DUP2 SWAP1 POP SWAP2 SWAP1 POP JUMP JUMPDEST PUSH2 0xB3D DUP3 PUSH2 0xAFE JUMP JUMPDEST PUSH8 0xFFFFFFFFFFFFFFFF DUP2 GT ISZERO PUSH2 0xB56 JUMPI PUSH2 0xB55 PUSH2 0x935 JUMP JUMPDEST JUMPDEST PUSH2 0xB60 DUP2 DUP4 PUSH2 0xAC8 JUMP JUMPDEST PUSH2 0xB69 DUP4 PUSH2 0xB1C JUMP JUMPDEST PUSH2 0xB72 DUP4 PUSH2 0x980 JUMP JUMPDEST PUSH1 0x1 DUP4 DIV PUSH0 JUMPDEST DUP2 DUP2 LT ISZERO PUSH2 0xBAF JUMPI PUSH0 PUSH2 0xB8A DUP6 PUSH2 0xB08 JUMP JUMPDEST PUSH2 0xB93 DUP2 PUSH2 0xB2B JUMP JUMPDEST DUP1 SWAP3 POP PUSH1 0x20 DUP8 ADD SWAP7 POP POP POP DUP1 DUP3 DUP6 ADD SSTORE POP PUSH1 0x1 DUP2 ADD SWAP1 POP PUSH2 0xB78 JUMP JUMPDEST POP POP POP POP POP POP POP JUMP JUMPDEST PUSH32 0x53656E64206661696C6564000000000000000000000000000000000000000000 PUSH0 DUP3 ADD MSTORE POP JUMP JUMPDEST PUSH0 PUSH2 0xBEC PUSH1 0xB DUP4 PUSH2 0x80A JUMP JUMPDEST SWAP2 POP PUSH2 0xBF7 DUP3 PUSH2 0xBB8 JUMP JUMPDEST PUSH1 0x20 DUP3 ADD SWAP1 POP SWAP2 SWAP1 POP JUMP JUMPDEST PUSH0 PUSH1 0x20 DUP3 ADD SWAP1 POP DUP2 DUP2 SUB PUSH0 DUP4 ADD MSTORE PUSH2 0xC19 DUP2 PUSH2 0xBE0 JUMP JUMPDEST SWAP1 POP SWAP2 SWAP1 POP JUMP JUMPDEST PUSH0 DUP2 SWAP1 POP SWAP3 SWAP2 POP POP JUMP JUMPDEST POP JUMP JUMPDEST PUSH0 PUSH2 0xC38 PUSH0 DUP4 PUSH2 0xC20 JUMP JUMPDEST SWAP2 POP PUSH2 0xC43 DUP3 PUSH2 0xC2A JUMP JUMPDEST PUSH0 DUP3 ADD SWAP1 POP SWAP2 SWAP1 POP JUMP JUMPDEST PUSH0 PUSH2 0xC57 DUP3 PUSH2 0xC2D JUMP JUMPDEST SWAP2 POP DUP2 SWAP1 POP SWAP2 SWAP1 POP JUMP JUMPDEST PUSH32 0x43616C6C206661696C6564000000000000000000000000000000000000000000 PUSH0 DUP3 ADD MSTORE POP JUMP JUMPDEST PUSH0 PUSH2 0xC95 PUSH1 0xB DUP4 PUSH2 0x80A JUMP JUMPDEST SWAP2 POP PUSH2 0xCA0 DUP3 PUSH2 0xC61 JUMP JUMPDEST PUSH1 0x20 DUP3 ADD SWAP1 POP SWAP2 SWAP1 POP JUMP JUMPDEST PUSH0 PUSH1 0x20 DUP3 ADD SWAP1 POP DUP2 DUP2 SUB PUSH0 DUP4 ADD MSTORE PUSH2 0xCC2 DUP2 PUSH2 0xC89 JUMP JUMPDEST SWAP1 POP SWAP2 SWAP1 POP JUMP INVALID LOG2 PUSH5 0x6970667358 0x22 SLT KECCAK256 0x2C 0xB9 EXTDELEGATECALL 0xEB COINBASE 0xC0 SWAP6 DUP12 0xB0 0xBD CODECOPY SWAP9 0xBA 0xCF DUP8 0xA9 PUSH1 0xD4 RETURN 0x22 0xC9 RETURNDATACOPY SGT LOG4 TIMESTAMP STOP PUSH11 0x1E9A1C6BBD64736F6C6343 STOP ADDMOD 0x21 STOP CALLER "
		},
		"gasEstimates": {
			"creation": {
				"codeDepositCost": "665400",
				"executionCost": "infinite",
				"totalCost": "infinite"
			},
			"external": {
				"": "infinite",
				"MINIMUM_USD()": "325",
				"addressToamountfunded(address)": "2824",
				"fund()": "infinite",
				"funders(uint256)": "5031",
				"i_owner()": "infinite",
				"withDraw()": "infinite"
			}
		},
		"methodIdentifiers": {
			"MINIMUM_USD()": "6b69a592",
			"addressToamountfunded(address)": "a0a6800f",
			"fund()": "b60d4288",
			"funders(uint256)": "dc0d3dff",
			"i_owner()": "dba6335f",
			"withDraw()": "0fdb1c10"
		}
	},
	"abi": [
		{
			"inputs": [],
			"stateMutability": "nonpayable",
			"type": "constructor"
		},
		{
			"inputs": [],
			"name": "Unauthorized",
			"type": "error"
		},
		{
			"stateMutability": "payable",
			"type": "fallback"
		},
		{
			"inputs": [],
			"name": "MINIMUM_USD",
			"outputs": [
				{
					"internalType": "uint256",
					"name": "",
					"type": "uint256"
				}
			],
			"stateMutability": "view",
			"type": "function"
		},
		{
			"inputs": [
				{
					"internalType": "address",
					"name": "",
					"type": "address"
				}
			],
			"name": "addressToamountfunded",
			"outputs": [
				{
					"internalType": "uint256",
					"name": "",
					"type": "uint256"
				}
			],
			"stateMutability": "view",
			"type": "function"
		},
		{
			"inputs": [],
			"name": "fund",
			"outputs": [],
			"stateMutability": "payable",
			"type": "function"
		},
		{
			"inputs": [
				{
					"internalType": "uint256",
					"name": "",
					"type": "uint256"
				}
			],
			"name": "funders",
			"outputs": [
				{
					"internalType": "address",
					"name": "",
					"type": "address"
				}
			],
			"stateMutability": "view",
			"type": "function"
		},
		{
			"inputs": [],
			"name": "i_owner",
			"outputs": [
				{
					"internalType": "address",
					"name": "",
					"type": "address"
				}
			],
			"stateMutability": "view",
			"type": "function"
		},
		{
			"inputs": [],
			"name": "withDraw",
			"outputs": [],
			"stateMutability": "nonpayable",
			"type": "function"
		},
		{
			"stateMutability": "payable",
			"type": "receive"
		}
	]
}