{
	"data": {
		"bytecode": {
			"linkReferences": {
				"Contract/PriceConvertor.sol": {
					"PriceConvertor": [
						{
							"length": 20,
							"start": 1247
						}
					]
				}
			},
			"object": "6080604052674563918244f400005f553480156019575f5ffd5b503360035f6101000a81548173ffffffffffffffffffffffffffffffffffffffff021916908373ffffffffffffffffffffffffffffffffffffffff160217905550610d50806100675f395ff3fe608060405260043610610054575f3560e01c8063098de820146100585780630fdb1c10146100825780638da5cb5b14610098578063a0a6800f146100c2578063b60d4288146100fe578063dc0d3dff14610108575b5f5ffd5b348015610063575f5ffd5b5061006c610144565b604051610079919061066d565b60405180910390f35b34801561008d575f5ffd5b50610096610149565b005b3480156100a3575f5ffd5b506100ac610439565b6040516100b991906106c5565b60405180910390f35b3480156100cd575f5ffd5b506100e860048036038101906100e3919061070c565b61045e565b6040516100f5919061066d565b60405180910390f35b610106610473565b005b348015610113575f5ffd5b5061012e60048036038101906101299190610761565b61061a565b60405161013b91906106c5565b60405180910390f35b5f5481565b60035f9054906101000a900473ffffffffffffffffffffffffffffffffffffffff1673ffffffffffffffffffffffffffffffffffffffff163373ffffffffffffffffffffffffffffffffffffffff16146101d8576040517f08c379a00000000000000000000000000000000000000000000000000000000081526004016101cf906107e6565b60405180910390fd5b5f5f90505b600180549050811015610279575f600182815481106101ff576101fe610804565b5b905f5260205f20015f9054906101000a900473ffffffffffffffffffffffffffffffffffffffff1690505f60025f8373ffffffffffffffffffffffffffffffffffffffff1673ffffffffffffffffffffffffffffffffffffffff1681526020019081526020015f20819055505080806001019150506101dd565b505f67ffffffffffffffff81111561029457610293610831565b5b6040519080825280602002602001820160405280156102c25781602001602082028036833780820191505090505b50600190816102d19190610a5d565b503373ffffffffffffffffffffffffffffffffffffffff166108fc4790811502906040515f60405180830381858888f19350505050158015610315573d5f5f3e3d5ffd5b505f3373ffffffffffffffffffffffffffffffffffffffff166108fc4790811502906040515f60405180830381858888f1935050505090508061038d576040517f08c379a000000000000000000000000000000000000000000000000000000000815260040161038490610b2b565b60405180910390fd5b5f3373ffffffffffffffffffffffffffffffffffffffff16476040516103b290610b76565b5f6040518083038185875af1925050503d805f81146103ec576040519150601f19603f3d011682016040523d82523d5f602084013e6103f1565b606091505b5050905080610435576040517f08c379a000000000000000000000000000000000000000000000000000000000815260040161042c90610bd4565b60405180910390fd5b5050565b60035f9054906101000a900473ffffffffffffffffffffffffffffffffffffffff1681565b6002602052805f5260405f205f915090505481565b5f543473__$12c6e211796fb1a0b7deb2980c9fd1040f$__636e5b6b2890916040518263ffffffff1660e01b81526004016104ae9190610c01565b602060405180830381865af41580156104c9573d5f5f3e3d5ffd5b505050506040513d601f19601f820116820180604052508101906104ed9190610c2e565b101561052e576040517f08c379a000000000000000000000000000000000000000000000000000000000815260040161052590610cc9565b60405180910390fd5b600133908060018154018082558091505060019003905f5260205f20015f9091909190916101000a81548173ffffffffffffffffffffffffffffffffffffffff021916908373ffffffffffffffffffffffffffffffffffffffff1602179055503460025f3373ffffffffffffffffffffffffffffffffffffffff1673ffffffffffffffffffffffffffffffffffffffff1681526020019081526020015f20546105d79190610ce7565b60025f3373ffffffffffffffffffffffffffffffffffffffff1673ffffffffffffffffffffffffffffffffffffffff1681526020019081526020015f2081905550565b60018181548110610629575f80fd5b905f5260205f20015f915054906101000a900473ffffffffffffffffffffffffffffffffffffffff1681565b5f819050919050565b61066781610655565b82525050565b5f6020820190506106805f83018461065e565b92915050565b5f73ffffffffffffffffffffffffffffffffffffffff82169050919050565b5f6106af82610686565b9050919050565b6106bf816106a5565b82525050565b5f6020820190506106d85f8301846106b6565b92915050565b5f5ffd5b6106eb816106a5565b81146106f5575f5ffd5b50565b5f81359050610706816106e2565b92915050565b5f60208284031215610721576107206106de565b5b5f61072e848285016106f8565b91505092915050565b61074081610655565b811461074a575f5ffd5b50565b5f8135905061075b81610737565b92915050565b5f60208284031215610776576107756106de565b5b5f6107838482850161074d565b91505092915050565b5f82825260208201905092915050565b7f6f6e6c79206f776e65722063616e2077697468647261770000000000000000005f82015250565b5f6107d060178361078c565b91506107db8261079c565b602082019050919050565b5f6020820190508181035f8301526107fd816107c4565b9050919050565b7f4e487b71000000000000000000000000000000000000000000000000000000005f52603260045260245ffd5b7f4e487b71000000000000000000000000000000000000000000000000000000005f52604160045260245ffd5b5f81549050919050565b7f4e487b71000000000000000000000000000000000000000000000000000000005f52601160045260245ffd5b5f8190506001806001038301049050919050565b5f819050815f5260205f209050919050565b5f82821b905092915050565b5f600883026108f67fffffffffffffffffffffffffffffffffffffffffffffffffffffffffffffffff826108bb565b61090086836108bb565b95508019841693508086168417925050509392505050565b5f819050919050565b5f61093b61093661093184610655565b610918565b610655565b9050919050565b5f819050919050565b61095483610921565b61096861096082610942565b8484546108c7565b825550505050565b5f5f905090565b61097f610970565b61098a81848461094b565b505050565b5f5b828110156109b0576109a55f828401610977565b600181019050610991565b505050565b818310156109ec576109c682610895565b6109cf84610895565b6109d8836108a9565b8181016109e78385038261098f565b505050505b505050565b68010000000000000000821115610a0b57610a0a610831565b5b610a148161085e565b828255610a228382846109b5565b505050565b5f81519050919050565b5f610a3c82516106a5565b80915050919050565b5f819050602082019050919050565b5f819050919050565b610a6682610a27565b67ffffffffffffffff811115610a7f57610a7e610831565b5b610a8981836109f1565b610a9283610a45565b610a9b836108a9565b600183045f5b81811015610ad8575f610ab385610a31565b610abc81610a54565b8092506020870196505050808285015550600181019050610aa1565b50505050505050565b7f53656e64206661696c65640000000000000000000000000000000000000000005f82015250565b5f610b15600b8361078c565b9150610b2082610ae1565b602082019050919050565b5f6020820190508181035f830152610b4281610b09565b9050919050565b5f81905092915050565b50565b5f610b615f83610b49565b9150610b6c82610b53565b5f82019050919050565b5f610b8082610b56565b9150819050919050565b7f43616c6c206661696c65640000000000000000000000000000000000000000005f82015250565b5f610bbe600b8361078c565b9150610bc982610b8a565b602082019050919050565b5f6020820190508181035f830152610beb81610bb2565b9050919050565b610bfb81610655565b82525050565b5f602082019050610c145f830184610bf2565b92915050565b5f81519050610c2881610737565b92915050565b5f60208284031215610c4357610c426106de565b5b5f610c5084828501610c1a565b91505092915050565b7f416d6f756e74206d7573742062652067726561746572207468656e20312065745f8201527f6800000000000000000000000000000000000000000000000000000000000000602082015250565b5f610cb360218361078c565b9150610cbe82610c59565b604082019050919050565b5f6020820190508181035f830152610ce081610ca7565b9050919050565b5f610cf182610655565b9150610cfc83610655565b9250828201905080821115610d1457610d13610868565b5b9291505056fea264697066735822122006d05a93db61b311550216635d58d519fad47830d74047bf3b39b53e8433360064736f6c63430008210033",
			"opcodes": "PUSH1 0x80 PUSH1 0x40 MSTORE PUSH8 0x4563918244F40000 PUSH0 SSTORE CALLVALUE DUP1 ISZERO PUSH1 0x19 JUMPI PUSH0 PUSH0 REVERT JUMPDEST POP CALLER PUSH1 0x3 PUSH0 PUSH2 0x100 EXP DUP2 SLOAD DUP2 PUSH20 0xFFFFFFFFFFFFFFFFFFFFFFFFFFFFFFFFFFFFFFFF MUL NOT AND SWAP1 DUP4 PUSH20 0xFFFFFFFFFFFFFFFFFFFFFFFFFFFFFFFFFFFFFFFF AND MUL OR SWAP1 SSTORE POP PUSH2 0xD50 DUP1 PUSH2 0x67 PUSH0 CODECOPY PUSH0 RETURN INVALID PUSH1 0x80 PUSH1 0x40 MSTORE PUSH1 0x4 CALLDATASIZE LT PUSH2 0x54 JUMPI PUSH0 CALLDATALOAD PUSH1 0xE0 SHR DUP1 PUSH4 0x98DE820 EQ PUSH2 0x58 JUMPI DUP1 PUSH4 0xFDB1C10 EQ PUSH2 0x82 JUMPI DUP1 PUSH4 0x8DA5CB5B EQ PUSH2 0x98 JUMPI DUP1 PUSH4 0xA0A6800F EQ PUSH2 0xC2 JUMPI DUP1 PUSH4 0xB60D4288 EQ PUSH2 0xFE JUMPI DUP1 PUSH4 0xDC0D3DFF EQ PUSH2 0x108 JUMPI JUMPDEST PUSH0 PUSH0 REVERT JUMPDEST CALLVALUE DUP1 ISZERO PUSH2 0x63 JUMPI PUSH0 PUSH0 REVERT JUMPDEST POP PUSH2 0x6C PUSH2 0x144 JUMP JUMPDEST PUSH1 0x40 MLOAD PUSH2 0x79 SWAP2 SWAP1 PUSH2 0x66D JUMP JUMPDEST PUSH1 0x40 MLOAD DUP1 SWAP2 SUB SWAP1 RETURN JUMPDEST CALLVALUE DUP1 ISZERO PUSH2 0x8D JUMPI PUSH0 PUSH0 REVERT JUMPDEST POP PUSH2 0x96 PUSH2 0x149 JUMP JUMPDEST STOP JUMPDEST CALLVALUE DUP1 ISZERO PUSH2 0xA3 JUMPI PUSH0 PUSH0 REVERT JUMPDEST POP PUSH2 0xAC PUSH2 0x439 JUMP JUMPDEST PUSH1 0x40 MLOAD PUSH2 0xB9 SWAP2 SWAP1 PUSH2 0x6C5 JUMP JUMPDEST PUSH1 0x40 MLOAD DUP1 SWAP2 SUB SWAP1 RETURN JUMPDEST CALLVALUE DUP1 ISZERO PUSH2 0xCD JUMPI PUSH0 PUSH0 REVERT JUMPDEST POP PUSH2 0xE8 PUSH1 0x4 DUP1 CALLDATASIZE SUB DUP2 ADD SWAP1 PUSH2 0xE3 SWAP2 SWAP1 PUSH2 0x70C JUMP JUMPDEST PUSH2 0x45E JUMP JUMPDEST PUSH1 0x40 MLOAD PUSH2 0xF5 SWAP2 SWAP1 PUSH2 0x66D JUMP JUMPDEST PUSH1 0x40 MLOAD DUP1 SWAP2 SUB SWAP1 RETURN JUMPDEST PUSH2 0x106 PUSH2 0x473 JUMP JUMPDEST STOP JUMPDEST CALLVALUE DUP1 ISZERO PUSH2 0x113 JUMPI PUSH0 PUSH0 REVERT JUMPDEST POP PUSH2 0x12E PUSH1 0x4 DUP1 CALLDATASIZE SUB DUP2 ADD SWAP1 PUSH2 0x129 SWAP2 SWAP1 PUSH2 0x761 JUMP JUMPDEST PUSH2 0x61A JUMP JUMPDEST PUSH1 0x40 MLOAD PUSH2 0x13B SWAP2 SWAP1 PUSH2 0x6C5 JUMP JUMPDEST PUSH1 0x40 MLOAD DUP1 SWAP2 SUB SWAP1 RETURN JUMPDEST PUSH0 SLOAD DUP2 JUMP JUMPDEST PUSH1 0x3 PUSH0 SWAP1 SLOAD SWAP1 PUSH2 0x100 EXP SWAP1 DIV PUSH20 0xFFFFFFFFFFFFFFFFFFFFFFFFFFFFFFFFFFFFFFFF AND PUSH20 0xFFFFFFFFFFFFFFFFFFFFFFFFFFFFFFFFFFFFFFFF AND CALLER PUSH20 0xFFFFFFFFFFFFFFFFFFFFFFFFFFFFFFFFFFFFFFFF AND EQ PUSH2 0x1D8 JUMPI PUSH1 0x40 MLOAD PUSH32 0x8C379A000000000000000000000000000000000000000000000000000000000 DUP2 MSTORE PUSH1 0x4 ADD PUSH2 0x1CF SWAP1 PUSH2 0x7E6 JUMP JUMPDEST PUSH1 0x40 MLOAD DUP1 SWAP2 SUB SWAP1 REVERT JUMPDEST PUSH0 PUSH0 SWAP1 POP JUMPDEST PUSH1 0x1 DUP1 SLOAD SWAP1 POP DUP2 LT ISZERO PUSH2 0x279 JUMPI PUSH0 PUSH1 0x1 DUP3 DUP2 SLOAD DUP2 LT PUSH2 0x1FF JUMPI PUSH2 0x1FE PUSH2 0x804 JUMP JUMPDEST JUMPDEST SWAP1 PUSH0 MSTORE PUSH1 0x20 PUSH0 KECCAK256 ADD PUSH0 SWAP1 SLOAD SWAP1 PUSH2 0x100 EXP SWAP1 DIV PUSH20 0xFFFFFFFFFFFFFFFFFFFFFFFFFFFFFFFFFFFFFFFF AND SWAP1 POP PUSH0 PUSH1 0x2 PUSH0 DUP4 PUSH20 0xFFFFFFFFFFFFFFFFFFFFFFFFFFFFFFFFFFFFFFFF AND PUSH20 0xFFFFFFFFFFFFFFFFFFFFFFFFFFFFFFFFFFFFFFFF AND DUP2 MSTORE PUSH1 0x20 ADD SWAP1 DUP2 MSTORE PUSH1 0x20 ADD PUSH0 KECCAK256 DUP2 SWAP1 SSTORE POP POP DUP1 DUP1 PUSH1 0x1 ADD SWAP2 POP POP PUSH2 0x1DD JUMP JUMPDEST POP PUSH0 PUSH8 0xFFFFFFFFFFFFFFFF DUP2 GT ISZERO PUSH2 0x294 JUMPI PUSH2 0x293 PUSH2 0x831 JUMP JUMPDEST JUMPDEST PUSH1 0x40 MLOAD SWAP1 DUP1 DUP3 MSTORE DUP1 PUSH1 0x20 MUL PUSH1 0x20 ADD DUP3 ADD PUSH1 0x40 MSTORE DUP1 ISZERO PUSH2 0x2C2 JUMPI DUP2 PUSH1 0x20 ADD PUSH1 0x20 DUP3 MUL DUP1 CALLDATASIZE DUP4 CALLDATACOPY DUP1 DUP3 ADD SWAP2 POP POP SWAP1 POP JUMPDEST POP PUSH1 0x1 SWAP1 DUP2 PUSH2 0x2D1 SWAP2 SWAP1 PUSH2 0xA5D JUMP JUMPDEST POP CALLER PUSH20 0xFFFFFFFFFFFFFFFFFFFFFFFFFFFFFFFFFFFFFFFF AND PUSH2 0x8FC SELFBALANCE SWAP1 DUP2 ISZERO MUL SWAP1 PUSH1 0x40 MLOAD PUSH0 PUSH1 0x40 MLOAD DUP1 DUP4 SUB DUP2 DUP6 DUP9 DUP9 CALL SWAP4 POP POP POP POP ISZERO DUP1 ISZERO PUSH2 0x315 JUMPI RETURNDATASIZE PUSH0 PUSH0 RETURNDATACOPY RETURNDATASIZE PUSH0 REVERT JUMPDEST POP PUSH0 CALLER PUSH20 0xFFFFFFFFFFFFFFFFFFFFFFFFFFFFFFFFFFFFFFFF AND PUSH2 0x8FC SELFBALANCE SWAP1 DUP2 ISZERO MUL SWAP1 PUSH1 0x40 MLOAD PUSH0 PUSH1 0x40 MLOAD DUP1 DUP4 SUB DUP2 DUP6 DUP9 DUP9 CALL SWAP4 POP POP POP POP SWAP1 POP DUP1 PUSH2 0x38D JUMPI PUSH1 0x40 MLOAD PUSH32 0x8C379A000000000000000000000000000000000000000000000000000000000 DUP2 MSTORE PUSH1 0x4 ADD PUSH2 0x384 SWAP1 PUSH2 0xB2B JUMP JUMPDEST PUSH1 0x40 MLOAD DUP1 SWAP2 SUB SWAP1 REVERT JUMPDEST PUSH0 CALLER PUSH20 0xFFFFFFFFFFFFFFFFFFFFFFFFFFFFFFFFFFFFFFFF AND SELFBALANCE PUSH1 0x40 MLOAD PUSH2 0x3B2 SWAP1 PUSH2 0xB76 JUMP JUMPDEST PUSH0 PUSH1 0x40 MLOAD DUP1 DUP4 SUB DUP2 DUP6 DUP8 GAS CALL SWAP3 POP POP POP RETURNDATASIZE DUP1 PUSH0 DUP2 EQ PUSH2 0x3EC JUMPI PUSH1 0x40 MLOAD SWAP2 POP PUSH1 0x1F NOT PUSH1 0x3F RETURNDATASIZE ADD AND DUP3 ADD PUSH1 0x40 MSTORE RETURNDATASIZE DUP3 MSTORE RETURNDATASIZE PUSH0 PUSH1 0x20 DUP5 ADD RETURNDATACOPY PUSH2 0x3F1 JUMP JUMPDEST PUSH1 0x60 SWAP2 POP JUMPDEST POP POP SWAP1 POP DUP1 PUSH2 0x435 JUMPI PUSH1 0x40 MLOAD PUSH32 0x8C379A000000000000000000000000000000000000000000000000000000000 DUP2 MSTORE PUSH1 0x4 ADD PUSH2 0x42C SWAP1 PUSH2 0xBD4 JUMP JUMPDEST PUSH1 0x40 MLOAD DUP1 SWAP2 SUB SWAP1 REVERT JUMPDEST POP POP JUMP JUMPDEST PUSH1 0x3 PUSH0 SWAP1 SLOAD SWAP1 PUSH2 0x100 EXP SWAP1 DIV PUSH20 0xFFFFFFFFFFFFFFFFFFFFFFFFFFFFFFFFFFFFFFFF AND DUP2 JUMP JUMPDEST PUSH1 0x2 PUSH1 0x20 MSTORE DUP1 PUSH0 MSTORE PUSH1 0x40 PUSH0 KECCAK256 PUSH0 SWAP2 POP SWAP1 POP SLOAD DUP2 JUMP JUMPDEST PUSH0 SLOAD CALLVALUE PUSH20 0x0 PUSH4 0x6E5B6B28 SWAP1 SWAP2 PUSH1 0x40 MLOAD DUP3 PUSH4 0xFFFFFFFF AND PUSH1 0xE0 SHL DUP2 MSTORE PUSH1 0x4 ADD PUSH2 0x4AE SWAP2 SWAP1 PUSH2 0xC01 JUMP JUMPDEST PUSH1 0x20 PUSH1 0x40 MLOAD DUP1 DUP4 SUB DUP2 DUP7 GAS DELEGATECALL ISZERO DUP1 ISZERO PUSH2 0x4C9 JUMPI RETURNDATASIZE PUSH0 PUSH0 RETURNDATACOPY RETURNDATASIZE PUSH0 REVERT JUMPDEST POP POP POP POP PUSH1 0x40 MLOAD RETURNDATASIZE PUSH1 0x1F NOT PUSH1 0x1F DUP3 ADD AND DUP3 ADD DUP1 PUSH1 0x40 MSTORE POP DUP2 ADD SWAP1 PUSH2 0x4ED SWAP2 SWAP1 PUSH2 0xC2E JUMP JUMPDEST LT ISZERO PUSH2 0x52E JUMPI PUSH1 0x40 MLOAD PUSH32 0x8C379A000000000000000000000000000000000000000000000000000000000 DUP2 MSTORE PUSH1 0x4 ADD PUSH2 0x525 SWAP1 PUSH2 0xCC9 JUMP JUMPDEST PUSH1 0x40 MLOAD DUP1 SWAP2 SUB SWAP1 REVERT JUMPDEST PUSH1 0x1 CALLER SWAP1 DUP1 PUSH1 0x1 DUP2 SLOAD ADD DUP1 DUP3 SSTORE DUP1 SWAP2 POP POP PUSH1 0x1 SWAP1 SUB SWAP1 PUSH0 MSTORE PUSH1 0x20 PUSH0 KECCAK256 ADD PUSH0 SWAP1 SWAP2 SWAP1 SWAP2 SWAP1 SWAP2 PUSH2 0x100 EXP DUP2 SLOAD DUP2 PUSH20 0xFFFFFFFFFFFFFFFFFFFFFFFFFFFFFFFFFFFFFFFF MUL NOT AND SWAP1 DUP4 PUSH20 0xFFFFFFFFFFFFFFFFFFFFFFFFFFFFFFFFFFFFFFFF AND MUL OR SWAP1 SSTORE POP CALLVALUE PUSH1 0x2 PUSH0 CALLER PUSH20 0xFFFFFFFFFFFFFFFFFFFFFFFFFFFFFFFFFFFFFFFF AND PUSH20 0xFFFFFFFFFFFFFFFFFFFFFFFFFFFFFFFFFFFFFFFF AND DUP2 MSTORE PUSH1 0x20 ADD SWAP1 DUP2 MSTORE PUSH1 0x20 ADD PUSH0 KECCAK256 SLOAD PUSH2 0x5D7 SWAP2 SWAP1 PUSH2 0xCE7 JUMP JUMPDEST PUSH1 0x2 PUSH0 CALLER PUSH20 0xFFFFFFFFFFFFFFFFFFFFFFFFFFFFFFFFFFFFFFFF AND PUSH20 0xFFFFFFFFFFFFFFFFFFFFFFFFFFFFFFFFFFFFFFFF AND DUP2 MSTORE PUSH1 0x20 ADD SWAP1 DUP2 MSTORE PUSH1 0x20 ADD PUSH0 KECCAK256 DUP2 SWAP1 SSTORE POP JUMP JUMPDEST PUSH1 0x1 DUP2 DUP2 SLOAD DUP2 LT PUSH2 0x629 JUMPI PUSH0 DUP1 REVERT JUMPDEST SWAP1 PUSH0 MSTORE PUSH1 0x20 PUSH0 KECCAK256 ADD PUSH0 SWAP2 POP SLOAD SWAP1 PUSH2 0x100 EXP SWAP1 DIV PUSH20 0xFFFFFFFFFFFFFFFFFFFFFFFFFFFFFFFFFFFFFFFF AND DUP2 JUMP JUMPDEST PUSH0 DUP2 SWAP1 POP SWAP2 SWAP1 POP JUMP JUMPDEST PUSH2 0x667 DUP2 PUSH2 0x655 JUMP JUMPDEST DUP3 MSTORE POP POP JUMP JUMPDEST PUSH0 PUSH1 0x20 DUP3 ADD SWAP1 POP PUSH2 0x680 PUSH0 DUP4 ADD DUP5 PUSH2 0x65E JUMP JUMPDEST SWAP3 SWAP2 POP POP JUMP JUMPDEST PUSH0 PUSH20 0xFFFFFFFFFFFFFFFFFFFFFFFFFFFFFFFFFFFFFFFF DUP3 AND SWAP1 POP SWAP2 SWAP1 POP JUMP JUMPDEST PUSH0 PUSH2 0x6AF DUP3 PUSH2 0x686 JUMP JUMPDEST SWAP1 POP SWAP2 SWAP1 POP JUMP JUMPDEST PUSH2 0x6BF DUP2 PUSH2 0x6A5 JUMP JUMPDEST DUP3 MSTORE POP POP JUMP JUMPDEST PUSH0 PUSH1 0x20 DUP3 ADD SWAP1 POP PUSH2 0x6D8 PUSH0 DUP4 ADD DUP5 PUSH2 0x6B6 JUMP JUMPDEST SWAP3 SWAP2 POP POP JUMP JUMPDEST PUSH0 PUSH0 REVERT JUMPDEST PUSH2 0x6EB DUP2 PUSH2 0x6A5 JUMP JUMPDEST DUP2 EQ PUSH2 0x6F5 JUMPI PUSH0 PUSH0 REVERT JUMPDEST POP JUMP JUMPDEST PUSH0 DUP2 CALLDATALOAD SWAP1 POP PUSH2 0x706 DUP2 PUSH2 0x6E2 JUMP JUMPDEST SWAP3 SWAP2 POP POP JUMP JUMPDEST PUSH0 PUSH1 0x20 DUP3 DUP5 SUB SLT ISZERO PUSH2 0x721 JUMPI PUSH2 0x720 PUSH2 0x6DE JUMP JUMPDEST JUMPDEST PUSH0 PUSH2 0x72E DUP5 DUP3 DUP6 ADD PUSH2 0x6F8 JUMP JUMPDEST SWAP2 POP POP SWAP3 SWAP2 POP POP JUMP JUMPDEST PUSH2 0x740 DUP2 PUSH2 0x655 JUMP JUMPDEST DUP2 EQ PUSH2 0x74A JUMPI PUSH0 PUSH0 REVERT JUMPDEST POP JUMP JUMPDEST PUSH0 DUP2 CALLDATALOAD SWAP1 POP PUSH2 0x75B DUP2 PUSH2 0x737 JUMP JUMPDEST SWAP3 SWAP2 POP POP JUMP JUMPDEST PUSH0 PUSH1 0x20 DUP3 DUP5 SUB SLT ISZERO PUSH2 0x776 JUMPI PUSH2 0x775 PUSH2 0x6DE JUMP JUMPDEST JUMPDEST PUSH0 PUSH2 0x783 DUP5 DUP3 DUP6 ADD PUSH2 0x74D JUMP JUMPDEST SWAP2 POP POP SWAP3 SWAP2 POP POP JUMP JUMPDEST PUSH0 DUP3 DUP3 MSTORE PUSH1 0x20 DUP3 ADD SWAP1 POP SWAP3 SWAP2 POP POP JUMP JUMPDEST PUSH32 0x6F6E6C79206F776E65722063616E207769746864726177000000000000000000 PUSH0 DUP3 ADD MSTORE POP JUMP JUMPDEST PUSH0 PUSH2 0x7D0 PUSH1 0x17 DUP4 PUSH2 0x78C JUMP JUMPDEST SWAP2 POP PUSH2 0x7DB DUP3 PUSH2 0x79C JUMP JUMPDEST PUSH1 0x20 DUP3 ADD SWAP1 POP SWAP2 SWAP1 POP JUMP JUMPDEST PUSH0 PUSH1 0x20 DUP3 ADD SWAP1 POP DUP2 DUP2 SUB PUSH0 DUP4 ADD MSTORE PUSH2 0x7FD DUP2 PUSH2 0x7C4 JUMP JUMPDEST SWAP1 POP SWAP2 SWAP1 POP JUMP JUMPDEST PUSH32 0x4E487B7100000000000000000000000000000000000000000000000000000000 PUSH0 MSTORE PUSH1 0x32 PUSH1 0x4 MSTORE PUSH1 0x24 PUSH0 REVERT JUMPDEST PUSH32 0x4E487B7100000000000000000000000000000000000000000000000000000000 PUSH0 MSTORE PUSH1 0x41 PUSH1 0x4 MSTORE PUSH1 0x24 PUSH0 REVERT JUMPDEST PUSH0 DUP2 SLOAD SWAP1 POP SWAP2 SWAP1 POP JUMP JUMPDEST PUSH32 0x4E487B7100000000000000000000000000000000000000000000000000000000 PUSH0 MSTORE PUSH1 0x11 PUSH1 0x4 MSTORE PUSH1 0x24 PUSH0 REVERT JUMPDEST PUSH0 DUP2 SWAP1 POP PUSH1 0x1 DUP1 PUSH1 0x1 SUB DUP4 ADD DIV SWAP1 POP SWAP2 SWAP1 POP JUMP JUMPDEST PUSH0 DUP2 SWAP1 POP DUP2 PUSH0 MSTORE PUSH1 0x20 PUSH0 KECCAK256 SWAP1 POP SWAP2 SWAP1 POP JUMP JUMPDEST PUSH0 DUP3 DUP3 SHL SWAP1 POP SWAP3 SWAP2 POP POP JUMP JUMPDEST PUSH0 PUSH1 0x8 DUP4 MUL PUSH2 0x8F6 PUSH32 0xFFFFFFFFFFFFFFFFFFFFFFFFFFFFFFFFFFFFFFFFFFFFFFFFFFFFFFFFFFFFFFFF DUP3 PUSH2 0x8BB JUMP JUMPDEST PUSH2 0x900 DUP7 DUP4 PUSH2 0x8BB JUMP JUMPDEST SWAP6 POP DUP1 NOT DUP5 AND SWAP4 POP DUP1 DUP7 AND DUP5 OR SWAP3 POP POP POP SWAP4 SWAP3 POP POP POP JUMP JUMPDEST PUSH0 DUP2 SWAP1 POP SWAP2 SWAP1 POP JUMP JUMPDEST PUSH0 PUSH2 0x93B PUSH2 0x936 PUSH2 0x931 DUP5 PUSH2 0x655 JUMP JUMPDEST PUSH2 0x918 JUMP JUMPDEST PUSH2 0x655 JUMP JUMPDEST SWAP1 POP SWAP2 SWAP1 POP JUMP JUMPDEST PUSH0 DUP2 SWAP1 POP SWAP2 SWAP1 POP JUMP JUMPDEST PUSH2 0x954 DUP4 PUSH2 0x921 JUMP JUMPDEST PUSH2 0x968 PUSH2 0x960 DUP3 PUSH2 0x942 JUMP JUMPDEST DUP5 DUP5 SLOAD PUSH2 0x8C7 JUMP JUMPDEST DUP3 SSTORE POP POP POP POP JUMP JUMPDEST PUSH0 PUSH0 SWAP1 POP SWAP1 JUMP JUMPDEST PUSH2 0x97F PUSH2 0x970 JUMP JUMPDEST PUSH2 0x98A DUP2 DUP5 DUP5 PUSH2 0x94B JUMP JUMPDEST POP POP POP JUMP JUMPDEST PUSH0 JUMPDEST DUP3 DUP2 LT ISZERO PUSH2 0x9B0 JUMPI PUSH2 0x9A5 PUSH0 DUP3 DUP5 ADD PUSH2 0x977 JUMP JUMPDEST PUSH1 0x1 DUP2 ADD SWAP1 POP PUSH2 0x991 JUMP JUMPDEST POP POP POP JUMP JUMPDEST DUP2 DUP4 LT ISZERO PUSH2 0x9EC JUMPI PUSH2 0x9C6 DUP3 PUSH2 0x895 JUMP JUMPDEST PUSH2 0x9CF DUP5 PUSH2 0x895 JUMP JUMPDEST PUSH2 0x9D8 DUP4 PUSH2 0x8A9 JUMP JUMPDEST DUP2 DUP2 ADD PUSH2 0x9E7 DUP4 DUP6 SUB DUP3 PUSH2 0x98F JUMP JUMPDEST POP POP POP POP JUMPDEST POP POP POP JUMP JUMPDEST PUSH9 0x10000000000000000 DUP3 GT ISZERO PUSH2 0xA0B JUMPI PUSH2 0xA0A PUSH2 0x831 JUMP JUMPDEST JUMPDEST PUSH2 0xA14 DUP2 PUSH2 0x85E JUMP JUMPDEST DUP3 DUP3 SSTORE PUSH2 0xA22 DUP4 DUP3 DUP5 PUSH2 0x9B5 JUMP JUMPDEST POP POP POP JUMP JUMPDEST PUSH0 DUP2 MLOAD SWAP1 POP SWAP2 SWAP1 POP JUMP JUMPDEST PUSH0 PUSH2 0xA3C DUP3 MLOAD PUSH2 0x6A5 JUMP JUMPDEST DUP1 SWAP2 POP POP SWAP2 SWAP1 POP JUMP JUMPDEST PUSH0 DUP2 SWAP1 POP PUSH1 0x20 DUP3 ADD SWAP1 POP SWAP2 SWAP1 POP JUMP JUMPDEST PUSH0 DUP2 SWAP1 POP SWAP2 SWAP1 POP JUMP JUMPDEST PUSH2 0xA66 DUP3 PUSH2 0xA27 JUMP JUMPDEST PUSH8 0xFFFFFFFFFFFFFFFF DUP2 GT ISZERO PUSH2 0xA7F JUMPI PUSH2 0xA7E PUSH2 0x831 JUMP JUMPDEST JUMPDEST PUSH2 0xA89 DUP2 DUP4 PUSH2 0x9F1 JUMP JUMPDEST PUSH2 0xA92 DUP4 PUSH2 0xA45 JUMP JUMPDEST PUSH2 0xA9B DUP4 PUSH2 0x8A9 JUMP JUMPDEST PUSH1 0x1 DUP4 DIV PUSH0 JUMPDEST DUP2 DUP2 LT ISZERO PUSH2 0xAD8 JUMPI PUSH0 PUSH2 0xAB3 DUP6 PUSH2 0xA31 JUMP JUMPDEST PUSH2 0xABC DUP2 PUSH2 0xA54 JUMP JUMPDEST DUP1 SWAP3 POP PUSH1 0x20 DUP8 ADD SWAP7 POP POP POP DUP1 DUP3 DUP6 ADD SSTORE POP PUSH1 0x1 DUP2 ADD SWAP1 POP PUSH2 0xAA1 JUMP JUMPDEST POP POP POP POP POP POP POP JUMP JUMPDEST PUSH32 0x53656E64206661696C6564000000000000000000000000000000000000000000 PUSH0 DUP3 ADD MSTORE POP JUMP JUMPDEST PUSH0 PUSH2 0xB15 PUSH1 0xB DUP4 PUSH2 0x78C JUMP JUMPDEST SWAP2 POP PUSH2 0xB20 DUP3 PUSH2 0xAE1 JUMP JUMPDEST PUSH1 0x20 DUP3 ADD SWAP1 POP SWAP2 SWAP1 POP JUMP JUMPDEST PUSH0 PUSH1 0x20 DUP3 ADD SWAP1 POP DUP2 DUP2 SUB PUSH0 DUP4 ADD MSTORE PUSH2 0xB42 DUP2 PUSH2 0xB09 JUMP JUMPDEST SWAP1 POP SWAP2 SWAP1 POP JUMP JUMPDEST PUSH0 DUP2 SWAP1 POP SWAP3 SWAP2 POP POP JUMP JUMPDEST POP JUMP JUMPDEST PUSH0 PUSH2 0xB61 PUSH0 DUP4 PUSH2 0xB49 JUMP JUMPDEST SWAP2 POP PUSH2 0xB6C DUP3 PUSH2 0xB53 JUMP JUMPDEST PUSH0 DUP3 ADD SWAP1 POP SWAP2 SWAP1 POP JUMP JUMPDEST PUSH0 PUSH2 0xB80 DUP3 PUSH2 0xB56 JUMP JUMPDEST SWAP2 POP DUP2 SWAP1 POP SWAP2 SWAP1 POP JUMP JUMPDEST PUSH32 0x43616C6C206661696C6564000000000000000000000000000000000000000000 PUSH0 DUP3 ADD MSTORE POP JUMP JUMPDEST PUSH0 PUSH2 0xBBE PUSH1 0xB DUP4 PUSH2 0x78C JUMP JUMPDEST SWAP2 POP PUSH2 0xBC9 DUP3 PUSH2 0xB8A JUMP JUMPDEST PUSH1 0x20 DUP3 ADD SWAP1 POP SWAP2 SWAP1 POP JUMP JUMPDEST PUSH0 PUSH1 0x20 DUP3 ADD SWAP1 POP DUP2 DUP2 SUB PUSH0 DUP4 ADD MSTORE PUSH2 0xBEB DUP2 PUSH2 0xBB2 JUMP JUMPDEST SWAP1 POP SWAP2 SWAP1 POP JUMP JUMPDEST PUSH2 0xBFB DUP2 PUSH2 0x655 JUMP JUMPDEST DUP3 MSTORE POP POP JUMP JUMPDEST PUSH0 PUSH1 0x20 DUP3 ADD SWAP1 POP PUSH2 0xC14 PUSH0 DUP4 ADD DUP5 PUSH2 0xBF2 JUMP JUMPDEST SWAP3 SWAP2 POP POP JUMP JUMPDEST PUSH0 DUP2 MLOAD SWAP1 POP PUSH2 0xC28 DUP2 PUSH2 0x737 JUMP JUMPDEST SWAP3 SWAP2 POP POP JUMP JUMPDEST PUSH0 PUSH1 0x20 DUP3 DUP5 SUB SLT ISZERO PUSH2 0xC43 JUMPI PUSH2 0xC42 PUSH2 0x6DE JUMP JUMPDEST JUMPDEST PUSH0 PUSH2 0xC50 DUP5 DUP3 DUP6 ADD PUSH2 0xC1A JUMP JUMPDEST SWAP2 POP POP SWAP3 SWAP2 POP POP JUMP JUMPDEST PUSH32 0x416D6F756E74206D7573742062652067726561746572207468656E2031206574 PUSH0 DUP3 ADD MSTORE PUSH32 0x6800000000000000000000000000000000000000000000000000000000000000 PUSH1 0x20 DUP3 ADD MSTORE POP JUMP JUMPDEST PUSH0 PUSH2 0xCB3 PUSH1 0x21 DUP4 PUSH2 0x78C JUMP JUMPDEST SWAP2 POP PUSH2 0xCBE DUP3 PUSH2 0xC59 JUMP JUMPDEST PUSH1 0x40 DUP3 ADD SWAP1 POP SWAP2 SWAP1 POP JUMP JUMPDEST PUSH0 PUSH1 0x20 DUP3 ADD SWAP1 POP DUP2 DUP2 SUB PUSH0 DUP4 ADD MSTORE PUSH2 0xCE0 DUP2 PUSH2 0xCA7 JUMP JUMPDEST SWAP1 POP SWAP2 SWAP1 POP JUMP JUMPDEST PUSH0 PUSH2 0xCF1 DUP3 PUSH2 0x655 JUMP JUMPDEST SWAP2 POP PUSH2 0xCFC DUP4 PUSH2 0x655 JUMP JUMPDEST SWAP3 POP DUP3 DUP3 ADD SWAP1 POP DUP1 DUP3 GT ISZERO PUSH2 0xD14 JUMPI PUSH2 0xD13 PUSH2 0x868 JUMP JUMPDEST JUMPDEST SWAP3 SWAP2 POP POP JUMP INVALID LOG2 PUSH5 0x6970667358 0x22 SLT KECCAK256 MOD 0xD0 GAS SWAP4 0xDB PUSH2 0xB311 SSTORE MUL AND PUSH4 0x5D58D519 STATICCALL 0xD4 PUSH25 0x30D74047BF3B39B53E8433360064736F6C6343000821003300 "
		},
		"gasEstimates": {
			"creation": {
				"codeDepositCost": "681600",
				"executionCost": "47083",
				"totalCost": "728683"
			},
			"external": {
				"addressToamountfunded(address)": "2846",
				"fund()": "infinite",
				"funders(uint256)": "5032",
				"minimumUsd()": "2402",
				"owner()": "2530",
				"withDraw()": "infinite"
			}
		},
		"methodIdentifiers": {
			"addressToamountfunded(address)": "a0a6800f",
			"fund()": "b60d4288",
			"funders(uint256)": "dc0d3dff",
			"minimumUsd()": "098de820",
			"owner()": "8da5cb5b",
			"withDraw()": "0fdb1c10"
		}
	},
	"abi": [
		{
			"inputs": [],
			"stateMutability": "nonpayable",
			"type": "constructor"
		},
		{
			"inputs": [
				{
					"internalType": "address",
					"name": "",
					"type": "address"
				}
			],
			"name": "addressToamountfunded",
			"outputs": [
				{
					"internalType": "uint256",
					"name": "",
					"type": "uint256"
				}
			],
			"stateMutability": "view",
			"type": "function"
		},
		{
			"inputs": [],
			"name": "fund",
			"outputs": [],
			"stateMutability": "payable",
			"type": "function"
		},
		{
			"inputs": [
				{
					"internalType": "uint256",
					"name": "",
					"type": "uint256"
				}
			],
			"name": "funders",
			"outputs": [
				{
					"internalType": "address",
					"name": "",
					"type": "address"
				}
			],
			"stateMutability": "view",
			"type": "function"
		},
		{
			"inputs": [],
			"name": "minimumUsd",
			"outputs": [
				{
					"internalType": "uint256",
					"name": "",
					"type": "uint256"
				}
			],
			"stateMutability": "view",
			"type": "function"
		},
		{
			"inputs": [],
			"name": "owner",
			"outputs": [
				{
					"internalType": "address",
					"name": "",
					"type": "address"
				}
			],
			"stateMutability": "view",
			"type": "function"
		},
		{
			"inputs": [],
			"name": "withDraw",
			"outputs": [],
			"stateMutability": "nonpayable",
			"type": "function"
		}
	]
}